:020000040800F2
:10000000988A002059020008674D0008F52B000867
:10001000654D0008FF030008554F00080000000070
:100020000000000000000000000000009D0100082A
:100030009504000800000000F1010008934D00083D
:1000400073020008730200087302000873020008BC
:1000500073020008730200087302000873020008AC
:10006000730200087302000873020008010400080C
:10007000730200087302000873020008730200088C
:10008000730200080D0400087302000873020008E0
:10009000730200087302000873020008730200086C
:1000A000730200087302000873020008730200085C
:1000B000894E0008730200087302000873020008EA
:1000C000730200087302000873020008730200083C
:1000D000730200087302000873020008730200082C
:1000E000730200087302000873020008730200081C
:1000F000730200087302000873020008730200080C
:1001000073020008730200087302000873020008FB
:1001100073020008730200087302000873020008EB
:1001200073020008730200087302000873020008DB
:1001300073020008730200087302000873020008CB
:1001400073020008730200087302000873020008BB
:1001500073020008730200087302000873020008AB
:10016000730200087302000873020008730200089B
:100170007302000873020008730200080000000008
:100180007302000873020008DFF80CD000F0FAF8E0
:1001900000480047F9820008988A00202B4B196814
:1001A0000868B0E8F04F80F30988BFF36F8F4FF015
:1001B000000080F3118870470000000006480068C6
:1001C000006880F3088862B661B6BFF34F8FBFF353
:1001D0006F8F00DF00BF00BF08ED00E0DFF80C000C
:1001E000016841F470010160704700BF88ED00E0D4
:1001F000EFF30980BFF36F8F144B1A681EF0100FD6
:1002000008BF20ED108A20E9F04F106008B44FF0CD
:10021000500080F31188BFF34F8FBFF36F8F08F04A
:10022000B5FD4FF0000080F3118808BC196808681C
:10023000B0E8F04F1EF0100F08BFB0EC108A80F34A
:100240000988BFF36F8F704700BF00BF58000020C0
:10025000EFF30580704700000648804706480047D6
:10026000FEE7FEE7FEE7FEE7FEE7FEE7FEE7FEE766
:10027000FEE7FEE7354E0008890100082DE9F05F32
:100280000546002092469B46884606468146402405
:100290001BE0284641464746224600F062F8534696
:1002A0005A46C01A914110D311461846224600F012
:1002B00049F82D1A67EB01084F462246012000211C
:1002C00000F040F817EB00094E41201EA4F1010494
:1002D000DFDC484631462A464346BDE8F09F10B56C
:1002E000441A0346944209D28418114403E011F8D9
:1002F000013D04F8013D521EF9D210BD40EA01044F
:10030000A40703D009E010C9121F10C3042AFAD2AF
:1003100003E011F8014B03F8014B521EF9D210BD56
:10032000D2B201E000F8012B491EFBD27047002237
:10033000F6E710B513460A4604461946FFF7F0FFE4
:10034000204610BD202A04DB203A00FA02F10020EA
:1003500070479140C2F1200320FA03F31943904003
:100360007047202A04DB203A21FA02F0002170476E
:1003700021FA02F3D040C2F120029140084319460D
:1003800070470000064C074D06E0E06840F00103AE
:1003900094E8070098471034AC42F6D3FFF7F8FE14
:1003A00050B6000870B6000870B58C1810F8015BE4
:1003B00015F0070301D110F8013B2A1106D110F8FE
:1003C000012B03E010F8016B01F8016B5B1EF9D102
:1003D0002B0705D40023521E0DD401F8013BFAE788
:1003E00010F8013BCB1A921C03E013F8015B01F8F3
:1003F000015B521EF9D5A142D8D3002070BDFEE7A3
:10040000014801F0E7BB0000B42A0020014801F0D8
:10041000E1BB0000142B002001681823CAB2103A77
:10042000B2FBF3F2054B6FF30901032A9B5CC36532
:1004300000D9091D8165084670470000A49700088F
:1004400010B5014600208B698A6A4FF0C07453B121
:10045000B3F5005F15D072B1012A0CD0022A0AD080
:10046000032A09D104E01AB1012A06D0022A03D1D5
:10047000C96AC90100D5012010BDC96AA142FAD0DC
:1004800010BD002AF7D0012AF2D0022AF3D0032AA5
:10049000F3D010BD7047000070B5B3F5804F05D0A4
:1004A0006FF0704140F82210002070BD50F82240DB
:1004B000084B8E891C40D1E9003543EA05138D684D
:1004C00089692D0245EA06452B430B43234340F837
:1004D0002230E9E70000F0CFF0B50C6850F8243086
:1004E000114A1340D1E90125D1E903672A433E436C
:1004F00032434E6932438E693243CE6932430E6ACB
:1005000032434E6A32438E6A3243CE6A3243CE6BF6
:10051000096B32430A431A43082D01D142F04002CD
:1005200040F824200020F0BD8000F0FF30B500EB43
:10053000820250688D8900F04043D1E9000440EA0E
:1005400004108C68240244EA054420430C8A074DB9
:1005500005EB045420430C7D6D0105EB04648969AF
:100560002043084318435060002030BD0000F0FFD6
:1005700070B50C46054600F0FFF8A8682168C16216
:1005800061680163A1684163490707D5D0E900218B
:10059000C0E90012D0E90221C0E90212A1898184D8
:1005A0002169002903D001DC4FF00001016270BD18
:1005B0002DE9F0411E4617468846054600F0DCF856
:1005C000AC686822414604F58A70FFF788FE284629
:1005D000B8472846B047286980688047A062BDE8D0
:1005E000F081000010B5044600F0C6F8A06811497B
:1005F000144AC0F8AC101049C0F8A8100F49C0F850
:10060000B0100F49C0F8B8100021C0F8BC10136832
:10061000C0F8B4300C4BC0E933315168C0F8C81091
:1006200030F8261F21F0030120F82E1B0749016432
:1006300010BD0000AD780008AD790008757800089D
:10064000FF74000814010020CF7500082578000809
:1006500010B5044600F090F8A46810481021C4F8C2
:10066000EC000F48C4F8F0000E48C4F8F4000E483F
:10067000C4F8F8000D48C4F8A0000D48C4F8A40060
:10068000D4F8C800C4F80401D4F894202046904758
:100690001020A0630748606410BD0000BD6300081F
:1006A00025690008B9060008ED070008B9740008BC
:1006B000837A000868B20008F8B5846815460F46CA
:1006C00094F8260080074CD5D4F808312046984786
:1006D0000646D4F80C312A46394620469847D4F8C5
:1006E000983005461BB10022012120469847206919
:1006F000B04201DD012000E00020A169B14201DA31
:10070000012100E0002108436169A94201DD0121C6
:1007100000E000210843E169A94201DA012100E07B
:10072000002108430AD060680022401E0090236820
:10073000D4F8A870114620465B1EB847D4F8AC30F8
:100740002A46314620469847D4F8A01020468847CC
:10075000D4F8983005466BB1012200212046984715
:1007600008E0D4F8AC3020469847D4F8A0102046D2
:10077000884705462846F8BD70B5044680680028BD
:1007800013D14FF4BE75284600F090FA074BA060D5
:100790002A461B6800219847A0680221C1840121D4
:1007A000046401620249C0F8101170BD20010020EC
:1007B000B507000810B590B0044620220A496846E3
:1007C000FFF78DFD08492022203108A8FFF787FD9B
:1007D000606B5DF82010C4F8081108A951F82000DA
:1007E000C4F80C0110B010BD189800082DE9F843AA
:1007F00084689846154694F826000F46800740D531
:10080000D4F80831204698470646D4F80C312A46D9
:1008100039462046984705462069B04201DD01204F
:1008200000E00020A169B14201DA012100E00021CD
:1008300008436169A94201DD012100E0002108436C
:10084000E169A94201DA012100E0002108430AD050
:1008500060680022401E00902368D4F8A8701146FA
:1008600020465B1EB847D4F8AC302A4631462046B5
:100870009847D4F8A42001B041462046BDE8F04393
:100880001047D4F8AC30F2E72DE9F04FDFF828B18B
:1008900091B04FF0FF35DBF80030B3F9221006912C
:1008A000DE69B3F92490F469A189814206D8E2890E
:1008B000824203D3471AD4F8008012E0D4E90181C0
:1008C00000296FD00A8882426CD84D88854269D34E
:1008D000801A82B2486800EB8200B0F90070B0F96B
:1008E0000250781C5ED0307EA17C10FB01FA217C86
:1008F000CDE90701B3F92A60304603F005FFC0B225
:100900000E90DBF8000007FB0A81A37C826B0127B5
:10091000CDE90412CDE90273C069089AC17E807ED8
:10092000CDE90001DDE90603494602F041FA681C01
:1009300018D046F0020003F0E7FEDBF80000A37CCD
:1009400005FB0A81826BCDE90273CDE90412C0690F
:10095000089AC17E807ECDE90001DDE906034946A3
:1009600002F026FADBF800005D46C069417E007E99
:10097000814214D9022E12D086F0040003F0C4FE86
:100980002868C069027EC37E12FB0391437E857E88
:10099000089A06984B4412FB050202F06BFB0E9876
:1009A00003F0B2FEDBF80000627C418C114441840C
:1009B00011B0BDE8F08F0000A800002004480068D6
:1009C000C069C06909B1027C0A60407C70470000C0
:1009D000A8000020022008807047C06982898A42EE
:1009E00002D8C2898A4210D2806880B102888A42C5
:1009F0000DD843888B420AD3406800EB8100A0EBFE
:100A00008200B0F90000002801DB012070470020BF
:100A1000704700002DE9F043304C034687B0206852
:100A20001946B0F92A60C069C06900F086F800284C
:100A300050D041680088181A01EBC0053046AF78E5
:100A400003F062FE814620686A680123816BCDE96C
:100A50000237CDE90421C169CB7E8A7ECDE900232E
:100A60000B7EB0F924102A78B0F9220002F0A0F928
:100A70002068C069417E027E91421FD9C07E11FB71
:100A800000F812FB00F7022E18D000F08FFB06468C
:100A900000F05AFB00F05DFD21682A78CB69B1F9BE
:100AA0002200DB7E12FB0302B1F9241001EB0803E4
:100AB000394402F0DFFA304600F04BFD484603F0BF
:100AC00023FE20686A78C369B0F922109B7E12FB6E
:100AD0000311418407B0BDE8F0830000A8000020A6
:100AE00030B50F4C05460B4620682946C069C069E1
:100AF00000F023F8002812D04168008824682A1AE0
:100B00000120E46900EBC200085CA47E10FB04F045
:100B1000002B04D011F8321011FB04F1196030BD24
:100B2000A800002001200880704700B5C06900F0CF
:100B300004F8002800D0012000BD06E002888A42A7
:100B400002D842888A4202D280680028F6D17047D3
:100B50002DE9F0410025154E154C18E02069C5EB34
:100B6000051700EBC7007022001D3168FFF7B7FBC7
:100B70002069002140F8371000EBC70000F10C019C
:100B80008161011D0A1DC0E90F126D1C4164A0683E
:100B90008542E3DB06F0A2FA2169C0EB001001EB0D
:100BA000C000001D3060BDE8F0810000A8000020FA
:100BB0003C01002070B510490E480860084600F05E
:100BC000BBFF0D4C143CA068C0EB0010C5002846CC
:100BD00000F06CF8094B20612A461B6800219847F9
:100BE0004FF0FF30206000F077FDBDE8704006F068
:100BF00075BA00009D7300085001002020010020FC
:100C000010B5040009D000F073FB204604F070FE1C
:100C1000044600F043FD204610BD002010BD00003A
:100C200038B5054600F064FB2846FFF7E9FF0400ED
:100C30000AD000F093F8064B00902A461B6800216A
:100C40009847684600F098F800F028FD204638BD27
:100C500020010020024A106021F00300506070471C
:100C60006069002010B5040011D000F041FB084875
:100C7000042101EBC401406B4158486804F0F0FDC9
:100C8000204606F005FCBDE8104000F007BD10BD91
:100C9000A0680020002805D0034AD16B016001B193
:100CA0004860D06370470000A06800202DE9F04143
:100CB000044606F09BFA2848E41C24F00305016C66
:100CC0002D1DA94200D90D46C46B13E054F8042C25
:100CD000AA420ED184B1216809B162684A60616894
:100CE00009B122680A60C26BA24231D12168C16396
:100CF0002EE02468002CE9D18046816BC0680F1873
:100D000057F8040C3E1A306838B1002006F09EFCFB
:100D100057F8040C3E1A3068D0B97068A84217DB47
:100D20003044441B3046241D06F076FCD8F80C10E5
:100D3000491BC8F80C10D8F814102944C8F814102E
:100D40007068401B02D0314604F08AFD44F8045C10
:100D50002046BDE8F0810000A06800200549CA696E
:100D6000521CCA61496B01EBC0010A78521C0A701F
:100D700000F01AB8A06800200A4902684B6B52F8CC
:100D8000082C03EBC2021378022B03D3CB690BB1FF
:100D90005B1ECB611178491E11700021016008466D
:100DA00070470000A06800200349042202EBC00045
:100DB000496B085808307047A068002010B5C2B2CF
:100DC000CBB2D21A00D5524293B25B43C0F3072292
:100DD000C1F30724121B00D55242000C92B2A0EBC3
:100DE000114002FB023200B2002801DA404200B298
:100DF00080B200FB002010BD10B50021084600F0B5
:100E00001DFA43F6FF725042BDE8104013460146FA
:100E1000AFF300802DE9FC411C4615460E460746FF
:100E200000F066FA042003F06FFC80461248406927
:100E3000C16C006D0F4406440D440444ADF80070CD
:100E4000ADF80450ADF80260ADF80640684604F015
:100E500091FB07E023462A463146384602F00AF95C
:100E600004F04AFB0028F5D1404603F04DFC00F0A9
:100E700015FCBDE8FC810000940000202DE9F04144
:100E80001C4616460D460746022B02DB0020BDE835
:100E9000F0811C20FFF70AFF0028F8D00DB1056192
:100EA0000AE0094A52F8241009B905E011460A6817
:100EB000002AFBD1096901618461868200210160F9
:100EC0004160C0E90217E2E7D400002070B51D467A
:100ED000FFF7D4FF040009D000F00EF8E0680068C6
:100EE00020B90348006800EB85008465204670BD8A
:100EF000A8000020FFF7CEBE70B5C0B38269022AF9
:100F000036DA2149531C0C789C4200DA0B701F4CD6
:100F100054F8221019B944F8220032E019464B68FF
:100F2000002BFBD106E0CB68C5681B682D68AB427F
:100F300003DD09680029F6D11AE0C1B1CB68C668A3
:100F40001B683668B3420CD1838A012B05D008E0B8
:100F50001946DB681B68AB4203DB0B68002BF7D13B
:100F600029B14B6833B118604A68426004E0FFE77A
:100F7000012070BD44F822004860884200D1002161
:100F80000160002070BD0000E4000020D4000020BB
:100F900010B503E00468FFF7AFFF20460028F9D141
:100FA00010BD000010B50C4B8269002153F822409F
:100FB000844205D1046843F82240026802B15160BE
:100FC00042680AB10368136002680AB1436853605B
:100FD0000160416010BD0000D40000200020704777
:100FE000022801DB00207047054951F8200004E089
:100FF000C16809680029F6D000680028F8D1704758
:10100000D40000202DE9FC4706005FD000F070F905
:1010100000F0D8F83C4C81462068B0F9228000F0FE
:10102000DFF8216807468A8CD01B888441E000BF26
:1010300047F6FF71304600F09FFC8246014630467D
:1010400000F070FC2168054691F82C0000F00300C8
:10105000012841D002283BD000204A8C101A488435
:10106000ADF800006A1E1044ADF80400888CADF89D
:101070000200A9F101010844ADF806006A46514694
:10108000304600F0F7FB2168BDF802008884514625
:10109000304600F0C5FA064430780A281ED00D28E4
:1010A0001CD0BDF80000216828444884307818B16D
:1010B000761C30780028BBD12068818C394481842B
:1010C000818D21F00301818500F0E8FABDE8FC87FD
:1010D00005EBD5704010C0E72846BEE7206890F8C1
:1010E0002C1001F0030101290BD0022909D0018C39
:1010F000418431780A29D9D1828C02EB090181849B
:10110000D4E7A0F82280F4E7A800002070B51446C8
:101110000D46064600F0ECF80548006845848484D6
:101120003046FFF76FFFBDE8704000F0B7BA00002F
:10113000A8000020034951F82000C1688A6A0821EC
:1011400010470000D400002010B500F0D1F801F0E5
:10115000C1FF02F03FF8044600F0A0FA204610BD9F
:1011600010B5044600F0C4F8054800210068C069C5
:10117000426820469047044600F090FA204610BD91
:10118000A800002070B50C46054600F0B1F80648EE
:1011900021460068C069426828469047044600F02E
:1011A0007DFA204670BD0000A800002010B500F0B8
:1011B0009FF801F097FF02F00DF8044600F06EFA78
:1011C000204610BD10B500F093F804480068C069CF
:1011D000447E00F063FA204610BD0000A800002005
:1011E00010B5002400F084F80B48006890F82C102B
:1011F00001F00C01042904D0082906D00C2907D1DC
:1012000003E0C069047E641E02E0C069007E4408F9
:1012100000F044FA204610BDA8000020024951F811
:101220002000006900687047D4000020024951F88E
:101230002000006940687047D400002070B50C465B
:10124000054600F055F8044800684584848400F0A1
:1012500025FA002070BD0000A80000202DE9F04113
:101260001D48016821F0010101601C4801268660CB
:1012700081680029FCD11A49016000681949884237
:1012800000D0FEE700F0DAFA174C2E20207000F0B4
:1012900022FA164805F074FF06F0DCFF074601F05D
:1012A00055FF10B101F05CFF38B901F05FFF054652
:1012B00001F052FF294603F021FA0021084600F010
:1012C00069F903F087FFFFF743FCA06900B180478D
:1012D000A6703846BDE8F081002000E000300240F2
:1012E000C2A507F4CDB5E8B5940000206C690020D4
:1012F00070B5184CE06820B100F0EBF961688842E5
:1013000004D000F0FBF900F0E4F96060E068401CF4
:10131000E06001281CD105F0E1FE05462068854209
:1013200016D0002813DBFFF759FE01462068C0EBFA
:101330000012206900EBC2025167C5EB0511064A95
:1013400000EBC100011D1160406FFFF721FE256019
:1013500070BD00003C010020A800002038B504004A
:101360001CD0FFF7C5FF0E480068006EA04201D1F7
:1013700000F0BBF82046FFF7F1FC0090406908B18F
:1013800000F076F900980068FFF7B4FD6846FFF7B3
:10139000F3FC2046FFF766FC00F080F938BD000042
:1013A000A800002038B505004FF0000411D0FFF769
:1013B0009FFF2846FFF7D2FC009000680069806814
:1013C000804703F07DFB04466846FFF7D5FC00F03C
:1013D00065F9204638BD38B504000ED0FFF788FF08
:1013E0002046FFF7BBFC00F1180400906846FFF7A9
:1013F000C3FC00F053F9204638BD002038BDF8B5D5
:1014000016460F46050012D0FFF7A8FC009044696D
:101410006846FFF7B1FC2846FFF7C4FF03460828DB
:1014200000DD2CB132463946284606F03FFBF8BDB8
:1014300032463946284606F0D9FCF8BD10B50028DA
:1014400021D009B30AB3B1F90040B2F900309C428F
:1014500000DA23460380B1F90240B2F902309C421F
:1014600000DA23464380B1F90440B2F904309C42CB
:1014700000DD23468380B1F90610B2F906209142BF
:1014800000DC1146C18010BD11460A68026049683F
:10149000416010BD00280BD003880B440380838873
:1014A00019448180418811444180C1881144C18020
:1014B0007047B0F90220B1F906309A4213DCB1F955
:1014C0000220B0F906309A420DDCB0F90020B1F9E3
:1014D00004309A4207DCB1F90010B0F904008142EF
:1014E00001DC012070470020704710B5FFF700FFB6
:1014F00002F0ECFF03F050F903F02EFDBDE81040C0
:1015000000F0CCB870B50B4D04462868467CFFF758
:10151000EFFE022C09D22046FFF762FD28B12868B1
:101520004474FFF7E2FF0448046000F0B7F8304667
:1015300070BD0000A80000208C01002010B50446FA
:10154000FFF7D6FE204602F0E1FFBDE8104000F0B4
:10155000A5B810B50446FFF7CBFE204603F00EF801
:10156000BDE8104000F09AB801498860704700005B
:101570009400002070B50446FFF7BAFE04480068E6
:10158000C56904B1C46100F089F8284670BD000047
:10159000A800002070B50C460546FFF7A9FE0948D3
:1015A000224605800848048008480068417C0848B5
:1015B00050F82100C1680B6A29469847BDE8704081
:1015C00000F06CB8EC000020EE000020A800002025
:1015D000D400002002480068002800D0004770476F
:1015E0005801002002498A6802B98860FFF7F2BFFB
:1015F0002C0100202DE9F041084E044605683068B2
:101600000168284688470746306841682846884769
:10161000284420603846BDE8F0810000B00000207A
:101620002DE9F0410C4606460025064F05E03868D6
:1016300041683046884706440544641EF7D2284670
:10164000BDE8F081B00000202DE9F0411E46069C67
:101650001746884605463A46A8687F1C3346D0F8A8
:1016600004C041462846E047641EF4D1BDE8F0813D
:1016700038B50546FFF73CFE2846FFF76FFB0090A4
:101680008189491E0CB284816846FFF775FB14B945
:101690002846FFF7E7FA00F001F838BD0348C168B3
:1016A000491EC16001D100F031B870473C010020F3
:1016B00010B54FF420510448FFF7CCFABDE81040B4
:1016C0000248FFF751BF0000100200204C9F0008A5
:1016D000704706F0EBBE70477CB500246846009466
:1016E00006F050FE044D0121286001A8019406F087
:1016F000A9FE68607CBD00000000002002484FF099
:10170000FF31006806F06ABE000000200148006852
:1017100006F03CBE0000002010B5082A0EDC03468F
:10172000012A18D0022A56D0042A76D010F8042BA9
:1017300003F8012B491EF9D1012010BD102A08DC45
:101740004FEA000230F8043B22F8023B491EF9D16F
:10175000F2E7002010BD10F8042BD207120E491E2C
:1017600034D010F8044B491E04F0010442EA8412FC
:101770002CD010F8044B491E04F0010442EA441234
:1017800024D010F8044B491E04F0010442EA04126C
:101790001CD010F8044B491E04F0010442EAC402B4
:1017A00014D010F8044B491E04F0010442EA8402EC
:1017B0000CD010F8044B491E04F0010442EA440224
:1017C00004D010F8044B04F00104224303F8012B69
:1017D0000029C0D1B0E710F8042B9207120E491E61
:1017E00015D010F8044B491E04F0030442EA041219
:1017F0000DD010F8044B491E04F0030442EA8402A1
:1018000005D010F8044B04F003042243491E03F8EA
:10181000012B0029DFD18FE7FFE710F8042B120717
:10182000120E491E05D010F8044B04F00F04224399
:10183000491E03F8012B0029EFD17DE70B4810B5B5
:10184000416B002910D101214163FFF731FFFFF700
:10185000B1F902F0DBFF0549054838310860BDE801
:101860001040084600F068B910BD00009400002048
:10187000657300087CB5064628480D46006868B1C7
:10188000002003F077FE06E06A462946304604F061
:1018900051F903F031FE0028F6D17CBD10680090AC
:1018A0001F4C506801902268BDF8000032F84C1FB0
:1018B0000844ADF80000BDF8020091880844ADF876
:1018C0000200BDF8040011880844ADF80400BDF81A
:1018D000060091880844ADF80600684603F04AFE09
:1018E0000EE000BF2068BDF800106A464184BDF8D4
:1018F000021081842946304604F01CF903F0FCFDF7
:101900000028EFD1206830F8221F428D891A01800B
:101910004188C28D891A41807CBD0000E80000200A
:10192000A800002073B5124A01A9009812689047D8
:1019300000240090C8B10F4900250968C9694969A8
:1019400059B10A684AB1019990477CBD6846FFF7D2
:1019500051FE0546FFF704FC04440198401E019027
:10196000F4D5284600F024F8044420467CBD00004D
:1019700028010020A800002073B50D46009800241F
:1019800090B10A490968C969496959B14A684AB1B7
:10199000294690477CBD6846FFF72CFE20B10A28F7
:1019A00002D0641CAC42F6DB20467CBDA8000020BF
:1019B00038B5002469460094FFF7E4FB00998142A2
:1019C00000DD0C1A204638BDB0F90030B1F9002016
:1019D000934200DA0280B0F90230B1F9022093425A
:1019E00000DA4280B0F90430B1F90420934200DDFE
:1019F0008280B0F90620B1F906108A4200DDC1806C
:101A0000704770B5B1F90040B2F900309C4200DD7A
:101A100023460380B1F90250B2F90240A54200DD2D
:101A20002C464480B1F90460B2F90450AE4200DAA9
:101A300035468580B1F90610B2F90620914200DBE7
:101A40001146C1809D4201DBA14201DA002070BD38
:101A5000012070BD014602480068407C00F002B8D9
:101A6000A80000202DE9F8430126894604460228F3
:101A70005DDA304F7A6802B190472E4D5FEA090077
:101A800005F1100532D0012803D0B9F1020F4ED173
:101A900018E055F8240088B92046FFF7A1FA009015
:101AA00018B3C0680D21426A6846904702003ED0D4
:101AB00049460098904755F824000026401C45F8F8
:101AC000240034E02046FFF78BFA009068B1C0682C
:101AD0000D21426A68469047040028D0386800B15A
:101AE000804749460098A047002620E055F824008A
:101AF000A846012812D12046FFF772FA009068B17B
:101B0000C0680D21426A68469047050006D03868D3
:101B100000B1804749460098A847002658F824108D
:101B200009B1012200E00022891A48F82410304649
:101B3000BDE8F883E401002002490A6B42600863B3
:101B4000704700009400002010B5830702D520F8EC
:101B5000021B521E530811D001EB0144042B09DB78
:101B600010C01B1F10C0042B40F8084B40F8044C59
:101B7000F6DA01E010C05B1E002BFBD1D20700D0CB
:101B8000018010BD10B5040002D0607910B106E0EC
:101B9000012010BD00202071204600F007F802202F
:101BA000607101206071002010BD000008B5006860
:101BB0000649884208D10648016841F48051016015
:101BC000006800F48050009008BD00000030024022
:101BD000303802402DE9F84304464FF00009CDF8B3
:101BE000009063484FF41651A56D0068B0FBF1F703
:101BF0002E6894F85C10082000FA01F131420FD0F1
:101C000021680A6852070BD50A6822F004020A60AC
:101C100094F85C108840A860606D40F00100606539
:101C200094F85C104FF0010808FA01F0304208D037
:101C300021684969090604D5A860606D40F002007A
:101C4000606594F85C1004208840304208D0216818
:101C50000968890704D5A860606D40F004006065DC
:101C600094F85C1010208840304218D02168096830
:101C7000090714D5A86020680168490304D50068E5
:101C8000000308D5A16C07E00168C90503D4016809
:101C900021F008010160216C09B12046884794F8C1
:101CA0005C1020208840304231D021680968C90684
:101CB0002DD5A86094F8350005282068016806D065
:101CC000490347D5006800031DD4616C1CE021F076
:101CD000160101602068416921F080014161206C9A
:101CE00008B9A06C20B12068016821F008010160EA
:101CF00094F85C103F208840A86084F8349084F801
:101D00003580216D1FE0E16B09B120468847606D89
:101D100000282BD0606DC00714D0052084F8350052
:101D20002068016821F0010101600098401C0090CA
:101D3000B84203D820680068C007F6D184F8349010
:101D400084F83580E16C002910D001B02046BDE850
:101D5000F04308470168C905D5D4016821F0100196
:101D6000016084F8349084F83580CCE7BDE8F883CE
:101D7000300000202DE9F041044600F093F90646BA
:101D80005CB1002584F83450022084F835002068C6
:101D9000016821F0010101600DE00120BDE8F08142
:101DA00000F080F9801B052805D9202060650320FC
:101DB00084F83500F2E720680068C007F0D1226897
:101DC000116820480140D4E901031843D4E90336DF
:101DD0003343184363691843A3691843E3691843FD
:101DE000236A18430843616A042903D1D4E90B1319
:101DF00019430843106020684069666A20F00701B3
:101E000030460E43012704280CD1A06A0643E06A3D
:101E100040B12046FEF714FB20B14020606584F8F5
:101E20003570BAE7206846612046FEF7F5FA94F867
:101E30005C203F2191408160656584F83570002009
:101E4000ACE700003F8010F02DE9F041204886B05B
:101E50000168002939D1012101601E480024016870
:101E600041F00101016000684FF4805800F001006A
:101E70000C27CDF80080CDE90470032602250396D7
:101E8000CDE901546946144800F02EF84FF68070F1
:101E9000CDE9000502AA694682E8D0000F4800F0AB
:101EA00023F84CF23370CDE9000502AA694682E8B6
:101EB000D0000B4800F018F802AA694682E8D0006A
:101EC000CDE90085074800F00FF806B0BDE8F081C5
:101ED0001C0000203838024000140240001002406C
:101EE000000C0240001802402DE9F84FDFF87CB1E9
:101EF00000224FF001084FF0030A4FF00F090BF1D9
:101F0000040E00BF0B6808FA02F42340A3426ED10E
:101F10004D68022D01D0122D0ED1D50800EB850C95
:101F2000DCF820505607F70E09FA07F6B5430E699C
:101F3000BE402E43CCF82060066855000F790AFA9F
:101F400005FC07F0030726EA0C06AF40374307609D
:101F50004E68012E05D0022E03D0112E01D0122E74
:101F60000ED18668CF6826EA0C06AF4037438760FB
:101F70004668A6430C79C4F300149440344344608B
:101F8000C6688C6826EA0C06AC403443C4604C68D2
:101F9000E40065D5364C256845F480452560246805
:101FA00022F0030504F480440094324C2E19D6F834
:101FB000084895072F0F09FA07F5AC432E4DA842A4
:101FC00001D1002524E02D4DA84201D101251FE0BB
:101FD0002B4DA84201D102251AE02A4DA84201D179
:101FE000032515E0284DA84202D1042510E037E072
:101FF000264DA84201D105250AE0254DA84201D170
:10200000062505E0234DA84201D1072500E008255B
:10201000BD402543C6F80858DBF800405D464E68D1
:102020009C43F60300D51C432C60DEF80040754647
:102030004E689C43B60300D51C432C600B4D0835FD
:102040002C684E689C43F60200D51C432C60074D5B
:102050000C352C684E689C43B60200D51C432C609E
:10206000521C102AFFF44EAFBDE8F88F003C01402F
:1020700044380240003001400000024000040240A9
:1020800000080240000C0240001002400014024010
:1020900000180240001C02400AB181617047090427
:1020A000FBE7000001488068704700002400002022
:1020B00070B5040004D094F83D00002510B106E08E
:1020C000012070BD84F83C50204600F075F82420B3
:1020D00084F83D002068016821F00101016000F0F2
:1020E00073FA33492268B0FBF1F15160314A6368F9
:1020F000934206D94FF4967359434FF47A73B1FB68
:10210000F3F12368491C1962616891420BD84900B8
:10211000B0FBF1F2C2F30B02042A01D2042019E051
:10212000B0FBF1F016E0A3689BB301EBC10202EB38
:102130000112B0FBF2F242F48042120530D04BB3F0
:1021400001EBC10202EB0111B0FBF1F040F4804061
:1021500040F400402168C861D4E9070108432168C0
:102160000860D4E90310084321688860D4E90501B8
:1021700008432168C8602068016841F001010160DE
:102180002564202084F83D00256384F83E5000201B
:1021900070BD00E006E001EB4102B0FBF2F2CCE7DB
:1021A0000120D7E701EB4101B0FBF1F0D0E70000DF
:1021B00040420F00A08601002DE9F041054600686D
:1021C0002B4986B0884250D1C02000901220019047
:1021D00001200290032003900420049069462548C2
:1021E000FFF782FE24494FF0000840460A6842F497
:1021F00000120A600968224C01F4001105911F4980
:1022000021604E05C4E901680F15C4E90387C4F8CD
:102210001480C4E90680206260622046FFF7AAFDB0
:1022200018B17A2117A004F073FBAC63A563144CBA
:10223000124860349030C4E900064020A060C4E930
:102240000387C4F81480C4F81880C4F81C80C4F84C
:1022500020802046C4F82480FFF78CFD18B18C2123
:1022600008A004F055FB6C63A56306B0BDE8F081DF
:102270000054004000040240403802401060024018
:10228000B42A00202E2E2F5372632F6932632E63DF
:1022900000000000024881680278114481607047A4
:1022A000240000200B4810B5016841F40071016062
:1022B000016841F480610160016841F4807101604E
:1022C000032000F0B1F8002000F006F800F03EF81E
:1022D000002010BD003C024010B5014688B000222D
:1022E0001C2000F081F81C2000F072F81448002433
:1022F000016841F001010160006805A900F00100DA
:102300000690684600F03AF900F05EF90D49400089
:10231000B0FBF1F10C484FF08042491E026040F2E0
:10232000E732C0E90324C0E9011400F06AFB10B1F0
:10233000012008B010BD044800F092FBF9E700004E
:102340004038024040420F00742B00201F4808B55F
:10235000016841F480410160006800F48040009011
:102360001A48001F016841F080510160006800F0C8
:1023700080500090032000F057F8002211466FF0C3
:102380000B0000F031F8002211466FF00A0000F057
:102390002BF8002211466FF0090000F025F800220A
:1023A0001146501F00F020F800221146101F00F0C7
:1023B0001BF800220F21901E00F016F800220F21BA
:1023C000BDE80840501E00F00FB80000443802403D
:1023D00000F01F02012191404009800000F1E0203F
:1023E000C0F8001170470000F0B40E4B1B680C469B
:1023F000C3F30223C3F10705042D00D90425191DD9
:10240000072901D2002300E0DB1E012606FA05F1B0
:10241000491E214099409E40761E16403143F0BC33
:1024200002F0A2BC0CED00E0064900F007020868CB
:102430004FF6FF03184040EA0220034A10430860A9
:10244000704700000CED00E00000FA052DE9F047B0
:102450000E46050065D0DFF81481D8F80000F7B209
:1024600000F00F00B04207D288F80070D8F80000E2
:1024700000F00F00B04254D128683D4C810712D5BE
:10248000400703D5206840F4E0502060287800071A
:1024900003D5206840F4604020602068A96820F0DF
:1024A000F000084320602878C0072DD030496868C4
:1024B0000839012812D0022813D0032811D0096846
:1024C000890700292DDA216821F0030101432160E9
:1024D000FFF7E8FD814641F2883A0EE0096889037A
:1024E000EFE709688901ECE7FFF7DCFDA0EB0901E4
:1024F000514502D90320BDE8F0872068696800F0E3
:102500000C00B0EB810FEFD1D8F80010404601F07D
:102510000F01B14207D90770006800F00F00B04208
:1025200001D00120E7E72878400705D52068E96851
:1025300020F4E050084320602878000706D5206882
:10254000296920F4604040EAC100206000F04CF8A6
:102550002168084AC1F30311515CC840064908606C
:102560000020FFF7B9FE0020C5E70000003C024054
:1025700008380240AC970008300000200F220260AB
:102580000C4A136803F003034360136803F0F0037D
:102590008360136803F4E053C36012684FF4E053A0
:1025A00003EAD20202610448006800F00F000860EC
:1025B0007047000008380240003C024001480068B3
:1025C0007047000030000020044805490068096891
:1025D000044AC1F38221515CC8407047300000209A
:1025E00008380240BC970008154810B5006810F084
:1025F0000C02144813D04110042A0FD0082A0ED11F
:102600000F4C241F2268236802F03F025B0207D5AB
:102610002068C0F38810A0FB010106E0084610BD49
:102620002168C1F38811A1FB00010023FDF726FEFC
:102630002168C1F30141491C4900B0FBF1F010BD14
:10264000083802400024F4002DE9F84F050076D048
:102650002878DFF8F8B2BE4CC00749D0DBF800108C
:102660005846C1F38101012908D00068C0F38100F8
:1026700002280AD1201D0068400206D52068800388
:1026800036D568680028E2D032E06868B0F5803F4F
:1026900010D0B0F5A02F206810D020F4803020603A
:1026A000206820F4802020606868A0B1FFF7FAFC61
:1026B00006460CE0206840F48030F4E740F48020C7
:1026C0002060F7E7FFF7EEFC801B642873D82068D2
:1026D0008003F7D50CE0FFF7E5FC064605E000BFF8
:1026E000FFF7E0FC801B6428F0D820688003F7D453
:1026F0002878DFF8608280074FF000093ED5DBF8CC
:102700000010584611F00C0F09D00068C0F381008A
:1027100002280BD18D48001F0068400206D42068B3
:10272000800715D5E868012809D111E0E868B8B13B
:102730000120C8F80000FFF7B5FC064605E002E1FD
:10274000FFF7B0FC801B0228C0D820688007F7D5AF
:102750002068296920F0F80040EAC10020600DE0FF
:10276000C8F80090FFF79EFC064604E0FFF79AFCCD
:10277000801B02281FD820688007F7D4287800071C
:1027800022D5724E744869696C3671B101210160BD
:10279000FFF788FC074604E0FFF784FCC01B022813
:1027A00009D830688007F7D50EE0C0F80090FFF731
:1027B00079FC074605E083E0FFF774FCC01B0228A4
:1027C0007ED830688007F7D42878400768D5DFF8CE
:1027D0007CA100270AF1380ADAF80000C0000BD407
:1027E000DAF8001041F08051CAF80010DAF8000061
:1027F000012700F080500090584E3068C00510D47A
:10280000306840F480703060FFF74CFC009005E0C9
:10281000FFF748FC0099401A022851D83068C005DB
:10282000F6D54A4EA868683601280FD005283068CA
:1028300010D020F001003060306820F004003060DB
:10284000A868B8B1FFF72EFC00900FE0306840F0A8
:102850000100F4E740F004003060F7E7FFF722FCE6
:102860000099411A41F28830814264D8306880076B
:10287000F4D50EE0FFF716FC009007E0FFF712FC1E
:102880000099411A41F28830814254D8306880075B
:10289000F4D42FB1DAF8001021F08051CAF80010FA
:1028A000A869C0B3DBF80010C1F3810102294AD046
:1028B0000228484607D0C8F86000FFF7F3FB00E0A5
:1028C00039E005463AE04746C8F86000FFF7EAFB02
:1028D000064604E0FFF7E6FB801B02282BD82068A1
:1028E0008001F7D4D5E907010843A96A1C4A4908C1
:1028F00002EB01416A6A41EA8211084395F82C1003
:1029000040EA01611148001F016001203866FFF7AD
:10291000C9FB054605E014E0FFF7C4FB401B022895
:1029200009D820688001F7D50BE000BFFFF7BAFB9C
:10293000401B022802D90320BDE8F88F20688001DF
:10294000F4D40020F8E70120F6E700000838024040
:102950000038024000004742800E474200700040AD
:102960000000FFFF70B515460E46040003D094F832
:10297000490010B107E0012070BD002084F8480034
:10298000204600F01AF804F108012068FDF7A4FDC4
:102990003146A2682068FDF7C9FDD4E90102294645
:1029A000236BFDF779FDA168206850F8212042F0E3
:1029B000010240F82120002070BDFFF745BA4FF01A
:1029C000E0210428086903D020F004000861704762
:1029D00040F00400FAE710B5401EB0F1807F01D34B
:1029E000012010BD4FF0E02460610F21601702F05C
:1029F000BBF90020A06107202061002010BD7047B6
:102A0000704710B5040003D094F8390010B107E006
:102A1000012010BD002084F83800204600F00CF89A
:102A2000022084F83900211D206802F033FA0120C9
:102A300084F83900002010BD08B5006806498842B6
:102A400008D10648016841F002010160006800F009
:102A50000200009008BD0000000400404038024021
:102A60000168CA6842F00102CA600068016841F06A
:102A70000101016000207047704770B5044600688E
:102A800001694FF00005C943890715D4C168C943DE
:102A9000890711D4E91E0161012020762068806930
:102AA0008007204602D0FFF7E7FF04E000F098F827
:102AB000204600F096F8257620680169C943490749
:102AC00017D4C168C943490713D46FF004010161E9
:102AD000022020762068806910F4407F204602D0D2
:102AE000FFF7CAFF04E000F07BF8204600F079F819
:102AF000257620680169C943090716D4C168C9430E
:102B0000090712D46FF008010161042020762068C3
:102B1000C0698007204602D0FFF7AEFF04E000F056
:102B20005FF8204600F05DF8257620680169C9430A
:102B3000C90617D4C168C943C90613D46FF0100180
:102B40000161082020762068C06910F4407F20468B
:102B500002D0FFF791FF04E000F042F8204600F0B9
:102B600040F8257620680169C943C90708D1C168C2
:102B7000C943C90704D1891E0161204600F032F81B
:102B800020680169C943090609D4C168C943090617
:102B900005D46FF0800101612046FFF730FF206807
:102BA0000169C943490609D4C168C943490605D426
:102BB0006FF040010161204600F01BF820680169B8
:102BC000C94389060BD4C168C943890607D46FF08D
:102BD000200101612046BDE87040FFF711BF70BDC4
:102BE000704770470068B0F1804F01D1FFF752BBCA
:102BF00070477047FEE700002DE9F043174C81460F
:102C00000025208866884643A088A0F5D041043975
:102C100002D1A079012808D00021084601F0C0FCAB
:102C200001F0E4FD4FF0D84013E00020A0712A2706
:102C300067814FF02B08A4F80C80014601F0B0FC2E
:102C40000120A071A4F80A80A781E9E7A0F880908C
:102C50006D1CB542FAD3BDE8F083000000020020ED
:102C60000449054A0968497C52F821100969096834
:102C700008470000A8000020D40000202DE9F04FF4
:102C80004A492A242B25898845F2105A4FF4305B93
:102C90004FF4285E4FF448764FF0F00C49F241397A
:102CA0004FF4A07345F210374FF4F07280B13F48F3
:102CB0004FF00108494580F806800380A0F802C063
:102CC00001D0B9423ED12C2606814481858157E04E
:102CD00036484FF00008494580F80680A0F800C04B
:102CE000438006D0A1F5D04CBCF1040C01D0B94210
:102CF0000CD12C2606814481A1F5D0448581043C69
:102D000001D0B94244D10380428041E0514507D10E
:102D1000A0F808B0A0F80AE04FF42C5181810EE031
:102D2000A1F5C853633B06D02221018120214181B6
:102D3000212181812CE02C21018145818481028027
:102D4000468025E0A1F5D04CBCF1040C09D05145DA
:102D50000BD1A0F808B0A0F80AE04FF42C548481FD
:102D600021E02C260681458109E0A1F5C85CBCF173
:102D7000630C12D0222404812124448120248481E4
:102D8000A1F5D044043C01D0B94201D10280438076
:102D9000BDE8F04F002001F097BA4FF02C0CA0F8DE
:102DA00008C04481858106804280E9E70002002056
:102DB0002DE9F04F05468DB07B48DDF860901A9CF8
:102DC00000681E4617464FF0000A78B11B9B199AFF
:102DD000CDF808900593CDE90324DDE91623CDE96C
:102DE0000023046833463A46284680E0DDE91602AF
:102DF00001EB060805EB070C1043A8F10108ACF144
:102E0000010C012806D0C9F10800059000200291AC
:102E10000990C6E065480268B2F90A30581A0028DD
:102E200006DD361A002E63DD1946199B00FB0344AC
:102E3000B2F90E00A8EB0000002802DD361A002EC1
:102E400056DDB2F90C00ACEB0000002800DD3F1AA3
:102E5000B2F908300020AB4235DD581B3F1A4B4613
:102E6000B9F1080F26D006DC012B0BD0022B11D0B4
:102E7000042B28D116E0102B1ED0182B1FD0202B8E
:102E800021D11CE020F0070304EBE0041D4400F016
:102E9000070018E020F0030304EBA0041D4400F039
:102EA000030010E020F0010304EB60041D4400F077
:102EB000010008E0044404E004EB400401E004EBFA
:102EC000800405440020002F12DD1B9BDDF864C048
:102ED000CDE90403CDE90069CDE902C4527C344850
:102EE0003B4650F82200C26854680A462946A0476B
:102EF0000DB0BDE8F08F1799029808440C902B494B
:102F0000401E00900A68B2F90A30834241DCB2F9EF
:102F10000E10029881423CDB4FF0000BD84603951F
:102F20000A9434E0BBF1000F05D10A984FF0080B6A
:102F300010F801AB0A900599ABEB090B3AFA01F0D6
:102F40000AFA09F101F0FF0A04D118490968097C5D
:102F5000890716D415490968C96B0A680B921B9A30
:102F60000AB152F82000086016990398009B421895
:102F7000521E029900F07EF80C490B980968C96B43
:102F800008600399169808F1010808440390B845B1
:102F9000C8DB0998401C09900C98029019980444C9
:102FA0000998B042A7DBA3E7E8000020A8000020B2
:102FB000D4000020F0B40C4612490968B1F90A3077
:102FC000A3421CDCB1F90E30A34218DBB1F9083082
:102FD000834200DD1846B1F90C30934200DA1A46FC
:102FE00082420CDB4B7C084951F8235013462246A1
:102FF000E9688E6801462846B446F0BC6047F0BCDC
:1030000070470000A8000020D40000200A4617499D
:1030100030B40968B1F90A30934225DCB1F90E30B9
:10302000934221DBB1F9083083421DDCB1F90C3049
:10303000834219DB0B7C0E4CDB0709D0497C54F82A
:103040002130D968CC690146A44630BC1846604797
:10305000CB6B497C1B6854F82140E1688D690146BF
:103060002046AC4630BC604730BC7047A80000200A
:10307000D400002038B5134C2468B4F908508542B8
:1030800000DD2846B4F90C50954200DA2A46824207
:1030900017DBB4F90A508D4200DD2946B4F90E5011
:1030A0009D4200DA2B468B420BDB0093647C064B7F
:1030B00053F82440E3681D6913460A46014620463A
:1030C000A84738BDA8000020D4000020082103F044
:1030D0003DBF000002480068806B00687047000038
:1030E000A800002002480068C06B0068704700001C
:1030F000A8000020024809210068407C03F026BF98
:10310000A8000020092103F021BF70B500252C463E
:103110002046FDF765FF00B16D1C641C022CF7DB37
:10312000284670BD02480068407C00F003B80000EB
:10313000A800002010B5FDF753FF002805D0C16896
:10314000CA6ABDE810400221104710BD014800685E
:1031500070470000F0000020012003F071BF000064
:103160000148406870470000F0000020022003F092
:1031700067BF00F001B800002DE9F041060008D05B
:10318000B76837B11248816819B13468B4F5807FE7
:1031900002DD0020BDE8F08101688C4200DD0C46B4
:1031A0000025804609E000BF57F82500FFF758FDCD
:1031B000D8F8081041F825006D1CA542F4DBD8F8BA
:1031C0000410444609B130468847A068E2E7000091
:1031D000680100200449054A0968497C52F8211019
:1031E0000969496808470000A8000020D4000020B1
:1031F00010B5084A084B00F01F01C0F34514C0F396
:10320000C420515C1B5D105C01EB032101EB00400D
:1032100010BD00009CB20008BCB200082DE9F84FB8
:1032200000200090322005F0A1F80121002001F0DB
:10323000E7FA322005F09AF8002001F03BF8FE4A48
:1032400090804FF45A4001F0C5FA01F029F89080BF
:103250004FF45B4001F0BEFA01F022F84FF6FF7424
:1032600004EA002090804FF45C4001F0B3FA01F0D2
:1032700017F891880843908045F21051B0F5004F3F
:103280007ED088421AD100BF4FF02040D0F81C31C8
:1032900023F00F03C0F81C31D0F81C3123F4706305
:1032A000C0F81C31D0F81C3143F00303C0F81C31C6
:1032B000D0F81C3143F40073C0F81C319088884268
:1032C0007ED14FF470435521184601F099FA4FF220
:1032D0000105AA21284601F093FA6E1C52213046BE
:1032E00001F08EFAAF1C0821384601F089FA4FF23E
:1032F00004080121404601F083FA0D214FF43040CB
:1033000001F07EFA0D214BF2010001F079FA0D2156
:103310004BF2020001F074FA4FF43649342148466A
:1033200001F06EFA34214BF2016001F069FA3421A8
:103330004BF2026001F064FA4FF4314A0D2150461D
:1033400001F05EFA4BF2011B0D21584601F058FACC
:103350000D214BF2021001F053FA34214FF43740A3
:1033600001F04EFA34214BF2017001F049FA342198
:103370004BF2027001F044FA00214FF4324000E0B9
:10338000FDE301F03DFA00214BF2012001F038FA93
:1033900000214BF2022001F033FA24214FF438408F
:1033A00001F02EFA24214BF6010001F029FA242124
:1033B0004BF6020001F024FA01214FF43F4000E0F7
:1033C000FDE301F01DFA0F214FF4334001F018FA2C
:1033D0000F214BF2013001F013FA0F214BF20230B2
:1033E00001F00EFA34214FF4394001F009FA34218A
:1033F0004BF6011001F004FA34214BF6021001F0F3
:10340000FFF908214FF4354001F0FAF908214BF299
:10341000015001F0F5F908214BF2025001F0F0F9EA
:1034200003214FF4424001F0EBF924214FF43A40DC
:1034300001F0E6F924214BF6012001F0E1F9242105
:103440004BF6022001F0DCF900214FF43C4001F082
:10345000D7F978214BF6014001F0D2F900214BF663
:10346000024001F0CDF900214FF43D4001F0C8F9D0
:1034700078214BF6015001F0C3F900214BF60250C0
:1034800001F0BEF900214FF43E4001F0B9F964218A
:103490004BF6016001F0B4F900214FF4514001F006
:1034A000AFF933214DF2011001F0AAF900214DF2DC
:1034B000021001F0A5F934214DF2031001F0A0F93A
:1034C00000214DF2041001F09BF93A214DF2051054
:1034D00001F096F900214DF2061001F091F94A2110
:1034E0004DF2071001F08CF900214DF2081001F0A7
:1034F00087F95C214DF2091001F082F900214DF2AB
:103500000A1001F07DF981214DF20B1001F078F9DC
:1035100000214DF20C1001F073F9A6214DF20D10AF
:1035200001F06EF900214DF20E1001F069F9E5216C
:103530004DF20F1001F064F901214DF2101001F06D
:103540005FF913214DF2111001F05AF901214DF2EA
:10355000121001F055F954214DF2131001F050F9F9
:1035600001214DF2141001F04BF982214DF215109A
:1035700001F046F901214DF2161001F041F9CA217E
:103580004DF2171001F03CF902214DF2181001F034
:1035900037F900214DF2191001F032F902214DF2F4
:1035A0001A1001F02DF901214DF21B1001F028F93C
:1035B00002214DF21C1001F023F934214DF21D10AF
:1035C00001F01EF902214DF21E1001F019F96721D8
:1035D0004DF21F1001F014F902214DF2201001F0FC
:1035E0000FF984214DF2211001F00AF902214DF268
:1035F000221001F005F9A4214DF2231001F000F989
:1036000002214DF2241001F0FBF8B7214DF22510F4
:1036100001F0F6F802214DF2261001F0F1F8CF2169
:103620004DF2271001F0ECF802214DF2281001F0C4
:10363000E7F8DE2102E00000000200204DF2291030
:1036400001F0DEF802214DF22A1001F0D9F8F22142
:103650004DF22B1001F0D4F802214DF22C1001F0A4
:10366000CFF8FE214DF22D1001F0CAF803214DF2E2
:103670002E1001F0C5F810214DF22F1001F0C0F806
:1036800003214DF2301001F0BBF833214DF231101F
:1036900001F0B6F803214DF2321001F0B1F86D21BE
:1036A0004DF2331001F0ACF800214FF4524001F01C
:1036B000A7F833214DF2012001F0A2F800214DF2CC
:1036C000022001F09DF834214DF2032001F098F81A
:1036D00000214DF2042001F093F83A214DF205202B
:1036E00001F08EF800214DF2062001F089F84A2100
:1036F0004DF2072001F084F800214DF2082001F07E
:103700007FF85C214DF2092001F07AF800214DF29A
:103710000A2001F075F881214DF20B2001F070F8BC
:1037200000214DF20C2001F06BF8A6214DF20D2086
:1037300001F066F800214DF20E2001F061F8E5215C
:103740004DF20F2001F05CF801214DF2102001F044
:1037500057F813214DF2112001F052F801214DF2DA
:10376000122001F04DF854214DF2132001F048F8D9
:1037700001214DF2142001F043F882214DF2152071
:1037800001F03EF801214DF2162001F039F8CA216E
:103790004DF2172001F034F802214DF2182001F00B
:1037A0002FF800214DF2192001F02AF802214DF2E4
:1037B0001A2001F025F801214DF21B2001F020F81C
:1037C00002214DF21C2001F01BF834214DF21D2086
:1037D00001F016F802214DF21E2001F011F86721C8
:1037E0004DF21F2001F00CF802214DF2202001F0D3
:1037F00007F884214DF2212001F002F802214DF258
:10380000222000F0FDFFA4214DF2232000F0F8FF5C
:1038100002214DF2242000F0F3FFB7214DF22520C4
:1038200000F0EEFF02214DF2262000F0E9FFCF214B
:103830004DF2272000F0E4FF02214DF2282000F095
:10384000DFFFDE214DF2292000F0DAFF02214DF2E8
:103850002A2000F0D5FFF2214DF22B2000F0D0FFFE
:1038600002214DF22C2000F0CBFFFE214DF22D2045
:1038700000F0C6FF03214DF22E2000F0C1FF102101
:103880004DF22F2000F0BCFF03214DF2302000F05C
:10389000B7FF33214DF2312000F0B2FF03214DF28A
:1038A000322000F0ADFF6D214DF2332000F0A8FF73
:1038B00000214FF4534000F0A3FF33214DF20130BB
:1038C00000F09EFF00214DF2023000F099FF3421FC
:1038D0004DF2033000F094FF00214DF2043000F06F
:1038E0008FFF3A214DF2053000F08AFF00214DF2A2
:1038F000063000F085FF4A214DF2073000F080FFCE
:1039000000214DF2083000F07BFF5C214DF20930C0
:1039100000F076FF00214DF20A3000F071FF8121A6
:103920004DF20B3000F06CFF00214DF20C3000F036
:1039300067FFA6214DF20D3000F062FF00214DF22D
:103940000E3000F05DFFE5214DF20F3000F058FF22
:1039500001214DF2103000F053FF13214DF21130D0
:1039600000F04EFF01214DF2123000F049FF5421CA
:103970004DF2133000F044FF01214DF2143000F0FD
:103980003FFF82214DF2153000F03AFF01214DF248
:10399000163000F035FFCA214DF2173000F030FF2D
:1039A00002214DF2183000F02BFF00214DF21930AA
:1039B00000F026FF02214DF21A3000F021FF012114
:1039C0004DF21B3000F01CFF02214DF21C3000F0C4
:1039D00017FF34214DF21D3000F012FF02214DF28D
:1039E0001E3000F00DFF67214DF21F3000F008FF80
:1039F00002214DF2203000F003FF84214DF22130EE
:103A000000F0FEFE02214DF2223000F0F9FEA4216A
:103A10004DF2233000F0F4FE02214DF2243000F08C
:103A2000EFFEB7214DF2253000F0EAFE02214DF203
:103A3000263000F0E5FECF214DF2273000F0E0FE09
:103A400002214DF2283000F0DBFEDE214DF229305C
:103A500000F0D6FE02214DF22A3000F0D1FEF22114
:103A60004DF22B3000F0CCFE02214DF22C3000F054
:103A7000C7FEFE214DF22D3000F0C2FE03214DF2B3
:103A80002E3000F0BDFE10214DF22F3000F0B8FEB8
:103A900003214DF2303000F0B3FE33214DF23130CE
:103AA00000F0AEFE03214DF2323000F0A9FE6D2190
:103AB0004DF2333000F0A4FE00214FF4544000F0EA
:103AC0009FFE33214DF2014000F09AFE00214DF29D
:103AD000024000F095FE34214DF2034000F090FECC
:103AE00000214DF2044000F08BFE3A214DF20540DA
:103AF00000F086FE00214DF2064000F081FE4A21D2
:103B00004DF2074000F07CFE00214DF2084000F02D
:103B100077FE5C214DF2094000F072FE00214DF26B
:103B20000A4000F06DFE81214DF20B4000F068FE6E
:103B300000214DF20C4000F063FEA6214DF20D4035
:103B400000F05EFE00214DF20E4000F059FEE5212E
:103B50004DF20F4000F054FE01214DF2104000F0F4
:103B60004FFE13214DF2114000F04AFE01214DF2AB
:103B7000124000F045FE54214DF2134000E032E3C4
:103B800000F03EFE01214DF2144000F039FE82218A
:103B90004DF2154000F034FE01214DF2164000F0C8
:103BA0002FFECA214DF2174000F02AFE02214DF2ED
:103BB000184000F025FE00214DF2194000E006E318
:103BC00000F01EFE02214DF21A4000F019FE012104
:103BD0004DF21B4000F014FE02214DF21C4000F09B
:103BE0000FFE34214DF21D4000F00AFE02214DF27D
:103BF0001E4000F005FE67214DF21F4000F000FE60
:103C000002214DF2204000F0FBFD84214DF22140C5
:103C100000F0F6FD02214DF2224000F0F1FDA4215A
:103C20004DF2234000F0ECFD02214DF2244000F063
:103C3000E7FDB7214DF2254000F0E2FD02214DF2F3
:103C4000264000F0DDFDCF214DF2274000F0D8FDE9
:103C500002214DF2284000F0D3FDDE214DF2294033
:103C600000F0CEFD02214DF22A4000F0C9FDF22104
:103C70004DF22B4000F0C4FD02214DF22C4000F02B
:103C8000BFFDFE214DF22D4000F0BAFD03214DF2A3
:103C90002E4000F0B5FD10214DF22F4000F0B0FD98
:103CA00003214DF2304000F0ABFD33214DF23140A5
:103CB00000F0A6FD03214DF2324000F0A1FD6D2180
:103CC0004DF2334000F09CFD00214FF4554000F0D0
:103CD00097FD33214DF2015000F092FD00214DF28D
:103CE000025000F08DFD34214DF2035000F088FDAC
:103CF00000214DF2045000F083FD3A214DF20550B1
:103D000000F07EFD00214DF2065000F079FD4A21C1
:103D10004DF2075000F074FD00214DF2085000F004
:103D20006FFD5C214DF2095000F06AFD00214DF25B
:103D30000A5000F065FD81214DF20B5000F060FD4E
:103D400000214DF20C5000F05BFDA6214DF20D500C
:103D500000F056FD00214DF20E5000F051FDE5211E
:103D60004DF20F5000F04CFD01214DF2105000F0CB
:103D700047FD13214DF2115000F042FD01214DF29B
:103D8000125000F03DFD54214DF2135000F038FD6B
:103D900001214DF2145000F033FD82214DF21550F7
:103DA00000F02EFD01214DF2165000F029FDCA2130
:103DB0004DF2175000F024FD02214DF2185000F092
:103DC0001FFD00214DF2195000F01AFD02214DF2A5
:103DD0001A5000F015FD01214DF21B5000F010FDAE
:103DE00002214DF21C5000F00BFD34214DF21D500C
:103DF00000F006FD02214DF21E5000F001FD67218A
:103E00004DF21F5000F0FCFC02214DF2205000F05A
:103E1000F7FC84214DF2215000F0F2FC02214DF21A
:103E2000225000F0EDFCA4214DF2235000F0E8FCFC
:103E300002214DF2245000F0E3FCB7214DF2255051
:103E400000F0DEFC02214DF2265000F0D9FCCF211B
:103E50004DF2275000F0D4FC02214DF2285000F022
:103E6000CFFCDE214DF2295000F0CAFC02214DF2B8
:103E70002A5000F0C5FCF2214DF22B5000F0C0FC9E
:103E800002214DF22C5000F0BBFCFE214DF22D50D2
:103E900000F0B6FC03214DF22E5000F0B1FC1021D1
:103EA0004DF22F5000F0ACFC03214DF2305000F0E9
:103EB000A7FC33214DF2315000F0A2FC03214DF25A
:103EC000325000F09DFC6D214DF2335000F098FC13
:103ED00000214FF4564000F093FC33214DF2016075
:103EE00000F08EFC00214DF2026000F089FC3421CC
:103EF0004DF2036000F084FC00214DF2046000F0FC
:103F00007FFC3A214DF2056000F07AFC00214DF271
:103F1000066000F075FC4A214DF2076000F070FC6D
:103F200000214DF2086000F06BFC5C214DF209604D
:103F300000F066FC00214DF20A6000F061FC812176
:103F40004DF20B6000F05CFC00214DF20C6000F0C3
:103F500057FCA6214DF20D6000F052FC00214DF2FD
:103F60000E6000F04DFCE5214DF20F6000F048FCC2
:103F700001214DF2106000F043FC13214DF211605D
:103F800000F03EFC01214DF2126000F039FC54219A
:103F90004DF2136000F034FC01214DF2146000F08A
:103FA0002FFC82214DF2156000F02AFC01214DF218
:103FB000166000F025FCCA214DF2176000F020FCCD
:103FC00002214DF2186000F01BFC00214DF2196037
:103FD00000F016FC02214DF21A6000F011FC0121E4
:103FE0004DF21B6000F00CFC02214DF21C6000F051
:103FF00007FC34214DF21D6000F002FC02214DF25D
:104000001E6000F0FDFB67214DF21F6000F0F8FB21
:1040100002214DF2206000F0F3FB84214DF221607B
:1040200000F0EEFB02214DF2226000F0E9FBA4213A
:104030004DF2236000F0E4FB02214DF2246000F019
:10404000DFFBB7214DF2256000F0DAFB02214DF2D3
:10405000266000F0D5FBCF214DF2276000F0D0FBA9
:1040600002214DF2286000F0CBFBDE214DF22960E9
:1040700000F0C6FB02214DF22A6000F0C1FBF221E4
:104080004DF22B6000F0BCFB02214DF22C6000F0E1
:10409000B7FBFE214DF22D6000F0B2FB03214DF283
:1040A0002E6000F0ADFB10214DF22F6000F0A8FB58
:1040B00003214DF2306000F0A3FB33214DF231605B
:1040C00000F09EFB03214DF2326000F099FB6D2160
:1040D0004DF2336000F094FB5521184600F090FB40
:1040E000AA21284600F08CFB5221304600F088FBC4
:1040F0000821384600F084FB0021404600F080FB98
:10410000CC21504600F07CFB0021584600F078FBA3
:104110000521484600F074FB70214FF4374000F051
:104120006FFB70214BF2017000F06AFB01214FF42C
:10413000384000F065FB03214BF6010000F060FB06
:1041400003214BF6020000F05BFB03214BF603005A
:1041500000F056FB02214FF43C4000F051FB0021DF
:104160004BF6014000F04CFB00214BF6024000F002
:1041700047FBD0214FF4494000F042FB02214CF6AE
:10418000011000F03DFB50214CF6021000F038FB0E
:1041900050214CF6031000F033FB50214CF6041074
:1041A00000F02EFB00214FF4545000F029FB552164
:1041B0004FF4685000F024FB4FF4885000F00AFBE5
:1041C000012004F0D3F84FF4245000F003FB00204A
:1041D000FEF754FD05490120C1F8BC022046BDE8A8
:1041E000F84FFEF709BD9180FFF74EB800804042BE
:1041F00010B50A4CA06860B920688000FCF756FD35
:10420000A06040B104F10C01054808600846FDF7C4
:1042100093FC002010BD012010BD000068010020AB
:10422000B17300082DE9F047FEF76FFF0746002441
:10423000DFF860802AE02046FCF7D2FE28B3D8F8E9
:10424000000090F8119044742046FEF73FFF0828C4
:1042500017DC1148114950F824000069884210D039
:104260002046FEF74FFF0646002508E0E8B2FEF7BD
:10427000B1FF0246E9B2204600F04CFA6D1CB5428F
:10428000F4DBD8F8001081F81190641CBC42D2DB3A
:10429000BDE8F087A8000020D400002020B6000868
:1042A00008B54FF0D840B0F88000ADF80000BDF878
:1042B000000008BD10B500F08DFA0A2004F052F895
:1042C000BDE81040FFF7ECBFF0B57F4C002321465E
:1042D000A579898846F6040241F66316012D01D0BE
:1042E0002DB11DE091421BD0B14202D118E0B14284
:1042F00016D1082814D2DFE800F00406080A0C0ED4
:10430000101206200CE007200AE0042008E0052037
:1043100006E0012004E0002002E0032000E002208B
:10432000A1F5134C45F2103745F21055BCF1410C84
:1043300007D0914205D0B94203D0A94201D0B14281
:104340007BD1082812D2DFE800F0110406080A0C1D
:104350000E1080230AE0402308E0C02306E020235B
:1043600004E0602302E0A02300E0E023A94202D1A0
:104370004FF4585000E03620B94205D0A94203D08E
:10438000B14201D043F00803914201D143F002034E
:10439000194600F035FAA188B1420AD09806208863
:1043A000628802D5904202D303E0904201D9228074
:1043B00060806089A94241D100F00CFA002000F031
:1043C000FDF96089401C80B200F004FA002000F082
:1043D000F5F96089801C80B200F0FCF92088401E4D
:1043E000C0F30F2000F0EAF96089C01C80B200F031
:1043F000F1F92078401EC0B200F0E0F9A08900F089
:10440000E9F9002000F0DAF9A089401C80B200F040
:10441000E1F9002000F0D2F9A089801C80B200F000
:10442000D9F96088401EC0F30F2000F0C7F9A089B9
:10443000C01C80B200F0CEF922E028E000F0CAF9FA
:10444000002000F0BBF9002000F0B8F92088401EE1
:10445000C0F30F2000F0B2F92078401EC0B200F087
:10446000ADF9A08900F0B6F9002000F0A7F900200E
:1044700000F0A4F96088401EC0F30F2000F09EF900
:10448000A078BDE8F040401EC0B200F097B90828FF
:1044900012D2DFE800F0040608110A0C0E103023D7
:1044A0000AE0102308E0202306E0382304E0282354
:1044B00002E0182300E00823BDE8F040032043F4A5
:1044C000805100F09DB900000002002010B50D4C95
:1044D0000D492068407C51F8200048B1C16811B1F5
:1044E0000968042901D00068F7E708B1FCF75AFD14
:1044F00020680021016600F108014161BDE810401B
:1045000000F02EB8A8000020D4000020014909685E
:104510004968084764010020044909680A7C520779
:1045200001D5C96B00E0896B08607047A8000020C6
:104530007CB5094C05462068417C084850F82100AC
:10454000C1680A6B6946904720686A462946083068
:10455000FDF757FA7CBD0000A8000020D400002021
:104560000448016804484A7C083150F82200C268B7
:10457000126B1047A8000020D400002001490968F0
:104580000968084764010020044909680A7C520749
:1045900001D5896B00E0C96B08607047A800002056
:1045A0002DE9F043DFF850810C4602464FEA11290D
:1045B000B8F804004146150A4B89A0F51346413E60
:1045C00017D0A0F5A641103913D04646A0F5D04724
:1045D000B1793688B61A761E043F0FD0A0F5C857B9
:1045E000633F20D0A0F5AA47103F5BD0012977D0C8
:1045F00077E0184600F0EEF8284606E0012900D1E1
:10460000B2B2184600F0E6F8100A00F0D7F8D0B2BF
:1046100000F0D4F8B8F80C0000F0DCF8484600F0E0
:10462000CDF8E0B22BE071B3184600F0D3F828467D
:1046300000F0C4F8D0B200F0C1F8B8F80000401E95
:10464000C0F30F2000F0BAF898F80000401EC0B286
:1046500000F0B4F8B8F80C0000F0BCF8484600F0E0
:10466000ADF8E0B200F0AAF8B8F80200401EC0F3BE
:104670000F2000F0A3F898F80200401EC0B2BDE879
:10468000F04300F09BB8B2B2184600F0A3F8002047
:1046900000F094F8002000F091F8100A00F08EF875
:1046A000D0B2D5E7184600F095F8284600F086F815
:1046B000B8F80A00401C80B200F08CF8D0B200F0CC
:1046C0007DF8B8F80C0000F085F8484600F076F860
:1046D000B8F80C00401C80B200F07CF8A1E7FFE7BE
:1046E000B2B21146184600F08BF8B8F80C0021461B
:1046F000BDE8F04300F084B800020020014AC2E99E
:1047000000017047F00000200149096889680847E6
:1047100064010020F8B515460E460124FCF760FC44
:10472000009058B1C0681021426A68469047030063
:1047300004D02A4631460098984700242046F8BD08
:10474000F8B515460E460124FCF74AFC009058B116
:10475000C0680B21426A68469047030004D02A468D
:1047600031460098984700242046F8BDF8B5154614
:104770000E460124FCF734FC009058B1C0680A21B1
:10478000426A68469047030004D02A4631460098A2
:10479000984700242046F8BD10B5074C2068006BF0
:1047A000FEF75EFAFFF7F0FE2068406BFEF758FA5E
:1047B000BDE81040FFF7B0BEA800002001B5BDF86D
:1047C0000000ADF80000BDF800004FF0D841A1F89E
:1047D000800008BD01B5BDF80000ADF80000BDF8CF
:1047E00000004FF0D841A1F87E0008BD03484FF00B
:1047F000D8410089A1F87E00704700000002002027
:104800004FF0D84222F87E0F5180704770B5A0B0AB
:1048100014211AA8FBF78BFD68216846FBF787FD7A
:1048200000231A4615491648FCF750FB04464FF47E
:1048300048754FF4F0762A4631460020FFF780FF96
:104840002A4631460020FFF791FF02201E900620E5
:104850001C901AA92046FBF78BFE0A4808900A48CC
:1048600009900A480B900A480F900A4B0A4A694679
:104870002046FBF79DFE20B070BD0000CC970008DD
:10488000E49700082B4B00080B4B0008154B000861
:10489000F54A000851060008E505000810B5012991
:1048A00002D04FF0FF3010BDFEF7B8FC002010BD65
:1048B0002DE9FF4F8DB01746674ADDF870901E9EB8
:1048C000209812681D4600248AB11D9B1F98CDE9CF
:1048D0000293CDE90460DDE91A03CDE90003146811
:1048E0002B463A460D98A04711B0BDE8F08F0D9ABF
:1048F00001EB050802EB070CDDE91A231A43A8F1C6
:104900000108ACF1010C012A06D0C9F108004FF0F2
:10491000000B029105909CE0504A1268B2F90A40DF
:10492000631A002B06DDED1A002DDDDD21461D9CEE
:1049300003FB0466B2F90E30A8EB0303002B02DD83
:10494000ED1A002DD0DDB2F90C30ACEB0303002BD7
:1049500000DDFF1A0D9B1C1AB2F90830A3420DDDD1
:10496000A3EB040C0CEB0003181A20F0070004441E
:10497000A7EB0C0706EBE30603F00700002FB3DDFF
:10498000DDF874C01F9BCDE902C6CDE90403CDE973
:104990000059527C32483B4650F82200C2685568A4
:1049A0000A462146A8479FE71B99029808440C90A5
:1049B0002A49401E00900A68B2F90A30834242DC5C
:1049C000B2F90E10029881423DDB4FF0000A0D98BB
:1049D0000A96D046039034E0BAF1000F05D10A9848
:1049E0004FF0080A10F8014B0A900599AAEB090A42
:1049F00034FA01F004FA09F4E4B204D11749096861
:104A0000097C890717D415490968C96B0A680B9294
:104A10001F9A0AB152F82000086003991A98009B67
:104A20000A18DDE90210521EFEF724FB0B490B9811
:104A30000968C96B086003991A9808F101080844CD
:104A40000390B845C8DB0C9802901D980BF1010B40
:104A50000644AB45A8DB47E7E8000020A80000209B
:104A6000D4000020002818D0410817D0810817D0A2
:104A7000C10817D0010917D0410917D0010A17D072
:104A8000410A17D0010B15D0C10B13D0010C11D066
:104A9000810C11D0000E11D02020704701207047EA
:104AA000022070470320704704207047052070479C
:104AB0000820704710207047122070471820704758
:104AC00000B50022FFF7CEFF012804D0811E062981
:104AD00003D808220BE0012209E0A0F1090107290F
:104AE00001D8102203E011380F2800D820221046E8
:104AF00000BD00004FF0D84204E000BFB2F88030A3
:104B000020F8023B491EF9D270474FF0D841A1F876
:104B1000800070474FF0D84204E000BF30F8023BFD
:104B2000A2F88030491EF9D270474FF0D841A1F861
:104B30007E007047084910B5064808600846FDF732
:104B400021F8002805D0BDE81040422103A001F063
:104B5000DFBE10BD00300240080000202E2E2F5373
:104B600072632F6372632E63000000000D4808B566
:104B7000016841F4001101600068002200F4001097
:104B8000009005210B20FDF72FFC0B20FDF720FCEA
:104B9000002205211120FDF727FCBDE80840112067
:104BA000FDF716BC3038024010B58CB000200A90DA
:104BB00001210AA803F046FC0C4C14220C49606049
:104BC0006846FBF78CFB0021684603F058FC084957
:104BD00020601422143105A8FBF781FB002105A8F1
:104BE00003F04DFCA0600CB010BD000010000020D0
:104BF0007C97000800B5174887B04FF0204101604E
:104C0000154941600621816000211022C160C0E980
:104C100004128161C16112020162C0E90912C1621C
:104C200001634163816341640920CDE900010820EB
:104C3000CDE90201049105910691002269460548DB
:104C4000FDF790FE002803D0662104A001F060FE6D
:104C500007B000BD102A0020040100A02E2E2F5303
:104C600072632F66736D632E6300000030B52648B3
:104C700087B0016841F080010160016801F08001A6
:104C80000591016841F020010160016801F02001F7
:104C90000591016841F010010160016801F0100107
:104CA0000591016841F002010160016801F0020113
:104CB0000591016841F008010160016801F00801F7
:104CC0000591016841F001010160016801F00101F5
:104CD0000591016841F04001016000680B4D00F052
:104CE00040004FF400440590002221462846FDF77D
:104CF000D3F90121CDE9004102910391694628468B
:104D0000FDF7F2F807B030BD303802400004024031
:104D10000E4810B50C4901600D49416000214FF467
:104D200080428160C0E9031241618161C161016219
:104D3000FDF7BEF9002805D0BDE810404F2105A0C1
:104D400001F0E6BD10BD000000540040602A0020C4
:104D5000A08601002E2E2F5372632F6932632E63BB
:104D600000000000FEE770470907090E002806DA78
:104D700000F00F0000F1E02080F8141D704700F1F2
:104D8000E02080F800147047012003F0EFFAFBE701
:104D9000FEE703F06ABB000030B5244893B000255D
:104DA000016841F080510160006800F0805011906E
:104DB0001F48016841F4804101600068022400F44A
:104DC0008040119001200090000401908001CDE905
:104DD000064008AA0420A82182E813000B90684628
:104DE000FDF732FC00B1FEE70CA90F2081E831008D
:104DF0004FF4A0500F904FF48050109005210CA854
:104E0000FDF724FB00B1FEE7FDF7D8FB4FF47A7104
:104E1000B0FBF1F0FDF7DFFD0420FDF7D0FD00222F
:104E20000F21501EFDF7E0FA13B030BD40380240AC
:104E3000007000401048016841F4700101600F48A3
:104E4000016841F0010101600C4A00210832116043
:104E500002680B4B1A400260031D0A4A1A6002687E
:104E600022F48022026005480C3001600249580695
:104E7000803908607047000088ED00E0003802408B
:104E8000FFFFF6FE103000240148FDF7F6BD0000DC
:104E9000742B0020F0B50268234B244D244E254F7F
:104EA000254C4FF0804C984209D0604507D0A8426D
:104EB00005D0B04203D0B84201D0A04204D122F0C4
:104EC000700E4A6842EA0E0298421BD0604519D023
:104ED000A84217D0B04215D0B84213D0A04211D08A
:104EE000164DA8420ED0164DA8420BD0154DA84223
:104EF00008D0154DA84205D0144DA84202D0144D3B
:104F0000A84203D122F44075CA682A4302608A6825
:104F1000C2620A688262984201D0A04201D1096946
:104F2000016301214161F0BD000001400004004027
:104F300000080040000C0040000401400040014017
:104F4000004401400048014000180040001C00409F
:104F500000200040FEE7000002490120096881F8B6
:104F600054007047A80000202DE9F0418AB00446A3
:104F7000FCF7BEF9BCB32046FBF7F0FE0190D0E988
:104F80000012CDE90412876A056A01A8FBF7F4FE56
:104F9000204600F0D1FA060025D0204600F00DF999
:104FA0008046B80704D52A46414604A800F015FCFF
:104FB0002046FBF7D3FE01904046FBF7CFFE06905C
:104FC0003046FBF7CBFE039005620698019AC16953
:104FD0001162C46101A8FBF7CFFE06A8FBF7CCFE67
:104FE00003A8FBF7C9FEFCF759FB0AB0BDE8F08146
:104FF0002DE9FC5F9846DDE90C5491460E460746C4
:10500000DDF83CB0FCF774F9DFF828A1DAF81C00F1
:1050100004434DB9BAF8020048B347480AF14801C1
:105020000068407C51F82050681C0ED0FDB1284625
:10503000FBF794FE0190B0F90010B0F902200F4484
:105040001644B9F1000F02D006E000250FE0B0F9D8
:105050000430591A01F10109B8F1000F04D1B0F977
:105060000600801A00F1010801A8FBF785FE0BF18C
:105070002C00FBF7D5FD5FEA000B56D0BAF8020012
:10508000401CAAF802005846FBF768FE0090078013
:1050900007EB09014680491E818006EB0801491E85
:1050A000C1800E990161254A816A224011438162C3
:1050B0006846FBF761FEDAF814005E4650B1FBF774
:1050C00073FE07463046FBF76FFE0146786948617C
:1050D0007E6101E0CAF814B02946584600F0C2FAD1
:1050E000A00602D5584600F051F9E00704D0DAF8DE
:1050F0002810491CCAF82810600602D55846FFF748
:1051000033FFA0070DD55846FBF728FE0090816AB3
:1051100041F0020181626846FBF72EFE584600F01E
:1051200003F90121584600F093FBFCF7B7FA584603
:10513000BDE8FC9F7C010020A80000209F3F3F00AD
:1051400010B50446C168D4E90020172A0DD004DC4C
:105150000E2A0CD0142A07D104E0222A0CD0282AC7
:1051600002D10CE000F0A3F90020E06010BD214660
:10517000BDE8104000F02CB96FF07040F5E7BDE8D5
:10518000104000F0D1B80000034804490068407C9A
:1051900051F8200070470000A8000020C401002042
:1051A00010B5040007D0FCF7A3F82046FBF7FCFD80
:1051B000C469FCF773FA204610BD10B5040007D08F
:1051C000FCF796F82046FBF7EFFD8469FCF766FADA
:1051D000204610BD2DE9FF5F2C4D6878002853D183
:1051E00000272B486F61AF630068DFF8A8903C464A
:1051F0004764AF806F804FF0020A4FF0FF3B43F6E9
:10520000FF7805F148062046FBF7EAFE98B1CDE9A4
:105210000297CDE900BA0021424643460846FFF70F
:10522000E7FE1A4A46F8240050326FF0704142F807
:10523000241000F079F8641C022CE4DB164FDFF830
:105240005C80DFF85C90002407EBC40000F0F8F805
:1052500008EBC40000F0F4F809EBC40000F0F0F82B
:10526000641C022CF0DB306800F090F8FFF774FE4D
:1052700001200649687040310A48086004B00846B9
:10528000BDE8F05FFCF758BCBDE8FF9F7C01002043
:10529000A800002005820008646A0020746A0020CB
:1052A000846A0020C973000870B586B00D460600F8
:1052B00031D0FCF71DF83046FBF750FD0090846AB2
:1052C000A10723D5D0E90010CDE90110E00302D5F4
:1052D000304600F01DFA5DB12868039068680490BC
:1052E00003A9009800F0B4F803A901A8FCF76CFB2F
:1052F000314601A800F0B4F840B140F60100044086
:10530000012C0AD001A9304600F0FEF96846FBF7EF
:1053100033FDFCF7C3F906B070BD0098026A8169DD
:1053200001A800F05AFAF1E70021FFF7BDBFFEB572
:1053300015460E4604001CD0FBF710FD02460090F7
:1053400090F82800800711D5314601A8FCF759FBD9
:1053500060B16846FBF710FD2A4601A9204601F01E
:1053600087FF2046FFF71CFF04460CE06846FBF76A
:1053700003FDFEBD2A4601A92046FFF7D8FF2046BF
:10538000FBF712FD046A002CF4D1FEBD70B5044693
:10539000FBF7AEFF0C4D2868866C0CB90B494C69C5
:1053A0008464204600F02CFAFFF7DAF82046FBF779
:1053B000FBFC2968B0F90020CA64B0F90200086556
:1053C000FCF76CF9304670BDA80000207C0100207D
:1053D00070B50C0005460DD0FBF78AFF2846FFF795
:1053E000ECFE18B12146A56000F014FABDE870404B
:1053F000FCF754B970BD00000EB50E48006890F877
:10540000541009B10C4811E0806CFBF7A7FC009028
:10541000D0E90010CDE901106846FBF7ADFC074864
:10542000C16A11B101A800F01BF801A802F06EF9E1
:105430000EBD0000A80000203C6A00207C01002076
:1054400002490A6802600860704700009401002069
:105450000B46B0F90220B0F900101846FCF71AB854
:1054600038B50C4605462046FBF778FC014600900F
:1054700090F82800800703D46846FBF77DFC12E013
:105480002846FCF7A1FA0098806920B104466846D6
:10549000FBF772FCE7E76846FBF76EFC204600F07E
:1054A00039FB002801DA002038BD012038BD38B5AD
:1054B0000C4600280AD0002C08D0FBF74FFC2146F0
:1054C000009000F004F86846FBF756FC38BD002257
:1054D0004A800A8082880388D21A8A80C2884088DB
:1054E000101AC880704710B5FFF767FE002802D079
:1054F000FBF75AFCC06910BD0D4810B5006890F864
:105500005400002806D00B4C6069012803DD401EC2
:105510006061002010BD2069401C206101F0D4FAB8
:1055200018B1FFF769FF012010BD6069EFE70000C7
:10553000A8000020346A002070B50546FFF7D3FFAD
:1055400008E0AC4201D1002406E0FBF72DFC006A24
:10555000A84201D00400F4D1204670BD10B5044625
:10556000FBF722FC80690028F9D12046BDE81040F5
:1055700000F0D0BAF0B5384E074687B0306890F8E2
:10558000541041B1354C6169491C6161012905DD47
:10559000012007B0F0BDFFF72FFFF9E7806CFBF7A4
:1055A000DDFB2F4D4FF0FF3100902161297821B1B3
:1055B00081680291C068039007E090F8281089077D
:1055C0003CD5D0E90010CDE902101FB1394602A840
:1055D000FCF7FAF93068406C78B3009804903068B2
:1055E000406C0168059140680690E86A30B104A8F3
:1055F000FBF7C2FBE86AFBF7B1FB049005A904982E
:10560000FFF726FF05A902A8FCF7DEF90DF110004F
:10561000FBF7B2FBE96A19B102A8FFF721FFB0B1AD
:105620003068816C02A8FFF71BFF80B1DDE9020141
:10563000C4E90001FFF760FFABE706E06069401EC8
:1056400060616846FBF798FB04E06846E0E7606944
:10565000401E606100209CE7A8000020346A002002
:105660007C010020FEB50D00044647D0FBF776FB19
:1056700000900021856101622846FBF76FFB0099CD
:105680000290C56991F8281001F008062DB128464E
:10569000FBF764FB019036B115E0C4616846FBF787
:1056A0006BFB02A828E090F8280000070BD50098B3
:1056B00005620298C4616846FBF75EFB02A8FBF72F
:1056C0005BFB01A818E002A8FBF756FB01A8FBF75B
:1056D00053FB2846FBF768FB11E004620BE0284609
:1056E000FBF762FB5EB990F82810090707D501980F
:1056F0000462009805626846FBF73EFBFEBD019020
:10570000056A002DEBD1E8E7202201F0B1BD0000D1
:1057100038B5040022D0FBF721FB009090F8281048
:10572000890718D5406A40B10D49096BA14204D0E0
:10573000FBF714FE0099002048622046FFF730FD79
:10574000044606E02046FFF7E3FF2046FBF72CFB6C
:10575000046A002CF6D16846FBF70EFB38BD00004A
:105760007C0100202DE9FF419846164607460D00B2
:1057700031D00846FBF7F2FA0090846A0246A0078F
:1057800026D5394601A8FCF73CF908B340F60100DC
:105790000440012C07D0424601A9284601F068FDCB
:1057A0000098C46912E000984346026A816901A822
:1057B000FFF7D8FFF4E7B4420AD0424601A92046D9
:1057C000FFF7B5FD2046FBF7EFFA046A002CF2D193
:1057D0006846FBF7D1FABDE8FF812023FFF7C2BF7F
:1057E000B0F90010B0F90420914205DCB0F90210C4
:1057F000B0F90600814201DD0020704701207047AA
:1058000010B5FFF7ABFE002803DBBDE81040FBF747
:1058100079BE10BD70B50D4C06460D4620681428A3
:105820000DDA3046FBF7C0FA01696E6041B12068BD
:10583000401C2060284688472068401E206070BDBC
:105840002846BDE87040FFF77BBC0000FC0100204B
:105850001FB5CDE900106946FFF7DCFF1FBD000052
:105860002DE9F041214D0C460646E968A86B084435
:10587000A119401E814206D80846096819B9416835
:105880000E4401F0C9FEA86BA0420AD254F8040CE1
:10589000271A386828B978680644384601F0BCFEF3
:1058A0003C46304601F0DCFB10281CD205EBC0075B
:1058B0003246002120467B6C02F0F1F857F8440F85
:1058C000083400B144602060002060603C602868BB
:1058D0003044286095F8291029B9E968081AA968A0
:1058E000814200D2A8603046BDE8F081A068002067
:1058F0002DE9F041054601F079FC2A48046CAC42E0
:1059000002D8ED1C25F00304804600680C34A04248
:1059100002D20020BDE8F08101F09AFD071EF9D007
:10592000204601F09DFB414630E000BF01EBC00284
:10593000526C52B3956845B36B68A34206D2AA680D
:105940001AB395680DB36B68A342F8D3D8F840003A
:10595000191B0C301E46814200D23446284601F005
:105960005BFE0421D8F8340001EBC7010023455049
:1059700022463946284602F092F8A64203DD29194C
:10598000301BFFF76DFF3846C4E7401C1028CDD30D
:10599000204601F05BFE0028C2D0384601F078FDB9
:1059A000B7E70000A068002001207047F0B50B4D5C
:1059B000DFF82CC010C855FA84F6C4F30727C4F3E7
:1059C000074436781CF807702C5D06EB471606EB8B
:1059D000C4240C801944521EECD1F0BDFCB2000866
:1059E000FCB300082DE9F0478146FDF783FB4FF03B
:1059F000000807466FF07F444546FDF793FB06001D
:105A000018D000BF56F82510494502D12846BDE8F8
:105A1000F0876D1CBD42F5DB5FF00005484656F887
:105A20002510FBF7CBF9A04201D20446A8466D1C15
:105A3000BD42F3DB4046EAE710B5084A52FA80F16E
:105A4000074BC0F30724C0F3074009781B5D105CC7
:105A500001EB431101EBC02010BD0000FCB20008B7
:105A6000FCB300082DE9F05F9A46DDE90A8791460C
:105A70000C4605468B46164635F8020B41468847CC
:105A8000B84701C4761EF7D15046BAF1200F06D2AE
:105A9000024649465846BDE8F05FFBF73DBEBDE80B
:105AA000F09F2DE9F05F9A46DDE90A8791460C46A2
:105AB00005468B46164615F8010B41468847B84700
:105AC00001C4761EF7D15046BAF1200F06D2024625
:105AD00049465846BDE8F05FFBF71EBEBDE8F09FA3
