:020000040800F2
:10000000504E0020590200085F3000089F1600087B
:100010005D30000881030008CD32000800000000B8
:100020000000000000000000000000009D0100082A
:100030009506000800000000F1010008CD3000081E
:1000400073020008730200087302000873020008BC
:1000500073020008730200087302000873020008AC
:10006000730200087302000873020008730200089C
:10007000730200087302000873020008730200088C
:10008000730200087302000873020008730200087C
:10009000730200087302000873020008730200086C
:1000A000730200087302000873020008730200085C
:1000B000C1310008730200087302000873020008CF
:1000C000730200087302000873020008730200083C
:1000D000730200087302000873020008730200082C
:1000E000730200087302000873020008730200081C
:1000F000730200087302000873020008730200080C
:1001000073020008730200087302000873020008FB
:1001100073020008730200087302000873020008EB
:1001200073020008730200087302000873020008DB
:1001300073020008730200087302000873020008CB
:1001400073020008730200087302000873020008BB
:1001500073020008730200087302000873020008AB
:10016000730200087302000873020008730200089B
:100170007302000873020008730200080000000008
:100180007302000873020008DFF80CD000F0E6F8F4
:10019000004800472B350008504E00202B4B1968B3
:1001A0000868B0E8F04F80F30988BFF36F8F4FF015
:1001B000000080F3118870470000000006480068C6
:1001C000006880F3088862B661B6BFF34F8FBFF353
:1001D0006F8F00DF00BF00BF08ED00E0DFF80C000C
:1001E000016841F470010160704700BF88ED00E0D4
:1001F000EFF30980BFF36F8F144B1A681EF0100FD6
:1002000008BF20ED108A20E9F04F106008B44FF0CD
:10021000500080F31188BFF34F8FBFF36F8F03F04F
:10022000AFFD4FF0000080F3118808BC1968086822
:10023000B0E8F04F1EF0100F08BFB0EC108A80F34A
:100240000988BFF36F8F704700BF00BF8400002094
:10025000EFF30580704700000648804706480047D6
:10026000FEE7FEE7FEE7FEE7FEE7FEE7FEE7FEE766
:10027000FEE7FEE76D310008890100082DE9F05F17
:100280000546002092469B46884606468146402405
:100290001BE0284641464746224600F04FF85346A9
:1002A0005A46C01A914110D311461846224600F012
:1002B00036F82D1A67EB01084F462246012000212F
:1002C00000F02DF817EB00094E41201EA4F10104A7
:1002D000DFDC484631462A464346BDE8F09F40EA07
:1002E00001039B0703D009E008C9121F08C0042AB4
:1002F000FAD203E011F8013B00F8013B521EF9D29B
:10030000704710B5002200E0521C835C8C5CA34255
:1003100001D1002BF8D1D8B2E1B2401A10BD202A89
:1003200004DB203A00FA02F1002070479140C2F14C
:10033000200320FA03F3194390407047202A04DB7E
:10034000203A21FA02F00021704721FA02F3D0404E
:10035000C2F120029140084319467047064C074DF0
:1003600006E0E06840F0010394E807009847103485
:10037000AC42F6D3FFF70CFF785D0008985D0008EB
:10038000FEE7000070B503F0F7FB114C0025C4F840
:1003900080521048016821F440010160016841F475
:1003A00080010160032004F5207403F0D1F80A48AD
:1003B000C0F8AC52032003F0CBF8012020600320EA
:1003C00003F0C6F82560BDE8704003F0F5BB0000FF
:1003D000008040420014024000804242F0B51948BB
:1003E00087B0016841F020010160016801F020013F
:1003F0000591016841F0020101600068124E00F0B1
:100400000200012205901146304600F09FFC0122B7
:100410000E4FD5022946384600F098FC012400947E
:100420000194029469463046039400F0B7FBCDE98D
:100430000054029469463846039400F0AFFB07B0BD
:10044000F0BD0000303802400004024000140240B9
:1004500070B503F091FB114C0025C4F88052104890
:10046000016821F440010160016841F480010160EC
:10047000032004F5207403F06BF80A480126C0F845
:10048000AC62032003F064F82660032003F060F8F8
:100490002560BDE8704003F08FBB00000080404243
:1004A00000140240008042422DE9F04782460024B9
:1004B00003F062FB1848016821F440010160016803
:1004C0000160292003F044F80025144EDFF8509015
:1004D0002F464FF0010800BFC6F88072032003F0DA
:1004E00037F8C6F880826006040ED9F82C0208B1ED
:1004F000641CE4B26D1CEDB2082DEDD3BAF1000F0F
:1005000007D0FFF73FFF00BF03F056FB2046BDE8D2
:10051000F087FFF79DFFF7E700140240008040429C
:10052000008042422DE9F047064603F025FB1648BD
:10053000016821F440010160016841F4800101601B
:10054000124D0027C5F88072032003F001F8DFF890
:10055000408000244FF00109F109C8F8AC12700680
:10056000060EC5F88092032002F0F2FFC5F88072F3
:10057000032002F0EDFF641CE4B2082CECD3BDE8CC
:10058000F04703F019BB0000001402400080404215
:100590000080424270B503F0EFFA1048016821F480
:1005A00040010160016841F4800101600C4C0120B0
:1005B000C4F8AC020B4DC5F88002292004F52B7459
:1005C00005F5207502F0C4FF00262660032002F026
:1005D000BFFF2E60BDE8704003F0EEBA0014024089
:1005E000008042420080404270B503F0C5FA0F48D7
:1005F000016821F440010160016841F4800101605B
:100600000B480125C0F88052292002F0A1FF094CB7
:100610000020C4F8AC02032004F52B7402F098FF0C
:100620002560BDE8704003F0C7BA00000014024026
:10063000008040420080424270B503F09DFA1248AB
:100640000024016821F440010160016801600F4E3F
:100650000120C6F8AC020E4DC5F8800207E0641C0C
:10066000E4B2FA2C03D9FFF7BFFF012070BD0320CD
:1006700002F06EFFD6F82C020028F0D1C5F88002F7
:1006800003F09AFA002070BD00140240008042423C
:10069000008040427047000070B5B3F5804F05D030
:1006A0006FF0704140F82210002070BD50F82240D9
:1006B000084B8E891C40D1E9003543EA05138D684B
:1006C00089692D0245EA06452B430B43234340F835
:1006D0002230E9E70000F0CFF0B50C6850F8243084
:1006E000114A1340D1E90125D1E903672A433E436A
:1006F00032434E6932438E693243CE6932430E6AC9
:1007000032434E6A32438E6A3243CE6A3243CE6BF4
:10071000096B32430A431A43082D01D142F04002CB
:1007200040F824200020F0BD8000F0FF30B500EB41
:10073000820250688D8900F04043D1E9000440EA0C
:1007400004108C68240244EA054420430C8A074DB7
:1007500005EB045420430C7D6D0105EB04648969AD
:100760002043084318435060002030BD0000F0FFD4
:100770002DE9F0433E4889B00025016841F00401AD
:100780000160016801F004010791016841F0020174
:1007900001600068012200F00200DFF8D8805703F2
:1007A00007903946404600F0D1FA0226CDE90065AF
:1007B000DFF8C49069464846029500F0EFF901243D
:1007C000CDE90074029469464046039400F0E6F9CE
:1007D000FFF704FE00223946404600F0B7FA0A202F
:1007E00002F0BAFE01223946404600F0AFFA0A2074
:1007F00002F0B2FECDE900640294694648460394D3
:1008000000F0CCF9642002F0A7FE042205A948F20A
:10081000401000F037F88DF8185018A105A8FFF720
:1008200070FD18B1012009B0BDE8F08348F2400422
:100830008DF81460012205A9204600F035F9012247
:1008400005A9E01D00F01EF89DF81400602802D2F2
:10085000012000F001F90A2002F07EFE8DF814500C
:10086000012205A9204600F01FF90020DBE7000067
:100870003038024000080240000402403931343769
:10088000000000002DE9F04115460E460446FFF732
:1008900081FE2820FFF746FEFFF7CEFE200AFFF775
:1008A00041FEFFF7C9FEE0B2FFF73CFEFFF7C4FED2
:1008B000FFF770FE2920FFF735FEFFF7BDFE00248D
:1008C0006F1E09E0BC4201D0012000E00020FFF7CC
:1008D000EBFD3055641CE4B2AC42F3D3BDE8F0410B
:1008E000FFF782BE2DE9F147574E00244FF00A0A68
:1008F000307885B0401CC0B2B0FBFAF20AFB12019E
:10090000524DA046307009B10A2875D248F24E19EE
:10091000012205A94846FFF7B5FF9DF814004FF0E6
:10092000000701060AD500F00F00062806D28DF850
:10093000007001226946484600F0B6F89DF81400A0
:10094000010759D000F00F01062955D2FF20884039
:100950008DF80000C04395F81C9040F0C000287747
:1009600028892882688A68834FF00108297F08FA5D
:1009700004F0014225D03648042202A930F81400C0
:10098000FFF780FF95F82C009DF80910C0079DF82F
:10099000080000EB012105EB44000AD041829DF8DC
:1009A0000A109DF80B2001EB0221C1F5487101816D
:1009B00007E001819DF80A109DF80B2001EB022150
:1009C0004182641CE4B2052CD0D322492A894FF01D
:1009D00001080B8828469A4203D8428A49888A42ED
:1009E00009D99DF8141001F00F0101290BD9418993
:1009F0000181818A698237709DF8140000F08F00B0
:100A000080280AD016E0018A0181418B4182802131
:100A10008DF8141085F81C90EEE7287F010602D5AA
:100A200020F0800005E04FF6FF712981698200F017
:100A3000E00028773078F02801D986F800A006B0C9
:100A40004046BDE8F0870000040000200C000020B4
:100A5000085D0008C000002008B500218DF80010D6
:100A60008DF801000F4800BF435C9DF80020491C31
:100A70001A44C9B28DF80020B829F5D3D0B2C043CA
:100A8000401C8DF80000B822064948F2470000F0EB
:100A90000BF80222694648F2FF0000F005F800203A
:100AA00008BD0000505C00082DE9F04116460F46D5
:100AB00004460025FFF76EFD2820FFF733FDFFF702
:100AC000BBFD200AFFF72EFDFFF7B6FDE0B2FFF7F2
:100AD00029FDFFF7B1FD002408E0385DFFF722FD96
:100AE000FFF7AAFD050003D1641CE4B2B442F4D3BD
:100AF000FFF77AFD2846BDE8F08100002DE9F041BE
:100B0000204886B00168002939D1012101601E48C2
:100B10000024016841F00101016000684FF4805831
:100B200000F001000C27CDF80080CDE90470032609
:100B300002250396CDE901546946144800F02EF8C9
:100B40004FF68070CDE9000502AA694682E8D00020
:100B50000F4800F023F84CF23370CDE9000502AAEB
:100B6000694682E8D0000B4800F018F802AA6946EE
:100B700082E8D000CDE90085074800F00FF806B004
:100B8000BDE8F081480000203838024000140240DF
:100B900000100240000C0240001802402DE9F84FFE
:100BA000DFF87CB100224FF001084FF0030A4FF04C
:100BB0000F090BF1040E00BF0B6808FA02F4234082
:100BC000A3426ED14D68022D01D0122D0ED1D50851
:100BD00000EB850CDCF820505607F70E09FA07F6F3
:100BE000B5430E69BE402E43CCF820600668550020
:100BF0000F790AFA05FC07F0030726EA0C06AF4056
:100C0000374307604E68012E05D0022E03D0112E07
:100C100001D0122E0ED18668CF6826EA0C06AF40AE
:100C2000374387604668A6430C79C4F300149440A8
:100C300034434460C6688C6826EA0C06AC403443F2
:100C4000C4604C68E40065D5364C256845F48045A1
:100C50002560246822F0030504F480440094324C9B
:100C60002E19D6F8084895072F0F09FA07F5AC4357
:100C70002E4DA84201D1002524E02D4DA84201D1DE
:100C800001251FE02B4DA84201D102251AE02A4D73
:100C9000A84201D1032515E0284DA84202D1042520
:100CA00010E037E0264DA84201D105250AE0254D88
:100CB000A84201D1062505E0234DA84201D1072510
:100CC00000E00825BD402543C6F80858DBF8004081
:100CD0005D464E689C43F60300D51C432C60DEF84D
:100CE000004075464E689C43B60300D51C432C60FB
:100CF0000B4D08352C684E689C43F60200D51C430A
:100D00002C60074D0C352C684E689C43B60200D50C
:100D10001C432C60521C102AFFF44EAFBDE8F88F24
:100D2000003C0140443802400030014000000240D5
:100D30000004024000080240000C02400010024083
:100D40000014024000180240001C02400AB18161F8
:100D500070470904FBE70000014880687047000005
:100D60005000002002488168027811448160704779
:100D7000500000200B4810B5016841F4007101607B
:100D8000016841F480610160016841F48071016093
:100D9000032000F0B1F8002000F006F800F03EF863
:100DA000002010BD003C024010B5014688B0002272
:100DB0001C2000F081F81C2000F072F81448002478
:100DC000016841F001010160006805A900F001001F
:100DD0000690684600F03AF900F05EF90D494000CF
:100DE000B0FBF1F10C484FF08042491E026040F226
:100DF000E732C0E90324C0E9011400F06AFB10B136
:100E0000012008B010BD044800F07FFBF9E70000A6
:100E10004038024040420F00200100201F4808B522
:100E2000016841F480410160006800F48040009056
:100E30001A48001F016841F080510160006800F00D
:100E400080500090032000F057F8002211466FF008
:100E50000B0000F031F8002211466FF00A0000F09C
:100E60002BF8002211466FF0090000F025F800224F
:100E70001146501F00F020F800221146101F00F00C
:100E80001BF800220F21901E00F016F800220F21FF
:100E9000BDE80840501E00F00FB800004438024082
:100EA00000F01F02012191404009800000F1E02084
:100EB000C0F8001170470000F0B40E4B1B680C46E0
:100EC000C3F30223C3F10705042D00D90425191D1E
:100ED000072901D2002300E0DB1E012606FA05F1F6
:100EE000491E214099409E40761E16403143F0BC79
:100EF00002F0B6B80CED00E0064900F00702086801
:100F00004FF6FF03184040EA0220034A10430860EE
:100F1000704700000CED00E00000FA052DE9F047F5
:100F20000E46050065D0DFF81481D8F80000F7B24E
:100F300000F00F00B04207D288F80070D8F8000027
:100F400000F00F00B04254D128683D4C810712D503
:100F5000400703D5206840F4E0502060287800075F
:100F600003D5206840F4604020602068A96820F024
:100F7000F000084320602878C0072DD03049686809
:100F80000839012812D0022813D0032811D009688B
:100F9000890700292DDA216821F00301014321602E
:100FA000FFF7DAFE814641F2883A0EE009688903CC
:100FB000EFE709688901ECE7FFF7CEFEA0EB090136
:100FC000514502D90320BDE8F0872068696800F028
:100FD0000C00B0EB810FEFD1D8F80010404601F0C3
:100FE0000F01B14207D90770006800F00F00B0424E
:100FF00001D00120E7E72878400705D52068E96897
:1010000020F4E050084320602878000706D52068C7
:10101000296920F4604040EAC100206000F04CF8EB
:101020002168084AC1F30311515CC84006490860B1
:101030000020FFF7B9FE0020C5E70000003C024099
:1010400008380240485D00085C0000200F22026062
:101050000C4A136803F003034360136803F0F003C2
:101060008360136803F4E053C36012684FF4E053E5
:1010700003EAD20202610448006800F00F00086031
:101080007047000008380240003C024001480068F8
:10109000704700005C0000200448054900680968AA
:1010A000044AC1F38221515CC84070475C000020B3
:1010B00008380240585D0008154810B5006810F067
:1010C0000C02144813D04110042A0FD0082A0ED164
:1010D0000F4C241F2268236802F03F025B0207D5F1
:1010E0002068C0F38810A0FB010106E0084610BD8F
:1010F0002168C1F38811A1FB00010023FFF7BEF8AE
:101100002168C1F30141491C4900B0FBF1F010BD59
:10111000083802400024F4002DE9F84F050076D08D
:101120002878DFF8F8B2BE4CC00749D0DBF80010D1
:101130005846C1F38101012908D00068C0F381003D
:1011400002280AD1201D0068400206D520688003CD
:1011500036D568680028E2D032E06868B0F5803F94
:1011600010D0B0F5A02F206810D020F4803020607F
:10117000206820F4802020606868A0B1FFF7ECFDB3
:1011800006460CE0206840F48030F4E740F480200C
:101190002060F7E7FFF7E0FD801B642873D8206824
:1011A0008003F7D50CE0FFF7D7FD064605E000BF4A
:1011B000FFF7D2FD801B6428F0D820688003F7D4A5
:1011C0002878DFF8608280074FF000093ED5DBF811
:1011D0000010584611F00C0F09D00068C0F38100D0
:1011E00002280BD18D48001F0068400206D42068F9
:1011F000800715D5E868012809D111E0E868B8B181
:101200000120C8F80000FFF7A7FD064605E002E14F
:10121000FFF7A2FD801B0228C0D820688007F7D501
:101220002068296920F0F80040EAC10020600DE044
:10123000C8F80090FFF790FD064604E0FFF78CFD2C
:10124000801B02281FD820688007F7D42878000761
:1012500022D5724E744869696C3671B10121016002
:10126000FFF77AFD074604E0FFF776FDC01B022872
:1012700009D830688007F7D50EE0C0F80090FFF776
:101280006BFD074605E083E0FFF766FDC01B022803
:101290007ED830688007F7D42878400768D5DFF813
:1012A0007CA100270AF1380ADAF80000C0000BD44C
:1012B000DAF8001041F08051CAF80010DAF80000A6
:1012C000012700F080500090584E3068C00510D4BF
:1012D000306840F480703060FFF73EFD009005E01C
:1012E000FFF73AFD0099401A022851D83068C0052E
:1012F000F6D54A4EA868683601280FD00528306810
:1013000010D020F001003060306820F00400306020
:10131000A868B8B1FFF720FD00900FE0306840F0FA
:101320000100F4E740F004003060F7E7FFF714FD38
:101330000099411A41F28830814264D830688007B0
:10134000F4D50EE0FFF708FD009007E0FFF704FD7D
:101350000099411A41F28830814254D830688007A0
:10136000F4D42FB1DAF8001021F08051CAF800103F
:10137000A869C0B3DBF80010C1F3810102294AD08B
:101380000228484607D0C8F86000FFF7E5FC00E0F7
:1013900039E005463AE04746C8F86000FFF7DCFC54
:1013A000064604E0FFF7D8FC801B02282BD82068F3
:1013B0008001F7D4D5E907010843A96A1C4A490806
:1013C00002EB01416A6A41EA8211084395F82C1048
:1013D00040EA01611148001F016001203866FFF7F3
:1013E000BBFC054605E014E0FFF7B6FC401B0228F5
:1013F00009D820688001F7D50BE000BFFFF7ACFCEF
:10140000401B022802D90320BDE8F88F2068800124
:10141000F4D40020F8E70120F6E700000838024085
:101420000038024000004742800E474200700040F2
:101430000000FFFF70B515460E46040003D094F877
:10144000490010B107E0012070BD002084F8480079
:10145000204600F01AF804F108012068FFF73CF973
:101460003146A2682068FFF761F9D4E901022946F4
:10147000236BFFF711F9A168206850F8212042F092
:10148000010240F82120002070BDFFF737BB4FF06C
:10149000E0210428086903D020F0040008617047A7
:1014A00040F00400FAE710B5401EB0F1807F01D390
:1014B000012010BD4FF0E02460610F21601701F0A2
:1014C000CFFD0020A06107202061002010BD7047E3
:1014D000704710B5040003D094F8390010B107E04C
:1014E000012010BD002084F83800204600F00CF8E0
:1014F000022084F83900211D206801F067FE0120D8
:1015000084F83900002010BD70470168CA6842F0B5
:101510000102CA600068016841F001010160002019
:101520007047704770B50446006801694FF00005C8
:10153000C943890715D4C168C943890711D4E91E75
:10154000016101202076206880698007204602D052
:10155000FFF7E7FF04E000F098F8204600F096F867
:10156000257620680169C943490717D4C168C94372
:10157000490713D46FF0040101610220207620682E
:10158000806910F4407F204602D0FFF7CAFF04E0D4
:1015900000F07BF8204600F079F825762068016994
:1015A000C943090716D4C168C943090712D46FF0AB
:1015B00008010161042020762068C0698007204668
:1015C00002D0FFF7AEFF04E000F05FF8204600F025
:1015D0005DF8257620680169C943C90617D4C1683A
:1015E000C943C90613D46FF01001016108202076A9
:1015F0002068C06910F4407F204602D0FFF791FFB9
:1016000004E000F042F8204600F040F8257620681B
:101610000169C943C90708D1C168C943C90704D1D1
:10162000891E0161204600F032F820680169C94333
:10163000090609D4C168C943090605D46FF08001C1
:1016400001612046FFF743FF20680169C94349064D
:1016500009D4C168C943490605D46FF0400101614E
:10166000204600F01BF820680169C94389060BD4A5
:10167000C168C943890607D46FF020010161204683
:10168000BDE87040FFF724BF70BD70477047006829
:10169000B0F1804F01D1FFF765BB70477047FEE79F
:1016A0002DE9F043174C8146002520886688464383
:1016B000A088A0F5D041043902D1A079012808D032
:1016C0000021084601F08CFA01F0E4FB4FF0D8400D
:1016D00013E00020A0712A2767814FF02B08A4F89F
:1016E0000C80014601F07CFA0120A071A4F80A8068
:1016F000A781E9E7A0F880906D1CB542FAD3BDE858
:10170000F0830000C00000202DE9F04F4A492A2450
:101710002B25898845F2105A4FF4305B4FF4285E30
:101720004FF448764FF0F00C49F241394FF4A07372
:1017300045F210374FF4F07280B13F484FF0010886
:10174000494580F806800380A0F802C001D0B94264
:101750003ED12C2606814481858157E036484FF0E2
:101760000008494580F80680A0F800C0438006D0F4
:10177000A1F5D04CBCF1040C01D0B9420CD12C26FF
:1017800006814481A1F5D0448581043C01D0B94251
:1017900044D10380428041E0514507D1A0F808B010
:1017A000A0F80AE04FF42C5181810EE0A1F5C85356
:1017B000633B06D0222101812021418121218181A9
:1017C0002CE02C210181458184810280468025E026
:1017D000A1F5D04CBCF1040C09D051450BD1A0F8B7
:1017E00008B0A0F80AE04FF42C54848121E02C26A4
:1017F0000681458109E0A1F5C85CBCF1630C12D0FB
:10180000222404812124448120248481A1F5D04410
:10181000043C01D0B94201D102804380BDE8F04FC1
:10182000002001F0DBB84FF02C0CA0F808C0448178
:10183000858106804280E9E7C00000202DE9F04361
:10184000434C91460246A08823460D464FEA112894
:10185000160A5B89A0F51341413916D0A0F5A641BF
:10186000103912D0B1F5007114D02646A0F5C85732
:10187000B1793688B61A761E633F25D0A0F5D047D9
:10188000043F3DD0012951D051E0184601F0F6FA4D
:1018900030463CE0184601F0F1FA304601F0E2FA39
:1018A0006089401C80B201F0E9FAD0B201F0DAFAA6
:1018B000A08901F0E3FA404601F0D4FAA089401C67
:1018C00080B201F0DBFA2DE001B9B2B2184601F0A6
:1018D000D5FA160A304601F0C5FAD0B201F0C2FAC4
:1018E000304601F0BFFAD0B201F0BCFAA08901F095
:1018F000C5FA404601F0B6FAE8B201F0B3FA0EE0DC
:10190000012900D1B2B2184601F0B8FA100A01F06C
:10191000A9FAD0B201F0A6FAA08901F0AFFA4046C8
:1019200001F0A0FAE8B201F09DFA08E0B2B2114667
:10193000184601F0B9FAA089294601F0B5FA4FF02E
:10194000D840218920F87E1FA0F80290BDE8F083DE
:10195000C00000202DE9F843204C1E468046A38895
:10196000089FA3F5D040043802D1A079012807D000
:10197000A2EB0800401C84B20D464FF0D84929E084
:1019800025880846A91AA5EB08030025A57132464B
:101990002A2565812B26491E5B1EA68189B29BB232
:1019A0000097FFF7D7FF0120A0716681A581BDE8F0
:1019B000F8832946404601F013F901F06BFA002044
:1019C000494603E0A1F88070401C80B2A042F9D3E0
:1019D0006D1CADB2B542ECD9E9E70000C0000020B3
:1019E0002DE9F84F00200090322001F0B5FD0121D3
:1019F000002001F059FA322001F0AEFD002000F085
:101A0000E3FFFE4A90804FF45A4001F037FA00F0AD
:101A1000D1FF90804FF45B4001F030FA00F0CAFF34
:101A20004FF6FF7404EA002090804FF45C4001F010
:101A300025FA00F0BFFF91880843908045F21051CD
:101A4000B0F5004F7ED088421AD100BF4FF0204041
:101A5000D0F81C3123F00F03C0F81C31D0F81C3132
:101A600023F47063C0F81C31D0F81C3143F0030339
:101A7000C0F81C31D0F81C3143F40073C0F81C319D
:101A8000908888427ED14FF470435521184601F06A
:101A90000BFA4FF20105AA21284601F005FA6E1C47
:101AA0005221304601F000FAAF1C0821384601F0FF
:101AB000FBF94FF204080121404601F0F5F90D2130
:101AC0004FF4304001F0F0F90D214BF2010001F02C
:101AD000EBF90D214BF2020001F0E6F94FF4364923
:101AE0003421484601F0E0F934214BF2016001F065
:101AF000DBF934214BF2026001F0D6F94FF4314AA0
:101B00000D21504601F0D0F94BF2011B0D21584632
:101B100001F0CAF90D214BF2021001F0C5F9342190
:101B20004FF4374001F0C0F934214BF2017001F05D
:101B3000BBF934214BF2027001F0B6F900214FF4E9
:101B4000324000E0FDE301F0AFF900214BF201204B
:101B500001F0AAF900214BF2022001F0A5F924219D
:101B60004FF4384001F0A0F924214BF6010001F0B8
:101B70009BF924214BF6020001F096F901214FF464
:101B80003F4000E0FDE301F08FF90F214FF43340B7
:101B900001F08AF90F214BF2013001F085F90F2194
:101BA0004BF2023001F080F934214FF4394001F05A
:101BB0007BF934214BF6011001F076F934214BF614
:101BC000021001F071F908214FF4354001F06CF971
:101BD00008214BF2015001F067F908214BF2025045
:101BE00001F062F903214FF4424001F05DF9242134
:101BF0004FF43A4001F058F924214BF6012001F04E
:101C000053F924214BF6022001F04EF900214FF444
:101C10003C4001F049F978214BF6014001F044F9CC
:101C200000214BF6024001F03FF900214FF43D4006
:101C300001F03AF978214BF6015001F035F9002115
:101C40004BF6025001F030F900214FF43E4001F014
:101C50002BF964214BF6016001F026F900214FF4C5
:101C6000514001F021F933214DF2011001F01CF92E
:101C700000214DF2021001F017F934214DF203104A
:101C800001F012F900214DF2041001F00DF93A2192
:101C90004DF2051001F008F900214DF2061001F097
:101CA00003F94A214DF2071001F0FEF800214DF230
:101CB000081001F0F9F85C214DF2091001F0F4F878
:101CC00000214DF20A1001F0EFF881214DF20B10C6
:101CD00001F0EAF800214DF20C1001F0E5F8A62120
:101CE0004DF20D1001F0E0F800214DF20E1001F060
:101CF000DBF8E5214DF20F1001F0D6F801214DF28D
:101D0000101001F0D1F813214DF2111001F0CCF8B0
:101D100001214DF2121001F0C7F854214DF21310B9
:101D200001F0C2F801214DF2141001F0BDF882213A
:101D30004DF2151001F0B8F801214DF2161001F026
:101D4000B3F8CA214DF2171001F0AEF802214DF29E
:101D5000181001F0A9F800214DF2191001F0A4F8B3
:101D600002214DF21A1001F09FF801214DF21B10D3
:101D700001F09AF802214DF21C1001F095F834217F
:101D80004DF21D1001F090F802214DF21E1001F0ED
:101D90008BF867214DF21F1001F086F802214DF2F9
:101DA000201001F081F884214DF2211001F07CF81F
:101DB00002214DF2221001F077F8A4214DF22310F8
:101DC00001F072F802214DF2241001F06DF8B721F4
:101DD0004DF2251001F068F802214DF2261001F0B5
:101DE00063F8CF214DF2271001F05EF802214DF289
:101DF000281001F059F8DE2102E00000C0000020A8
:101E00004DF2291001F050F802214DF22A1001F094
:101E10004BF8F2214DF22B1001F046F802214DF261
:101E20002C1001F041F8FE214DF22D1001F03CF88C
:101E300003214DF22E1001F037F810214DF22F1032
:101E400001F032F803214DF2301001F02DF833216A
:101E50004DF2311001F028F803214DF2321001F05B
:101E600023F86D214DF2331001F01EF800214FF4DC
:101E7000524001F019F833214DF2012001F014F81D
:101E800000214DF2022001F00FF834214DF2032021
:101E900001F00AF800214DF2042001F005F83A2182
:101EA0004DF2052001F000F800214DF2062000F06F
:101EB000FBFF4A214DF2072000F0F6FF00214DF212
:101EC000082000F0F1FF5C214DF2092000F0ECFF4A
:101ED00000214DF20A2000F0E7FF81214DF20B2096
:101EE00000F0E2FF00214DF20C2000F0DDFFA62102
:101EF0004DF20D2000F0D8FF00214DF20E2000F031
:101F0000D3FFE5214DF20F2000F0CEFF01214DF26D
:101F1000102000F0C9FF13214DF2112000F0C4FF82
:101F200001214DF2122000F0BFFF54214DF2132089
:101F300000F0BAFF01214DF2142000F0B5FF82211C
:101F40004DF2152000F0B0FF01214DF2162000F0F7
:101F5000ABFFCA214DF2172000F0A6FF02214DF27F
:101F6000182000F0A1FF00214DF2192000F09CFF85
:101F700002214DF21A2000F097FF01214DF21B20A3
:101F800000F092FF02214DF21C2000F08DFF342161
:101F90004DF21D2000F088FF02214DF21E2000F0BE
:101FA00083FF67214DF21F2000F07EFF02214DF2DA
:101FB000202000F079FF84214DF2212000F074FFF1
:101FC00002214DF2222000F06FFFA4214DF22320C8
:101FD00000F06AFF02214DF2242000F065FFB721D6
:101FE0004DF2252000F060FF02214DF2262000F086
:101FF0005BFFCF214DF2272000F056FF02214DF26A
:10200000282000F051FFDE214DF2292000F04CFF86
:1020100002214DF22A2000F047FFF2214DF22B2041
:1020200000F042FF02214DF22C2000F03DFFFE2186
:102030004DF22D2000F038FF03214DF22E2000F04C
:1020400033FF10214DF22F2000F02EFF03214DF21F
:10205000302000F029FF33214DF2312000F024FF21
:1020600003214DF2322000F01FFF6D214DF233208D
:1020700000F01AFF00214FF4534000F015FF332108
:102080004DF2013000F010FF00214DF2023000F05F
:102090000BFF34214DF2033000F006FF00214DF21A
:1020A000043000F001FF3A214DF2053000F0FCFE53
:1020B00000214DF2063000F0F7FE4A214DF20730C4
:1020C00000F0F2FE00214DF2083000F0EDFE5C2140
:1020D0004DF2093000F0E8FE00214DF20A3000F028
:1020E000E3FE81214DF20B3000F0DEFE00214DF2C7
:1020F0000C3000F0D9FEA6214DF20D3000F0D4FED8
:1021000000214DF20E3000F0CFFEE5214DF20F30F0
:1021100000F0CAFE01214DF2103000F0C5FE13217F
:102120004DF2113000F0C0FE01214DF2123000F0EE
:10213000BBFE54214DF2133000F0B6FE01214DF2EA
:10214000143000F0B1FE82214DF2153000F0ACFEEB
:1021500001214DF2163000F0A7FECA214DF21730D2
:1021600000F0A2FE02214DF2183000F09DFE002189
:102170004DF2193000F098FE02214DF21A3000F0B5
:1021800093FE01214DF21B3000F08EFE02214DF234
:102190001C3000F089FE34214DF21D3000F084FE29
:1021A00002214DF21E3000F07FFE67214DF21F30FC
:1021B00000F07AFE02214DF2203000F075FE8421FD
:1021C0004DF2213000F070FE02214DF2223000F07D
:1021D0006BFEA4214DF2233000F066FE02214DF289
:1021E000243000F061FEB7214DF2253000F05CFE96
:1021F00002214DF2263000F057FECF214DF227305C
:1022000000F052FE02214DF2283000F04DFEDE219A
:102210004DF2293000F048FE02214DF22A3000F044
:1022200043FEF2214DF22B3000F03EFE02214DF232
:102230002C3000F039FEFE214DF22D3000F034FE3E
:1022400003214DF22E3000F02FFE10214DF22F30E1
:1022500000F02AFE03214DF2303000F025FE33213C
:102260004DF2313000F020FE03214DF2323000F00B
:102270001BFE6D214DF2333000F016FE00214FF4AD
:10228000544000F011FE33214DF2014000F00CFEED
:1022900000214DF2024000F007FE34214DF20340D0
:1022A00000F002FE00214DF2044000F0FDFD3A2155
:1022B0004DF2054000F0F8FD00214DF2064000F01F
:1022C000F3FD4A214DF2074000F0EEFD00214DF2F2
:1022D000084000F0E9FD5C214DF2094000F0E4FD0A
:1022E00000214DF20A4000F0DFFD81214DF20B404C
:1022F00000F0DAFD00214DF20C4000F0D5FDA621E2
:102300004DF20D4000F0D0FD00214DF20E4000F0E6
:10231000CBFDE5214DF20F4000F0C6FD01214DF24D
:10232000104000F0C1FD13214DF2114000F0BCFD42
:1023300001214DF2124000F0B7FD54214DF213403F
:1023400000E032E300F0B0FD01214DF2144000F056
:10235000ABFD82214DF2154000F0A6FD01214DF2AA
:10236000164000F0A1FDCA214DF2174000F09CFD7F
:1023700002214DF2184000F097FD00214DF2194066
:1023800000E006E300F090FD02214DF21A4000F05B
:102390008BFD01214DF21B4000F086FD02214DF224
:1023A0001C4000F081FD34214DF21D4000F07CFD09
:1023B00002214DF21E4000F077FD67214DF21F40D3
:1023C00000F072FD02214DF2204000F06DFD8421ED
:1023D0004DF2214000F068FD02214DF2224000F054
:1023E00063FDA4214DF2234000F05EFD02214DF279
:1023F000244000F059FDB7214DF2254000F054FD76
:1024000002214DF2264000F04FFDCF214DF2274032
:1024100000F04AFD02214DF2284000F045FDDE218A
:102420004DF2294000F040FD02214DF22A4000F01B
:102430003BFDF2214DF22B4000F036FD02214DF222
:102440002C4000F031FDFE214DF22D4000F02CFD1E
:1024500003214DF22E4000F027FD10214DF22F40B8
:1024600000F022FD03214DF2304000F01DFD33212C
:102470004DF2314000F018FD03214DF2324000F0E2
:1024800013FD6D214DF2334000F00EFD00214FF49D
:10249000554000F009FD33214DF2015000F004FDDC
:1024A00000214DF2025000F0FFFC34214DF20350A8
:1024B00000F0FAFC00214DF2045000F0F5FC3A2146
:1024C0004DF2055000F0F0FC00214DF2065000F0F6
:1024D000EBFC4A214DF2075000F0E6FC00214DF2E2
:1024E000085000F0E1FC5C214DF2095000F0DCFCEA
:1024F00000214DF20A5000F0D7FC81214DF20B5023
:1025000000F0D2FC00214DF20C5000F0CDFCA621D1
:102510004DF20D5000F0C8FC00214DF20E5000F0BD
:10252000C3FCE5214DF20F5000F0BEFC01214DF23D
:10253000105000F0B9FC13214DF2115000F0B4FC22
:1025400001214DF2125000F0AFFC54214DF2135016
:1025500000F0AAFC01214DF2145000F0A5FC8221EC
:102560004DF2155000F0A0FC01214DF2165000F084
:102570009BFCCA214DF2175000F096FC02214DF24F
:10258000185000F091FC00214DF2195000F08CFC25
:1025900002214DF21A5000F087FC01214DF21B5030
:1025A00000F082FC02214DF21C5000F07DFC342131
:1025B0004DF21D5000F078FC02214DF21E5000F04B
:1025C00073FC67214DF21F5000F06EFC02214DF2AA
:1025D000205000F069FC84214DF2215000F064FC91
:1025E00002214DF2225000F05FFCA4214DF2235055
:1025F00000F05AFC02214DF2245000F055FCB721A6
:102600004DF2255000F050FC02214DF2265000F012
:102610004BFCCF214DF2275000F046FC02214DF239
:10262000285000F041FCDE214DF2295000F03CFC26
:1026300002214DF22A5000F037FCF2214DF22B50CE
:1026400000F032FC02214DF22C5000F02DFCFE2156
:102650004DF22D5000F028FC03214DF22E5000F0D9
:1026600023FC10214DF22F5000F01EFC03214DF2EF
:10267000305000F019FC33214DF2315000F014FCC1
:1026800003214DF2325000F00FFC6D214DF233501A
:1026900000F00AFC00214FF4564000F005FC332105
:1026A0004DF2016000F000FC00214DF2026000F0EC
:1026B000FBFB34214DF2036000F0F6FB00214DF2EC
:1026C000046000F0F1FB3A214DF2056000F0ECFBF4
:1026D00000214DF2066000F0E7FB4A214DF2076051
:1026E00000F0E2FB00214DF2086000F0DDFB5C2110
:1026F0004DF2096000F0D8FB00214DF20A6000F0B5
:10270000D3FB81214DF20B6000F0CEFB00214DF296
:102710000C6000F0C9FBA6214DF20D6000F0C4FB77
:1027200000214DF20E6000F0BFFBE5214DF20F607D
:1027300000F0BAFB01214DF2106000F0B5FB13214F
:102740004DF2116000F0B0FB01214DF2126000F07B
:10275000ABFB54214DF2136000F0A6FB01214DF2BA
:10276000146000F0A1FB82214DF2156000F09CFB8B
:1027700001214DF2166000F097FBCA214DF217605F
:1027800000F092FB02214DF2186000F08DFB002159
:102790004DF2196000F088FB02214DF21A6000F042
:1027A00083FB01214DF21B6000F07EFB02214DF204
:1027B0001C6000F079FB34214DF21D6000F074FBC9
:1027C00002214DF21E6000F06FFB67214DF21F6089
:1027D00000F06AFB02214DF2206000F065FB8421CD
:1027E0004DF2216000F060FB02214DF2226000F00A
:1027F0005BFBA4214DF2236000F056FB02214DF259
:10280000246000F051FBB7214DF2256000F04CFB35
:1028100002214DF2266000F047FBCF214DF22760E8
:1028200000F042FB02214DF2286000F03DFBDE216A
:102830004DF2296000F038FB02214DF22A6000F0D1
:1028400033FBF2214DF22B6000F02EFB02214DF202
:102850002C6000F029FBFE214DF22D6000F024FBDE
:1028600003214DF22E6000F01FFB10214DF22F606E
:1028700000F01AFB03214DF2306000F015FB33210C
:102880004DF2316000F010FB03214DF2326000F098
:102890000BFB6D214DF2336000F006FB552118460D
:1028A00000F002FBAA21284600F0FEFA5221304631
:1028B00000F0FAFA0821384600F0F6FA0021404606
:1028C00000F0F2FACC21504600F0EEFA0021584612
:1028D00000F0EAFA0521484600F0E6FA70214FF4CC
:1028E000374000F0E1FA70214BF2017000F0DCFAA1
:1028F00001214FF4384000F0D7FA03214BF60100D4
:1029000000F0D2FA03214BF6020000F0CDFA0321C9
:102910004BF6030000F0C8FA02214FF43C4000F0EF
:10292000C3FA00214BF6014000F0BEFA00214BF63D
:10293000024000F0B9FAD0214FF4494000F0B4FA57
:1029400002214CF6011000F0AFFA50214CF60210B3
:1029500000F0AAFA50214CF6031000F0A5FA50211D
:102960004CF6041000F0A0FA00214FF4545000F08F
:102970009BFA55214FF4685000F096FA4FF48850B6
:1029800000F07CFAA42000F0E3FD4FF4245000F0A6
:1029900075FA0020FEF7B8FE05490120C1F8BC0217
:1029A0002046BDE8F84FFEF77BBE9180FFF74EB89A
:1029B0000080404208B54FF0D840B0F88000ADF834
:1029C0000000BDF8000008BD10B500F057FA0A205D
:1029D00000F0BEFDBDE81040FFF7ECBFF0B57F4C46
:1029E00000232146A579898846F6040241F663163C
:1029F000012D01D02DB11DE091421BD0B14202D179
:102A000018E0B14216D1082814D2DFE800F004061D
:102A1000080A0C0E101206200CE007200AE0042021
:102A200008E0052006E0012004E0002002E0032089
:102A300000E00220A1F5134C45F2103745F2105585
:102A4000BCF1410C07D0914205D0B94203D0A94254
:102A500001D0B1427BD1082812D2DFE800F0110486
:102A600006080A0C0E1080230AE0402308E0C02369
:102A700006E0202304E0602302E0A02300E0E0233E
:102A8000A94202D14FF4585000E03620B94205D097
:102A9000A94203D0B14201D043F00803914201D1D1
:102AA00043F00203194600F0FFF9A188B1420AD0B1
:102AB00098062088628802D5904202D303E09042B3
:102AC00001D9228060806089A94241D100F0D6F905
:102AD000002000F0C7F96089401C80B200F0CEF9F8
:102AE000002000F0BFF96089801C80B200F0C6F9B8
:102AF0002088401EC0F30F2000F0B4F96089C01C8C
:102B000080B200F0BBF92078401EC0B200F0AAF9F4
:102B1000A08900F0B3F9002000F0A4F9A089401CBE
:102B200080B200F0ABF9002000F09CF9A089801C75
:102B300080B200F0A3F96088401EC0F30F2000F0BF
:102B400091F9A089C01C80B200F098F922E028E039
:102B500000F094F9002000F085F9002000F082F9DF
:102B60002088401EC0F30F2000F07CF92078401E22
:102B7000C0B200F077F9A08900F080F9002000F0E1
:102B800071F9002000F06EF96088401EC0F30F203C
:102B900000F068F9A078BDE8F040401EC0B200F037
:102BA00061B9082812D2DFE800F0040608110A0C07
:102BB0000E1030230AE0102308E0202306E038231B
:102BC00004E0282302E0182300E00823BDE8F040D9
:102BD000032043F4805100F067B90000C0000020DA
:102BE0002DE9F043DFF850810C4602464FEA1129E7
:102BF000B8F804004146150A4B89A0F51346413E3A
:102C000017D0A0F5A641103913D04646A0F5D047FD
:102C1000B1793688B61A761E043F0FD0A0F5C85792
:102C2000633F20D0A0F5AA47103F5BD0012977D0A1
:102C300077E0184600F022F9284606E0012900D185
:102C4000B2B2184600F01AF9100A00F00BF9D0B22F
:102C500000F008F9B8F80C0000F010F9484600F050
:102C600001F9E0B22BE071B3184600F007F92846ED
:102C700000F0F8F8D0B200F0F5F8B8F80000401E07
:102C8000C0F30F2000F0EEF898F80000401EC0B22C
:102C900000F0E8F8B8F80C0000F0F0F8484600F052
:102CA000E1F8E0B200F0DEF8B8F80200401EC0F330
:102CB0000F2000F0D7F898F80200401EC0B2BDE81F
:102CC000F04300F0CFB8B2B2184600F0D7F80020B9
:102CD00000F0C8F8002000F0C5F8100A00F0C2F8B3
:102CE000D0B2D5E7184600F0C9F8284600F0BAF887
:102CF000B8F80A00401C80B200F0C0F8D0B200F072
:102D0000B1F8B8F80C0000F0B9F8484600F0AAF89D
:102D1000B8F80C00401C80B200F0B0F8A1E7FFE763
:102D2000B2B21146184600F0BFF8B8F80C002146C0
:102D3000BDE8F04300F0B8B8C00000202DE9FF4F17
:102D40001D460C468A46580700D0012000EBD500EE
:102D5000690810FB01F0203A00F0FF09D0B200260C
:102D6000DFF898B0029044E00C2D11D0102D14D053
:102D7000182D40D10298224900EBC00001EB8000E1
:102D80004FF00008875D38060CD51E4802880DE01C
:102D900002981D4900EB4000F0E71C49029801EB46
:102DA0000010EDE70D9828B9164842882146009892
:102DB000FEF744FD7806070E641CBBF80200A4B2BF
:102DC000A04218D9A4EB0A00A84209D100985446A1
:102DD000401C80B20090BBF8001081420BD906E085
:102DE00008F1010000F0FF08B8F1080FCBD3761C02
:102DF000F6B24E45B8D3BDE8FF8F0000C0000020FA
:102E0000F44E000800000020904400080449000827
:102E10002DE9F84F044600F0FF0910190D46DDE9D1
:102E20000AB61FFA80F8581987B24FF0000A12E06C
:102E3000444503D305EB0B004C4685B2BD420FD28F
:102E40005B4629462046CDF800A0FFF777FF04EB4C
:102E50005B0084B2761C3278A2F120005E28E7D9AC
:102E6000BDE8F88F01B5BDF80000ADF80000BDF871
:102E700000004FF0D841A1F8800008BD01B5BDF8B1
:102E80000000ADF80000BDF800004FF0D841A1F8F7
:102E90007E0008BD03484FF0D8410089A1F87E00AC
:102EA00070470000C00000204FF0D84222F87E0F8B
:102EB000518070471CB54FF6FF70FEF7F1FB0A4CCE
:102EC0001F200AA120801020CDE90001084810230E
:102ED000C82200880021183880B2FFF799FF4FF40C
:102EE000784020801CBD0000000000205253540098
:102EF000C000002010B58CB000200A9001210AA863
:102F000000F036FB0C4C14220C4960606846FDF75B
:102F1000E6F90021684600F048FB084920601422C9
:102F2000143105A8FDF7DBF9002105A800F03DFBF1
:102F3000A0600CB010BD00003C000020205D000827
:102F400000B5174887B04FF0204101601549416036
:102F50000621816000211022C160C0E90412816154
:102F6000C16112020162C0E90912C16201634163D9
:102F700081634164FE20CDE900013C20CDE90201DE
:102F8000049105910691002269460548FEF752FA20
:102F9000002803D0682104A000F099F907B000BD13
:102FA000D0000020040100A02E2E2F5372632F6644
:102FB000736D632E6300000030B5264887B001684A
:102FC00041F080010160016801F080010591016814
:102FD00041F020010160016801F0200105910168C4
:102FE00041F010010160016801F0100105910168D4
:102FF00041F002010160016801F0020105910168E0
:1030000041F008010160016801F0080105910168C3
:1030100041F001010160016801F0010105910168C1
:1030200041F04001016000680B4D00F040004FF49A
:1030300000440590002221462846FDF787FE012125
:10304000CDE900410291039169462846FDF7A6FDAE
:1030500007B030BD3038024000040240FEE7704740
:103060000907090E002806DA00F00F0000F1E02041
:1030700080F8141D704700F1E02080F800147047BC
:10308000012000F069FAFBE71CB5FEF7A9FC0A482D
:103090000068804709494FF47840D2220880182000
:1030A00007A1CDE90001034628211E20FFF7B0FE4D
:1030B00000F01EF9FCE700000C00002000000020DA
:1030C000656C6F6E2E2E2E2E2E2E000000F063BA31
:1030D00030B5244893B00025016841F0805101606B
:1030E000006800F0805011901F48016841F4804151
:1030F00001600068022400F48040119001200090DB
:10310000000401908001CDE9064008AA0420A8210E
:1031100082E813000B906846FDF7FEFF00B1FEE762
:103120000CA90F2081E831004FF4A0500F904FF40C
:103130008050109005210CA8FDF7F0FE00B1FEE7CD
:10314000FDF7A4FF4FF47A71B0FBF1F0FEF7ABF995
:103150000420FEF79CF900220F21501EFDF7ACFE63
:1031600013B030BD40380240007000401048016884
:1031700041F4700101600F48016841F001010160F4
:103180000C4A00210832116002680B4B1A400260A1
:10319000031D0A4A1A60026822F480220260054870
:1031A0000C30016002495806803908607047000001
:1031B00088ED00E000380240FFFFF6FE10300024EA
:1031C0000148FEF7AFB9000020010020F0B5026809
:1031D000234B244D244E254F254C4FF0804C9842D4
:1031E00009D0604507D0A84205D0B04203D0B8420C
:1031F00001D0A04204D122F0700E4A6842EA0E02C9
:1032000098421BD0604519D0A84217D0B04215D0C3
:10321000B84213D0A04211D0164DA8420ED0164D80
:10322000A8420BD0154DA84208D0154DA84205D094
:10323000144DA84202D0144DA84203D122F4407587
:10324000CA682A4302608A68C2620A688262984237
:1032500001D0A04201D10969016301214161F0BDA2
:10326000000001400004004000080040000C004045
:10327000000401400040014000440140004801407A
:1032800000180040001C00400020004010B50C4C0D
:10329000A088A0F5AA41103901D0012010BDFDF78A
:1032A00067FA09480749416090F82C10A27941F06B
:1032B000800102F00102114380F82C10002010BDA3
:1032C000C0000020E50800080C000020FEE7FEE733
:1032D00002E008C8121F08C1002AFAD170477047DF
:1032E000002001E001C1121F002AFBD1704700003D
:1032F0002DE9F04F294D002487B0696820468847A2
:10330000DFF89CA001270DF108084FF6FF79287F10
:1033100007FA04F1084234D005EB4406BAF800106D
:1033200032898A422FD2738ABAF8020083422AD2A3
:1033300038F824C04046CC4504D100EB840120F885
:1033400024204B80DFF85CC0022108EB840B3CF8A2
:1033500014C0CDE9001CBBF8021038F8240000F0BE
:1033600089F8318928F82410728AABF80220BAF85B
:1033700000001838814206DD142A04D2FFF79AFDB6
:1033800001E028F82490641CE4B2052CBFD305208A
:1033900000F0E2F807B0BDE8F08F00000C0000205C
:1033A000C0000020145D000808B5002A06D00244C1
:1033B000521E009392B20B46FEF7CCFA08BD2DE9DF
:1033C000FF5F80460E4640F2C32050434FF47A71AF
:1033D000B0FBF1F702FB02F000EB520B14464FF684
:1033E000FF7000EA4202A8EB040080B231467F1C65
:1033F000039BFFF7D9FF012538E005FB05F004FB2F
:10340000040159451BD9BC4218D96800A0F1020932
:10341000301981B2A8EB050000F1010A1FFA89F208
:103420001FFA8AF0039BFFF7BFFF301B81B21FFA20
:1034300089F21FFA8AF0039BFFF7B6FF641E4FF66E
:10344000FF7000EA4402701981B2A8EB040A9146A9
:103450001FFA8AF0039BFFF7A7FF701B81B24A4651
:103460001FFA8AF0039BFFF79FFF6D1CBD42C4D972
:10347000BDE8FF9F2DE9FF5F4FF00008DDF838A0A1
:10348000474650454FD352454DD351454BD35345F5
:1034900049D3161A5D1A029000914FF0FF30002EAA
:1034A00002DD4FF0010102E003D14FF000018B4635
:1034B00002E08346C6F10006002D02DD4FF0010058
:1034C00002E003D14FF00000019002E0C5F10005D9
:1034D0000190AE4201DD344600E02C46601C4FF006
:1034E000000903901CE00098524681B202980F9B9D
:1034F00080B2FFF764FFB0442F44A04505DD029978
:10350000A8EB040801EB0B000290A74204DDDDE903
:10351000000108443F1B009009F101001FFA80F9E7
:1035200003998945DFDDBDE8FF9FFDF723FCFFF729
:10353000CFFDFFF741FDFFF703FDFFF7DBFC00F0D8
:1035400012F8FEE701460020842900D0C81C70470D
:10355000401EC0B2FCD2704710B500B9012000F087
:103560007DFB002010BD10B500F0CEFB002010BD8B
:1035700010B5012901D0002010BD03220021012037
:1035800000F0B2FC040004D000231A46194600F0F3
:1035900013FD204610BD10B500F020FE012803D019
:1035A000BDE8104000F08ABC10BD3EB504460D4693
:1035B000B0F90800FFF7C6FF02A9CDE90001208A93
:1035C0002B4682B2D4E9001000F0DCFD012801D0C6
:1035D00000203EBD02983EBD2DE9F041184C0F463B
:1035E0000546E6682068001D00F082FA38B92068B8
:1035F00090F82C1001208840216981432161681CCA
:1036000007D137B12168BDE8F0410E48091D00F02F
:10361000A7BA20683544B5424560216805D2A06B41
:10362000BDE8F041091D00F083BA606B091D00F090
:103630007FFAA06A854200D2A562BDE8F081000051
:1036400084000020383E00202DE9F041054600F0BE
:1036500093FA2E4CA068401CA06020682C4F10B13B
:10366000606940B32DE02560A068012829D10026BB
:1036700006EB860007EB800000F04CFA761C072E64
:10368000F6D323488C3000F045FA2148A03000F0F2
:1036900041FA1F48B43000F03DFA1D48C83000F030
:1036A00039FA1B48DC3000F035FA19488C30606379
:1036B0001430A06305E02068E96AC06A884200D837
:1036C0002560606A401C6062E96A012022698840C6
:1036D0001043206101EB810007EB8000291D00F001
:1036E0003FFA00F069FA606900280CD02068E96AA6
:1036F000C06A884207D207494FF080500860BFF384
:103700004F8FBFF36F8FBDE8F08100008400002071
:103710005C3D002004ED00E070B5114E114C17E047
:1037200000F026FB3068B8B100F050FE00F024FA3B
:10373000F068C568281D00F0DBF9A068401EA06095
:103740006068401E606000F037FA284600F042F8DA
:1037500060680028E4D170BD00F038FEF8E7000092
:10376000243E0020840000202DE9F041856B17469F
:1037700004460026026C82B1C7B1E068FCF7AFFDD9
:10378000E168206C091AE1602268914202D2616806
:10379000081AE060022F16D017E02068A8B9606808
:1037A00000F08EFD0646002060600EE0A068FCF789
:1037B00096FD216CA0680844A0606168884204D32B
:1037C0002068A06001E005B16D1E6D1CA563304648
:1037D000BDE8F08110B50446006B00F001FA204608
:1037E000BDE8104000F0FCB910484FF4705142079A
:1037F00006D0C01D0D4920F00700411AC1F57051D7
:103800000B4A00230144C2E900030839103A21F0B1
:10381000070111604B600B600B1AC0E90013936045
:103820004FF000405360D060704700005C01002002
:1038300070000020074C4FF08056074DFFF76CFFDB
:1038400020680128FAD92E60BFF34F8FBFF36F8F26
:10385000F4E700005C3D002004ED00E02DE9F047B6
:103860009A46DDE9098481466FF00303206B03EB80
:1038700082021044089D20F00706700707D05020F0
:1038800080F31188BFF34F8FBFF36F8FFEE72318CC
:103890000A5C83F834200A5C12B1401C1028F6D36D
:1038A000002784F84370072D00D30625E562C4E99C
:1038B0001157201D00F039F904F1180000F035F916
:1038C0002461C5F107006462A061E76484F8507068
:1038D00052464946304600F0F5F82060B8F1000F36
:1038E00001D0C8F80040BDE8F087000030B51149AC
:1038F00000E011460A688242FBD34B685C188442A0
:1039000003D1406818444860084643681C18944234
:1039100009D1084C103C2468A24209D052681A44CC
:1039200042600A6812680260814200D0086030BDBF
:103930000460F9E7700000200648416B096829B16E
:10394000416BC968C9684968816270474FF0FF31AF
:10395000FAE700008400002008484068401C4FF04F
:10396000500080F3118804D0BFF34F8FBFF36F8FE7
:10397000FEE7BFF34F8FBFF36F8FFEE778000020A5
:103980002DE9F041044600F0F7F894F9455004F1B0
:10399000240609E0606A48B1304600F0DDFC08B159
:1039A00000F082F96D1E6DB2002DF3DC4FF0FF3692
:1039B00084F8456000F000F900F0DEF894F9445016
:1039C00004F1100709E0206948B1384600F0C4FC52
:1039D00008B100F069F96D1E6DB2002DF3DC84F8BA
:1039E0004460BDE8F04100F0E7B800002DE9F04187
:1039F0000546002700F0BCF9314E306808B9FFF7E2
:103A0000F3FEF06805424BD1C5B3083568070ED008
:103A100005F00700C0F108000544680707D05020F2
:103A200080F31188BFF34F8FBFF36F8FFEE72DB385
:103A30007068854234D82248103001460C6801E095
:103A400020460C466168A94202D221680029F7D1BC
:103A500031688C4224D007682168016060680837AB
:103A6000411B10290FD96019420708D0502080F35C
:103A70001188BFF34F8FBFF36F8FFEE710E04160F7
:103A80006560FFF733FF61687068401A7060B26864
:103A9000904200D2B060F06801430020C4E9000108
:103AA00000F094FC780707D0502080F31188BFF312
:103AB0004F8FBFF36F8FFEE73846BDE8F0810000FF
:103AC0006000002010B5031F4FF080741C601B1FA6
:103AD00021F001011960191F044B0B6014390A60B1
:103AE000091F6FF0020244380A6010BD59390008FE
:103AF000D0E9013201699A60D0E901235A604A682D
:103B0000824201D182684A60002202610868401E38
:103B10000860704700F108014FF0FF32C0E9011260
:103B2000C16001610021016070470021016170479F
:103B300030B50B685A1C02D000F1080202E002699D
:103B400004E02246546825689D42FAD953684B60C8
:103B500099608A60516008610168491C016030BD4C
:103B600042684A6093688B6093685960916008610D
:103B70000168491C01607047502080F31188BFF331
:103B80004F8FBFF36F8F0A494868401C4860012877
:103B90000CD10848006810F0FF0F07D0502080F3C8
:103BA0001188BFF34F8FBFF36F8FFEE770470000A0
:103BB0007800002004ED00E00849486828B1401E64
:103BC000486001D180F311887047502080F311883C
:103BD000BFF34F8FBFF36F8FFEE700007800002028
:103BE00070B5002827D0144DA0F108046168E8687A
:103BF000014207D1502080F31188BFF34F8FBFF3EC
:103C00006F8FFEE722683AB1502080F31188BFF32E
:103C10004F8FBFF36F8FFEE78143616000F0A8F81C
:103C200060686968084468602046FFF75FFEBDE889
:103C3000704000F0CBBB70BD6000002006484FF420
:103C40007A710068B0FBF1F14FF0E020491E41614C
:103C500007210161704700005C00002010B50200E0
:103C600014D00F48006B38B1502080F31188BFF397
:103C70004F8FBFF36F8FFEE700F07AF800211046F8
:103C8000FFF7AAFC00F0A2FB002807D105494FF07E
:103C900080500860BFF34F8FBFF36F8F10BD0000DF
:103CA0008400002004ED00E001490120C861704754
:103CB0008400002010B50C4650B10949096818313C
:103CC000FFF736FF2046BDE810400121FFF784BC16
:103CD000502080F31188BFF34F8FBFF36F8FFEE743
:103CE0008400002028B107490A6A0260C96841605F
:103CF0007047502080F31188BFF34F8FBFF36F8F51
:103D0000FEE70000840000201CB515480024CDE922
:103D100000402346802213A1144800F033FA012802
:103D200009D0401C1AD1502080F31188BFF34F8F67
:103D3000BFF36F8FFEE7502080F31188BFF34F8FE2
:103D4000BFF36F8F06484FF0FF312C38816201219D
:103D50004161C460BDE81C4000F040B81CBD0000DB
:103D6000B000002049444C450000000035380008F0
:103D70000248016B491C0163704700008400002069
:103D80001448016B11B10121C16170470021C1616B
:103D90000169B1FA81F1C1F11F0101EB81020E4904
:103DA00051F822306BB101EB820101F108034A683E
:103DB00052684A609A4201D152684A60D1680160F3
:103DC0007047502080F31188BFF34F8FBFF36F8F80
:103DD000FEE70000840000205C3D00201CB5324856
:103DE0000168324A914207D1502080F31188BFF315
:103DF0004F8FBFF36F8FFEE700682C49491E884242
:103E000007D1502080F31188BFF34F8FBFF36F8F1E
:103E1000FEE7274908780190FF20087008788DF8A0
:103E200000009DF800009DF8002000F0F000904296
:103E300007D0502080F31188BFF34F8FBFF36F8FEF
:103E4000FEE79DF800001B4A00F0500010700720AC
:103E5000906005E09DF800305B008DF80030401E5A
:103E60009DF800301B06F5D4000200F4E06090607D
:103E7000019808700C482030016841F4700101601D
:103E8000016841F070410160FFF7D8FE00205060EA
:103E9000FCF7A4F90848016841F040410160FCF7D3
:103EA0008DF900201CBD000000ED00E071C20F4143
:103EB00000E400E07800002034EF00E010B550206E
:103EC00080F31188BFF34F8FBFF36F8F00F094F929
:103ED00018B104494FF080500860002080F3118829
:103EE00010BD000004ED00E070B50E46050013D0D3
:103EF000D6B105FB06F04830FFF778FD040009D085
:103F000004F1480120468EB10160C0E90F5601213D
:103F100000F00EF8204670BD502080F31188BFF3EA
:103F20004F8FBFF36F8FFEE70020E4E70060ECE700
:103F300070B50D46040025D0FFF71EFED4E90F2012
:103F4000216802FB001161600021A1632168A1606A
:103F50000A46D4E90F01401E00FB0121E160214621
:103F60004FF0FF3001F8440F487004F110008DB19C
:103F7000FFF7D0FD04F12400FFF7CCFDFFF71CFE96
:103F8000012070BD502080F31188BFF34F8FBFF325
:103F90006F8FFEE721690029F0D000F0DDF90028DD
:103FA000ECD004494FF080500860BFF34F8FBFF34F
:103FB0006F8FE3E704ED00E02DE9FF4782B01D4677
:103FC0008A464FF00008040003D0BAF1000F08D071
:103FD00011E0502080F31188BFF34F8FBFF36F8F34
:103FE000FEE7206C38B1502080F31188BFF34F8F6B
:103FF000BFF36F8FFEE7022D0AD1E06B012807D0D7
:10400000502080F31188BFF34F8FBFF36F8FFEE70F
:1040100000F0E4F83F4F4FF000094FF0805648B9E8
:10402000049838B1502080F31188BFF34F8FBFF34D
:104030006F8FFEE7FFF7A0FDA06BE16B884207D30F
:10404000022D05D00498D0B1B8F1000F1AD01EE0AF
:104050002A4651462046FFF787FB616A19B104F1F1
:10406000240000F079F920B13E60BFF34F8FBFF319
:104070006F8FFFF7A1FD012006B0BDE8F087FFF7C5
:104080009BFD22E06846FFF72DFE4FF00108FFF789
:1040900093FDFFF76DFEFFF76FFD94F94400401CA0
:1040A00001D184F8449094F94500401C01D184F872
:1040B0004590FFF781FD04A9684600F02DF830B166
:1040C0002046FFF75DFC00F081F90020D4E7FFF700
:1040D00053FDA06BE16B884213D1FFF76DFD04F136
:1040E00010000499FFF7E6FD2046FFF749FC00F0B9
:1040F0006DF900289ED13E60BFF34F8FBFF36F8FE5
:1041000098E7FFF759FD2046FFF73AFC00F05EF90B
:1041100090E7000004ED00E070B50D46040019D0F2
:1041200005B3FFF729FD164AD1682868431C0FD054
:104130002368126A934202D062688A421AD962687E
:10414000891A814216D2401A28602046FFF7CAFD1C
:10415000002410E0502080F31188BFF34F8FBFF38D
:104160006F8FFEE7502080F31188BFF34F8FBFF3AE
:104170006F8FFEE70124FFF71FFD204670BD000092
:10418000840000202DE9FF5F8346DDE90E87994614
:1041900016468A469000FFF729FC05001AD05420E5
:1041A000FFF724FC040012D025630021CDE9024171
:1041B000CDE900874B46324651465846FFF74EFB45
:1041C0002046FFF741FA012004B0BDE8F09F2846E1
:1041D000FFF706FD4FF0FF30F6E7000005484169A4
:1041E00019B1006B18B10020704701207047022000
:1041F00070470000840000202DE9F0412E4C00277C
:10420000206B40B1A069401CA061E06900B10127AA
:104210003846BDE8F081E668761CE66013D1606B35
:10422000006838B1502080F31188BFF34F8FBFF37F
:104230006F8FFEE7606BA16B6163A063206A401C17
:104240002062FFF779FBA06ADFF87080864209D30D
:10425000606B006880B1606BC068C5686868864242
:104260000DD2A0622068C06A00EB800158F82100DE
:104270000128CAD90127C8E74FF0FF30F1E7281D10
:10428000FFF736FCA86A18B105F11800FFF730FCFB
:10429000E86A0121226981401143216100EB80011C
:1042A00008EB8100291DFFF75BFCE86A2168C96AF9
:1042B0008842CDD30127CBE7840000205C3D00205D
:1042C00070B504004FF0000140D0214D28688442B1
:1042D00007D0502080F31188BFF34F8FBFF36F8F4B
:1042E000FEE7A06C38B1401EA064636CE26A9A429B
:1042F0002CD040B12AE0502080F31188BFF34F8FBB
:10430000BFF36F8FFEE7201DFFF7F2FB114A01217B
:1043100050B9E06A00EB800352F8233023B92B69CF
:1043200001FA00F083432B61606CE062C0F107008A
:10433000A061E06A2B6981401943296100EB80008C
:1043400002EB8000211DFFF70BFC0121084670BD28
:10435000840000205C3D00202DE9F041C068C46865
:10436000ACB104F118000746FFF7C2FB154D286BEE
:104370000126A0B139461448FFF7F2FBE06A29682C
:10438000C96A88421CD90120EE61BDE8F081502045
:1043900080F31188BFF34F8FBFF36F8FFEE7201DAF
:1043A000FFF7A6FBE16A2A6906FA01F010432861CB
:1043B00001EB81000449B43901EB8000211DDBE7EA
:1043C0000020E2E784000020103E00202DE9F047A5
:1043D0002C4D00242746286B38B1FFF7CDFB286B06
:1043E000401E2863286B40B146E0502080F31188BE
:1043F000BFF34F8FBFF36F8FFEE7A968224E0120F6
:10440000D1B3A6F1B40980463068E8B1F068C46859
:1044100004F11800FFF76CFB201DFFF769FBE06A51
:104420002A6908FA00F11143296100EB800109EBC8
:104430008100211DFFF794FBE06A2968C96A884260
:10444000E2D3C5F81C80DFE70CB1FFF775FAAC6961
:1044500044B14646FFF7D0FE00B1EE61641EF9D1CB
:104460000020A861E86938B10849012738070860C9
:10447000BFF34F8FBFF36F8FFFF79EFB3846BDE84A
:10448000F087000084000020103E002004ED00E0D2
:10449000000000000000000000000000000000001C
:1044A0003F400000000000000000300040003000ED
:1044B0004000000009000BC03D000BC03D0009009A
:1044C00018C024407FE0224031800000180024C042
:1044D0001B000D803240018003801C4027401C805F
:1044E00007400040100060000000000000000000D5
:1044F0000000000000001F802040402000004020FD
:1045000020401F8000000000090006001F800600F8
:1045100009000000040004003F80040004000000C3
:104520000010006000000000000000000400040013
:10453000040004000400000000000040000000002F
:1045400000000000002001C006003800400000000C
:104550001F802040204020401F80000000001040AD
:104560003FC000400000000018C02140224024400D
:104570001840000010802040244024401B80000090
:1045800002000D0011003FC0014000003C802440AB
:1045900024402440238000001F80244024403440D5
:1045A000038000003000200027C0380020000000F9
:1045B0001B802440244024401B8000001C0022C09B
:1045C000224022401F800000000000000840000040
:1045D0000000000000000000046000000000000077
:1045E000000004000A00110020804040090009007A
:1045F000090009000900000000004040208011006F
:104600000A000400180020002340240018000000C5
:104610001F802040274029401F400000004007C065
:1046200039000F0001C0004020403FC0244024401A
:104630001B8000001F802040204020403080000070
:1046400020403FC0204020401F80000020403FC04D
:1046500024402E4030C0000020403FC024402E00A7
:10466000300000000F001080204022403380020004
:1046700020403FC0040004003FC0204020402040B4
:104680003FC02040204000000060202020203FC08C
:104690002000200020403FC024400B0030C02040BC
:1046A00020403FC020400040004000C03FC03C00D0
:1046B00003C03C003FC0000020403FC00C4023002E
:1046C0003FC020001F802040204020401F8000006D
:1046D00020403FC024402400180000001F802140DB
:1046E000214020E01FA0000020403FC024402600C1
:1046F00019C0004018C024402440224031800000EE
:10470000300020403FC020403000000020003F80AB
:10471000004000403F80200020003E0001C0070014
:1047200038002000380007C03C0007C038000000F7
:10473000204039C0060039C0204000002000384029
:1047400007C0384020000000304021C026403840DB
:1047500020C00000000000007FE04020402000005A
:10476000000070000C0003800040000000004020AA
:1047700040207FE0000000000000200040002000FA
:1047800000000000001000100010001000100010C9
:104790000000000040000000000000000000028057
:1047A0000540054003C0004020003FC004400440D5
:1047B0000380000000000380044004400640000025
:1047C00000000380044024403FC0004000000380FC
:1047D0000540054003400000000004401FC0244085
:1047E00024402000000002E005500550065004203F
:1047F00020403FC00440040003C0004000000440CB
:1048000027C000400000000000100010041027E046
:104810000000000020403FC00140070004C00440E9
:10482000204020403FC000400040000007C004007E
:1048300007C0040003C00000044007C00440040097
:1048400003C00040000003800440044003800000D7
:10485000041007F0045004400380000000000380AF
:104860000440045007F00010044007C00240040058
:1048700004000000000006400540054004C00000A0
:10488000000004001F800440004000000400078076
:104890000040044007C000400400070004C001803D
:1048A00006000400060001C0070001C00600000069
:1048B000044006C0010006C00440000004100710B8
:1048C00004E00180060004000000044005C006402A
:1048D000044000000000000004007BE040200000D5
:1048E000000000000000FFF0000000000000402079
:1048F0007BE0040000000000400080004000200039
:104900002000400000000000000000000000000047
:10491000000000000000000000001FCC000C0000A0
:1049200000000000000008003000600008003000B7
:1049300060000000022003FC1E20022003FC1E2059
:104940000220000000000E1811043FFF10840C78B4
:10495000000000000F0010840F3800C00778188492
:104960000078000000780F8410C411240E9800E431
:1049700000840008080068007000000000000000CB
:104980000000000000000000000007E018182004EC
:1049900040020000000040022004181807E0000058
:1049A000000000000240024001800FF00180024040
:1049B000024000000080008000800FF8008000802E
:1049C000008000000001000D000E0000000000004B
:1049D0000000000000000080008000800080008057
:1049E000008000800000000C000C000000000000AF
:1049F00000000000000000060018006001800600B2
:104A000018002000000007F008081004100408082F
:104A100007F000000000080408041FFC0004000464
:104A20000000000000000E0C10141024104411842B
:104A30000E0C000000000C18100411041104128860
:104A40000C700000000000E00320042408241FFC78
:104A50000024000000001F98108411041104108825
:104A600010700000000007F0088811041104188875
:104A70000070000000001C00100010FC13001C005F
:104A80001000000000000E381144108410841144FE
:104A90000E38000000000700088C104410440888FD
:104AA00007F00000000000000000030C030C0000F1
:104AB00000000000000000000001010600000000EE
:104AC00000000000000000800140022004100808DF
:104AD00010040000022002200220022002200220F6
:104AE0000220000000001004080804100220014009
:104AF0000080000000000E001200100C106C1080EE
:104B00000F00000003E00C1813E4142417C4082855
:104B100007D000000004003C03C41C40074000E430
:104B2000001C000410041FFC1104110411040E8861
:104B30000070000003E00C181004100410041008AA
:104B40001C10000010041FFC1004100410040808BE
:104B500007F0000010041FFC1104110417C4100416
:104B60000818000010041FFC1104110017C01000E9
:104B70000800000003E00C181004100410441C7816
:104B80000040000010041FFC10840080008010848E
:104B90001FFC10040000100410041FFC100410047B
:104BA0000000000000030001100110011FFE1000B2
:104BB0001000000010041FFC110403801464181C72
:104BC0001004000010041FFC100400040004000482
:104BD000000C000010041FFC1F0000FC1F001FFC45
:104BE0001004000010041FFC0C04030000E0101867
:104BF0001FFC100007F00808100410041004080837
:104C000007F0000010041FFC10841080108010803A
:104C10000F00000007F0081810241024101C080AC8
:104C200007F2000010041FFC1104110011C0113024
:104C30000E0C000400000E1C11041084108410449B
:104C40001C3800001800100010041FFC1004100095
:104C50001800000010001FF81004000400041004E5
:104C60001FF8100010001E0011E0001C00701380DF
:104C70001C0010001FC0103C00E01F0000E0103CB2
:104C80001FC000001004180C163401C001C01634F7
:104C9000180C100410001C00130400FC13041C006A
:104CA000100000000804101C1064108413041C047D
:104CB000101800000000000000007FFE40024002CB
:104CC00040020000000030000C0003800060001C67
:104CD0000003000000004002400240027FFE00008E
:104CE00000000000000000002000400040004000E4
:104CF000200000000001000100010001000100018E
:104D00000001000100004000400020000000000001
:104D10000000000000000098012401440144014407
:104D200000FC000410001FFC00880104010400883E
:104D300000700000000000700088010401040104FC
:104D400000880000000000700088010401041108C0
:104D50001FFC0004000000F8014401440144014428
:104D600000C800000000010401040FFC110411043C
:104D700011001800000000D601290129012901C9EC
:104D80000106000010041FFC008401000100010462
:104D900000FC000400000104190419FC00040004D4
:104DA000000000000000000300010101190119FECC
:104DB0000000000010041FFC0024004001B4010C9E
:104DC000010400000000100410041FFC0004000493
:104DD00000000000010401FC0104010001FC0104C9
:104DE000010000FC010401FC008401000100010439
:104DF00000FC0004000000F80104010401040104A7
:104E000000F80000010101FF008501040104008891
:104E1000007000000000007000880104010401051A
:104E200001FF00010104010401FC008401040100F0
:104E300001800000000000CC012401240124012491
:104E40000198000000000100010007F801040104BE
:104E500000000000010001F8000400040004010843
:104E600001FC0004010001800170000C00100160D1
:104E70000180010001F0010C003001C00030010C84
:104E800001F0010000000104018C00740170018C2C
:104E900001040000010101810171000E0018016090
:104EA0000180010000000184010C013401440184EF
:104EB000010C0000000000000000000001003EFCAA
:104EC000400240020000000000000000FFFF000060
:104ED000000000000000400240023EFC0100000013
:104EE00000000000000060008000800040004000E2
:104EF0002000200000000000000000000000000072
:104F000000000000000000000000000000000000A1
:104F10000000000000000000000000000000000091
:104F2000000000000000000F80380FFE380F8038AE
:104F30000000000000000000000000000000000071
:104F400000000100000600000C00003800003100E5
:104F5000000600000C0000380000300000000000D7
:104F60000000000061800067F807F98000618000A0
:104F700061800061800061800067F807F98000614E
:104F80008000000000000000000001C0E003E0F02D
:104F90000630080418081FFFFE040E080787F003F8
:104FA00081E000000000000001F000060C00040495
:104FB00008060C7001F9C0000E00003BE000EC1880
:104FC000070808040C180003E00000000001E000DE
:104FD00007F003F818041C0804170807E1D003C001
:104FE000E00023B0003C0800200800001000000092
:104FF0000000000100003100003200001C00000031
:1050000000000000000000000000000000000000A0
:105010000000000000000000000000000000000090
:10502000000000007F0001FFC00780F00C00181096
:105030000004200002000000000000200002100018
:10504000040C00180780F001FFC0007F0000000082
:105050000000000000000000000000000000000050
:105060004200006600006600003C0000180003FFDC
:10507000C0001800003C000066000066000042000E
:105080000000000008000008000008000008000000
:10509000080001FFC0000800000800000800000828
:1050A0000000080000000000000100003100003294
:1050B00000001C00000000000000000000000000D4
:1050C00000000000000000000000000008000008D0
:1050D00000000800000800000800000800000800A8
:1050E00000080000080000080000000000000000A8
:1050F0000000000038000038000038000000000008
:10510000000000000000000000000000000000009F
:1051100000000000000600001C000070000180007C
:105120000E0000380000C0000700001C0000300026
:1051300000000000000000007F8001FFE00380709D
:105140000600180400080400080600180380700117
:10515000FFE0007F80000000000000000000010070
:105160000801000801000803FFF807FFF800000825
:10517000000008000008000000000000000000011E
:10518000C03802C05804009804011804021804042E
:1051900018061C1803F81801E0F8000000000000D1
:1051A00000000001C0E003C0F00400080408080487
:1051B000080806180803F41801E7F00001E00000F1
:1051C00000000000000000000300000D00001100BE
:1051D00000610000810803010807FFF80FFFF800D5
:1051E00001080001080000000000000000E007FCCA
:1051F000D006080806100806100806100806183819
:10520000060FF00607C000000000000000000000CC
:105210003F8001FFE00384300208180410080410E6
:1052200008041008071810030FF00007C000000062
:1052300000000000000003C0000700000600000698
:1052400000F80607F806180006E000070000060050
:105250000000000000000001E1E003F7F006341058
:10526000041808041808040C08040C08061618038F
:10527000F3F001C1E000000000000000F80003FCB2
:10528000300306380402080402080402080404106B
:105290000308F001FFC0007F0000000000000000D4
:1052A00000000000000000000000000070380070E6
:1052B000380070380000000000000000000000000E
:1052C00000000000000000000000000000000000DE
:1052D000301A00301C000000000000000000000038
:1052E00000000000000000000000000800001400A2
:1052F00000220000410000808001004002002004E4
:10530000001008000800000000000000210000213B
:1053100000002100002100002100002100002100E8
:10532000002100002100002100000000000000001A
:105330000000080008040010020020010040008066
:10534000800041000022000014000008000000005E
:1053500000000003C00004C000040000080038087A
:105360000F380808380810000C300007E00003C0B0
:1053700000000000000000003F8000FFE00380709C
:10538000020F1006708804C088048308047F880216
:10539000C09003012000FE4000000800001800013A
:1053A000F8003E0801C20007020007E20000FE000C
:1053B000001FC80001F800003800000804000807BA
:1053C000FFF807FFF80408080408080408080408A0
:1053D0000806180803F41801E7F00001E0000000D7
:1053E000000000003F8001FFE0038070020018040D
:1053F00000080400080400080400100600200780CC
:10540000C000000004000807FFF807FFF8040008C8
:105410000400080400080400180200100380700152
:10542000FFE0007F8000000004000807FFF807FF8E
:10543000F8040808040808040808040808043E08DA
:1054400004000806001801006000000004000807BE
:10545000FFF807FFF804080804080004080004081F
:1054600000043E000600000600000180000000006D
:10547000000000003F8001FFE00380700600180478
:1054800000080402080402080203F00783F0000287
:105490000000020004000807FFF807FFF8040808EE
:1054A00000080000080000080000080004080807C1
:1054B000FFF807FFF80400080000000000000400E7
:1054C0000804000804000807FFF807FFF8040008B4
:1054D00004000804000800000000000000000000B4
:1054E00000060000070000010400010400010400A0
:1054F0000307FFFE07FFFC04000004000004000097
:1055000004000807FFF807FFF8040C080018000063
:105510003E0004C7800503C80600F80400380400F4
:105520001800000804000807FFF807FFF804000847
:105530000000080000080000080000080000080043
:10554000001800006000000004000807FFF8078052
:105550000807FC00007FC00003F80007C0007800C7
:1055600007800807FFF807FFF80400080400080791
:10557000FFF807000803C00000E000003800001E2C
:10558000000007000001C00400F007FFF80400005D
:10559000000000007F8001FFE00380700600180417
:1055A000000804000806001803003001FFE0007F37
:1055B0008000000004000807FFF807FFF804040853
:1055C000040400040400040400040400060C0003A6
:1055D000F80001F000000000000000007F8001FFE3
:1055E000E00380700600880400880400C806003CC0
:1055F00003003E01FFE6007F84000000040008076E
:10560000FFF807FFF8040808040800040C00040F62
:1056100000040BC00610F003F03801E00800000899
:1056200000000001E0F803F0300630100418080410
:105630001808040C08040C080206180207F0078179
:10564000E0000000018000060000040000040000EB
:1056500004000807FFF807FFF8040008040000042E
:10566000000006000001800004000007FFE007FFC3
:10567000F0040018000008000008000008000008FE
:1056800000000804001007FFE0040000040000060A
:10569000000007E00007FE00041FE00001F8000022
:1056A000380001E0043E0007C000060000040000CE
:1056B00004000007E00007FFC0041FF80007C00750
:1056C000F80007FF80043FF80007C004F800070057
:1056D0000004000000000004000806001807C0785D
:1056E00005F1C8003E00001F800463E80780F8064B
:1056F00000180400080000000400000600000780F5
:105700000007E008047C08001FF80007F8001808EC
:1057100004E008070000060000040000000000018B
:1057200000080600380400F80403E8040F08047CAD
:105730000805F00807C00807001804006000000012
:105740000000000000000000000000000000003F1A
:10575000FFFE2000022000022000022000022000A4
:105760000200000000000000000008000007000028
:1057700000C0000038000006000001C0000030003A
:10578000000E0000010000000000000000002000EA
:10579000022000022000022000022000023FFFFE43
:1057A00000000000000000000000000000000000F9
:1057B0000000000000080000100000300000200081
:1057C0000030000010000008000000000000000091
:1057D00000000100000100000100000100000100C4
:1057E00000010000010000010000010000010000B4
:1057F0000100000100000000000000000020000087
:105800002000001000001000000000000000000058
:1058100000000000000000000000000000F000197F
:10582000F8001B1800220800260800240800241095
:10583000003FF8001FF800000800001800000004F6
:10584000000007FFF80FFFF00018180010080020F4
:1058500008002008003018001FF0000FC0000000F2
:105860000000000007C0001FF000183000200800F2
:105870002008002008003C08001C10000060000008
:10588000000000000000000007C0001FF0003818F2
:1058900000200800200800200804101007FFF80F5F
:1058A000FFF00000100000000000000000000007F2
:1058B000C0001FF000123000221800220800220849
:1058C000003208001E10000E200000000000000042
:1058D000200000200800200801FFF803FFF8062040
:1058E000080420080420080720000300000000002E
:1058F00000000000000E000E6E001FF30031B1002A
:1059000020B10020B1003191001F13002E1E002095
:105910000E00300000000004000807FFF80FFFF839
:10592000001008002000002000002008003FF800C0
:105930001FF8000008000000000000000000002028
:1059400008002008002008063FF8063FF80000087D
:105950000000080000080000000000000000000037
:1059600000000000030000030020010020010020CF
:1059700003063FFE063FFC000000000000000000A0
:1059800000000004000807FFF80FFFF8000188007E
:105990000300002FC00038F8002038002008000065
:1059A00008000000000000000000040008040008D7
:1059B00004000807FFF80FFFF800000800000800C7
:1059C0000008000000000000002008003FF8003F31
:1059D000F8001008002000003FF8003FF800100811
:1059E000002000003FF8003FF80000080000000021
:1059F0002008003FF8003FF80010080010000020C9
:105A000000002008003FF8001FF800000800000018
:105A10000000000007C0000FF00018300030080040
:105A20002008002008003008001830000FF00007A0
:105A3000C0000000000000002001003FFF003FFF09
:105A40000010110020090020080020080030380054
:105A50001FF0000FC00000000000000007C0001F82
:105A6000F00038180020080020080020090010115C
:105A7000001FFF003FFF00000100000000200800A1
:105A80002008002008003FF8003FF8000808001038
:105A90000800200800200000300000300000000056
:105AA000000000000000000C78001E180033080001
:105AB00023080021080021880021980030F00038D8
:105AC0006000000000000000200000200000200016
:105AD00000FFF003FFF80020080020080020080065
