:020000040800F2
:10000000104E002059020008C7280008E30F00081E
:10001000C528000865030008B12A00080000000098
:100020000000000000000000000000009D0100082A
:100030006703000800000000F1010008F128000833
:1000400073020008730200087302000873020008BC
:1000500073020008730200087302000873020008AC
:10006000730200087302000873020008730200089C
:10007000730200087302000873020008730200088C
:10008000730200087302000873020008730200087C
:10009000730200087302000873020008730200086C
:1000A000730200087302000873020008730200085C
:1000B000E5290008730200087302000873020008B3
:1000C000730200087302000873020008730200083C
:1000D000730200087302000873020008730200082C
:1000E000730200087302000873020008730200081C
:1000F000730200087302000873020008730200080C
:1001000073020008730200087302000873020008FB
:1001100073020008730200087302000873020008EB
:1001200073020008730200087302000873020008DB
:1001300073020008730200087302000873020008CB
:1001400073020008730200087302000873020008BB
:1001500073020008730200087302000873020008AB
:10016000730200087302000873020008730200089B
:100170007302000873020008730200080000000008
:100180007302000873020008DFF80CD000F0D8F802
:1001900000480047D52A0008104E00202B4B196854
:1001A0000868B0E8F04F80F30988BFF36F8F4FF015
:1001B000000080F3118870470000000006480068C6
:1001C000006880F3088862B661B6BFF34F8FBFF353
:1001D0006F8F00DF00BF00BF08ED00E0DFF80C000C
:1001E000016841F470010160704700BF88ED00E0D4
:1001F000EFF30980BFF36F8F144B1A681EF0100FD6
:1002000008BF20ED108A20E9F04F106008B44FF0CD
:10021000500080F31188BFF34F8FBFF36F8F03F04F
:1002200093F84FF0000080F3118808BC1968086843
:10023000B0E8F04F1EF0100F08BFB0EC108A80F34A
:100240000988BFF36F8F704700BF00BF48000020D0
:10025000EFF30580704700000648804706480047D6
:10026000FEE7FEE7FEE7FEE7FEE7FEE7FEE7FEE766
:10027000FEE7FEE791290008890100082DE9F05FFB
:100280000546002092469B46884606468146402405
:100290001BE0284641464746224600F041F85346B7
:1002A0005A46C01A914110D311461846224600F012
:1002B00028F82D1A67EB01084F462246012000213D
:1002C00000F01FF817EB00094E41201EA4F10104B5
:1002D000DFDC484631462A464346BDE8F09F40EA07
:1002E00001039B0703D009E008C9121F08C0042AB4
:1002F000FAD203E011F8013B00F8013B521EF9D29B
:100300007047202A04DB203A00FA02F100207047EF
:100310009140C2F1200320FA03F319439040704743
:10032000202A04DB203A21FA02F00021704721FA4A
:1003300002F3D040C2F120029140084319467047B1
:10034000064C074D06E0E06840F0010394E8070022
:1003500098471034AC42F6D3FFF71AFF505200080A
:1003600070520008FEE7704770B5B3F5804F05D0B6
:100370006FF0704140F82210002070BD50F822400C
:10038000084B8E891C40D1E9003543EA05138D687E
:1003900089692D0245EA06452B430B43234340F868
:1003A0002230E9E70000F0CFF0B50C6850F82430B7
:1003B000114A1340D1E90125D1E903672A433E439D
:1003C00032434E6932438E693243CE6932430E6AFC
:1003D00032434E6A32438E6A3243CE6A3243CE6B28
:1003E000096B32430A431A43082D01D142F04002FF
:1003F00040F824200020F0BD8000F0FF30B500EB75
:10040000820250688D8900F04043D1E9000440EA3F
:1004100004108C68240244EA054420430C8A074DEA
:1004200005EB045420430C7D6D0105EB04648969E0
:100430002043084318435060002030BD0000F0FF07
:100440002DE9F041204886B00168002939D1012109
:1004500001601E480024016841F00101016000684C
:100460004FF4805800F001000C27CDF80080CDE952
:100470000470032602250396CDE901546946144809
:1004800000F02EF84FF68070CDE9000502AA69460B
:1004900082E8D0000F4800F023F84CF23370CDE929
:1004A000000502AA694682E8D0000B4800F018F85F
:1004B00002AA694682E8D000CDE90085074800F02D
:1004C0000FF806B0BDE8F0810C000020383802407B
:1004D0000014024000100240000C024000180240CC
:1004E0002DE9F84FDFF87CB100224FF001084FF002
:1004F000030A4FF00F090BF1040E00BF0B6808FA56
:1005000002F42340A3426ED14D68022D01D0122D7A
:100510000ED1D50800EB850CDCF820505607F70EFD
:1005200009FA07F6B5430E69BE402E43CCF82060A9
:10053000066855000F790AFA05FC07F0030726EA5A
:100540000C06AF40374307604E68012E05D0022EDF
:1005500003D0112E01D0122E0ED18668CF6826EA64
:100560000C06AF40374387604668A6430C79C4F356
:100570000014944034434460C6688C6826EA0C0634
:10058000AC403443C4604C68E40065D5364C256803
:1005900045F480452560246822F0030504F4804476
:1005A0000094324C2E19D6F8084895072F0F09FAF7
:1005B00007F5AC432E4DA84201D1002524E02D4D76
:1005C000A84201D101251FE02B4DA84201D10225EF
:1005D0001AE02A4DA84201D1032515E0284DA84272
:1005E00002D1042510E037E0264DA84201D10525AF
:1005F0000AE0254DA84201D1062505E0234DA84279
:1006000001D1072500E00825BD402543C6F808585C
:10061000DBF800405D464E689C43F60300D51C4362
:100620002C60DEF8004075464E689C43B60300D54A
:100630001C432C600B4D08352C684E689C43F60219
:1006400000D51C432C60074D0C352C684E689C432C
:10065000B60200D51C432C60521C102AFFF44EAF8A
:10066000BDE8F88F003C01404438024000300140B2
:10067000000002400004024000080240000C02405A
:10068000001002400014024000180240001C02400A
:100690000AB1816170470904FBE7000001488068E6
:1006A000704700001400002002488168027811445D
:1006B00081607047140000200B4810B5016841F4B8
:1006C00000710160016841F480610160016841F4DA
:1006D00080710160032000F0B1F8002000F006F8FE
:1006E00000F03EF8002010BD003C024010B501466D
:1006F00088B000221C2000F081F81C2000F072F865
:1007000014480024016841F001010160006805A956
:1007100000F001000690684600F03AF900F05EF93A
:100720000D494000B0FBF1F10C484FF08042491EEA
:10073000026040F2E732C0E90324C0E9011400F08E
:100740006AFB10B1012008B010BD044800F07FFB27
:10075000F9E700004038024040420F00E40000206A
:100760001F4808B5016841F480410160006800F449
:10077000804000901A48001F016841F080510160DC
:10078000006800F080500090032000F057F800222D
:1007900011466FF00B0000F031F8002211466FF0A7
:1007A0000A0000F02BF8002211466FF0090000F05B
:1007B00025F800221146501F00F020F800221146B3
:1007C000101F00F01BF800220F21901E00F016F8F9
:1007D00000220F21BDE80840501E00F00FB80000B5
:1007E0004438024000F01F0201219140400980007E
:1007F00000F1E020C0F8001170470000F0B40E4B8B
:100800001B680C46C3F30223C3F10705042D00D96E
:100810000425191D072901D2002300E0DB1E012653
:1008200006FA05F1491E214099409E40761E164069
:100830003143F0BC02F048B80CED00E0064900F08E
:10084000070208684FF6FF03184040EA0220034AF7
:1008500010430860704700000CED00E00000FA054E
:100860002DE9F0470E46050065D0DFF81481D8F871
:100870000000F7B200F00F00B04207D288F8007015
:10088000D8F8000000F00F00B04254D128683D4C69
:10089000810712D5400703D5206840F4E05020605E
:1008A0002878000703D5206840F460402060206865
:1008B000A96820F0F000084320602878C0072DD0F8
:1008C000304968680839012812D0022813D003285B
:1008D00011D00968890700292DDA216821F0030168
:1008E00001432160FFF7DAFE814641F2883A0EE0CB
:1008F00009688903EFE709688901ECE7FFF7CEFE95
:10090000A0EB0901514502D90320BDE8F08720681A
:10091000696800F00C00B0EB810FEFD1D8F800103F
:10092000404601F00F01B14207D90770006800F09E
:100930000F00B04201D00120E7E72878400705D535
:100940002068E96820F4E050084320602878000718
:1009500006D52068296920F4604040EAC100206083
:1009600000F04CF82168084AC1F30311515CC840FB
:10097000064908600020FFF7B9FE0020C5E7000027
:10098000003C0240083802402C52000820000020A1
:100990000F2202600C4A136803F0030343601368DC
:1009A00003F0F0038360136803F4E053C36012683C
:1009B0004FF4E05303EAD20202610448006800F0F9
:1009C0000F0008607047000008380240003C0240F9
:1009D00001480068704700002000002004480549D5
:1009E00000680968044AC1F38221515CC84070471D
:1009F00020000020083802403C520008154810B57D
:100A0000006810F00C02144813D04110042A0FD0D3
:100A1000082A0ED10F4C241F2268236802F03F02DF
:100A20005B0207D52068C0F38810A0FB010106E037
:100A3000084610BD2168C1F38811A1FB0001002305
:100A4000FFF71CFC2168C1F30141491C4900B0FBC0
:100A5000F1F010BD083802400024F4002DE9F84FF1
:100A6000050076D02878DFF8F8B2BE4CC00749D030
:100A7000DBF800105846C1F38101012908D0006855
:100A8000C0F3810002280AD1201D0068400206D56B
:100A90002068800336D568680028E2D032E06868B4
:100AA000B0F5803F10D0B0F5A02F206810D020F412
:100AB00080302060206820F4802020606868A0B129
:100AC000FFF7ECFD06460CE0206840F48030F4E7C8
:100AD00040F480202060F7E7FFF7E0FD801B6428EA
:100AE00073D820688003F7D50CE0FFF7D7FD0646E2
:100AF00005E000BFFFF7D2FD801B6428F0D8206816
:100B00008003F7D42878DFF8608280074FF000096F
:100B10003ED5DBF80010584611F00C0F09D00068E4
:100B2000C0F3810002280BD18D48001F00684002ED
:100B300006D42068800715D5E868012809D111E09E
:100B4000E868B8B10120C8F80000FFF7A7FD064625
:100B500005E002E1FFF7A2FD801B0228C0D8206853
:100B60008007F7D52068296920F0F80040EAC10025
:100B700020600DE0C8F80090FFF790FD064604E005
:100B8000FFF78CFD801B02281FD820688007F7D450
:100B90002878000722D5724E744869696C3671B1A5
:100BA00001210160FFF77AFD074604E0FFF776FDBB
:100BB000C01B022809D830688007F7D50EE0C0F8BE
:100BC0000090FFF76BFD074605E083E0FFF766FD49
:100BD000C01B02287ED830688007F7D428784007E9
:100BE00068D5DFF87CA100270AF1380ADAF800009E
:100BF000C0000BD4DAF8001041F08051CAF80010A0
:100C0000DAF80000012700F080500090584E30685C
:100C1000C00510D4306840F480703060FFF73EFDAE
:100C2000009005E0FFF73AFD0099401A022851D8DC
:100C30003068C005F6D54A4EA868683601280FD03E
:100C40000528306810D020F001003060306820F0B6
:100C500004003060A868B8B1FFF720FD00900FE0F5
:100C6000306840F00100F4E740F004003060F7E73E
:100C7000FFF714FD0099411A41F28830814264D88F
:100C800030688007F4D50EE0FFF708FD009007E01C
:100C9000FFF704FD0099411A41F28830814254D88F
:100CA00030688007F4D42FB1DAF8001021F08051B9
:100CB000CAF80010A869C0B3DBF80010C1F38101C5
:100CC00002294AD00228484607D0C8F86000FFF73A
:100CD000E5FC00E039E005463AE04746C8F8600028
:100CE000FFF7DCFC064604E0FFF7D8FC801B022877
:100CF0002BD820688001F7D4D5E907010843A96AF9
:100D00001C4A490802EB01416A6A41EA8211084320
:100D100095F82C1040EA01611148001F0160012084
:100D20003866FFF7BBFC054605E014E0FFF7B6FCAC
:100D3000401B022809D820688001F7D50BE000BFCE
:100D4000FFF7ACFC401B022802D90320BDE8F88F56
:100D500020688001F4D40020F8E70120F6E70000C5
:100D6000083802400038024000004742800E4742E7
:100D7000007000400000FFFF70B515460E460400ED
:100D800003D094F8490010B107E0012070BD0020A5
:100D900084F84800204600F01AF804F108012068A1
:100DA000FFF702FB3146A2682068FFF727FBD4E972
:100DB00001022946236BFFF7D7FAA168206850F893
:100DC000212042F0010240F82120002070BDFFF7F1
:100DD00037BB4FF0E0210428086903D020F004005D
:100DE0000861704740F00400FAE710B5401EB0F10A
:100DF000807F01D3012010BD4FF0E02460610F21FE
:100E0000601701F061FD0020A06107202061002033
:100E100010BD7047704710B5040003D094F8390036
:100E200010B107E0012010BD002084F838002046F2
:100E300000F00CF8022084F83900211D206801F030
:100E4000D7FD012084F83900002010BD70470168EB
:100E5000CA6842F00102CA600068016841F00101FD
:100E6000016000207047704770B504460068016952
:100E70004FF00005C943890715D4C168C9438907E4
:100E800011D4E91E01610120207620688069800765
:100E9000204602D0FFF7E7FF04E000F098F8204674
:100EA00000F096F8257620680169C943490717D4F0
:100EB000C168C943490713D46FF0040101610220DE
:100EC00020762068806910F4407F204602D0FFF72A
:100ED000CAFF04E000F07BF8204600F079F82576A0
:100EE00020680169C943090716D4C168C9430907C5
:100EF00012D46FF008010161042020762068C069D7
:100F00008007204602D0FFF7AEFF04E000F05FF854
:100F1000204600F05DF8257620680169C943C906BE
:100F200017D4C168C943C90613D46FF01001016119
:100F3000082020762068C06910F4407F204602D047
:100F4000FFF791FF04E000F042F8204600F040F87F
:100F5000257620680169C943C90708D1C168C9431A
:100F6000C90704D1891E0161204600F032F82068CB
:100F70000169C943090609D4C168C943090605D4F2
:100F80006FF0800101612046FFF743FF206801698F
:100F9000C943490609D4C168C943490605D46FF05D
:100FA00040010161204600F01BF820680169C94337
:100FB00089060BD4C168C943890607D46FF02001A4
:100FC00001612046BDE87040FFF724BF70BD704747
:100FD00070470068B0F1804F01D1FFF765BB7047E3
:100FE0007047FEE72DE9F043174C81460025208825
:100FF00066884643A088A0F5D041043902D1A07983
:10100000012808D00021084601F04AFA01F0A2FBAD
:101010004FF0D84013E00020A0712A2767814FF0DD
:101020002B08A4F80C80014601F03AFA0120A071C7
:10103000A4F80A80A781E9E7A0F880906D1CB5426A
:10104000FAD3BDE8F0830000840000202DE9F04FC2
:101050004A492A242B25898845F2105A4FF4305BDF
:101060004FF4285E4FF448764FF0F00C49F24139C6
:101070004FF4A07345F210374FF4F07280B13F483F
:101080004FF00108494580F806800380A0F802C0AF
:1010900001D0B9423ED12C2606814481858157E09A
:1010A00036484FF00008494580F80680A0F800C097
:1010B000438006D0A1F5D04CBCF1040C01D0B9425C
:1010C0000CD12C2606814481A1F5D0448581043CB5
:1010D00001D0B94244D10380428041E0514507D15B
:1010E000A0F808B0A0F80AE04FF42C5181810EE07E
:1010F000A1F5C853633B06D0222101812021418103
:10110000212181812CE02C21018145818481028073
:10111000468025E0A1F5D04CBCF1040C09D0514526
:101120000BD1A0F808B0A0F80AE04FF42C54848149
:1011300021E02C260681458109E0A1F5C85CBCF1BF
:10114000630C12D022240481212444812024848130
:10115000A1F5D044043C01D0B94201D102804380C2
:10116000BDE8F04F002001F099B84FF02C0CA0F82A
:1011700008C04481858106804280E9E78400002020
:101180002DE9F043434C91460246A08823460D4684
:101190004FEA1128160A5B89A0F51341413916D090
:1011A000A0F5A641103912D0B1F5007114D0264631
:1011B000A0F5C857B1793688B61A761E633F25D098
:1011C000A0F5D047043F3DD0012951D051E0184649
:1011D00001F0B4FA30463CE0184601F0AFFA304670
:1011E00001F0A0FA6089401C80B201F0A7FAD0B2E9
:1011F00001F098FAA08901F0A1FA404601F092FAB4
:10120000A089401C80B201F099FA2DE001B9B2B278
:10121000184601F093FA160A304601F083FAD0B26C
:1012200001F080FA304601F07DFAD0B201F07AFA8E
:10123000A08901F083FA404601F074FAE8B201F0A7
:1012400071FA0EE0012900D1B2B2184601F076FA27
:10125000100A01F067FAD0B201F064FAA08901F037
:101260006DFA404601F05EFAE8B201F05BFA08E080
:10127000B2B21146184601F077FAA089294601F06A
:1012800073FA4FF0D840218920F87E1FA0F8029011
:10129000BDE8F083840000202DE9F84F0020009085
:1012A000322001F03DFC0121002001F05DFA3220E6
:1012B00001F036FC002000F0E5FFFE4A90804FF47C
:1012C0005A4001F03BFA00F0D3FF90804FF45B40AE
:1012D00001F034FA00F0CCFF4FF6FF7404EA00206E
:1012E00090804FF45C4001F029FA00F0C1FF918832
:1012F0000843908045F21051B0F5004F7ED08842EF
:101300001AD100BF4FF02040D0F81C3123F00F035A
:10131000C0F81C31D0F81C3123F47063C0F81C31C4
:10132000D0F81C3143F00303C0F81C31D0F81C3155
:1013300043F40073C0F81C31908888427ED14FF48A
:1013400070435521184601F00FFA4FF20105AA210A
:10135000284601F009FA6E1C5221304601F004FAC9
:10136000AF1C0821384601F0FFF94FF204080121B3
:10137000404601F0F9F90D214FF4304001F0F4F945
:101380000D214BF2010001F0EFF90D214BF20200AB
:1013900001F0EAF94FF436493421484601F0E4F906
:1013A00034214BF2016001F0DFF934214BF202608D
:1013B00001F0DAF94FF4314A0D21504601F0D4F929
:1013C0004BF2011B0D21584601F0CEF90D214BF2D5
:1013D000021001F0C9F934214FF4374001F0C4F98B
:1013E00034214BF2017001F0BFF934214BF202704D
:1013F00001F0BAF900214FF4324000E0FDE301F0C2
:10140000B3F900214BF2012001F0AEF900214BF2BB
:10141000022001F0A9F924214FF4384001F0A4F989
:1014200024214BF6010001F09FF924214BF6020024
:1014300001F09AF901214FF43F4000E0FDE301F093
:1014400093F90F214FF4334001F08EF90F214BF245
:10145000013001F089F90F214BF2023001F084F9DB
:1014600034214FF4394001F07FF934214BF601105B
:1014700001F07AF934214BF6021001F075F90821D8
:101480004FF4354001F070F908214BF2015001F0A2
:101490006BF908214BF2025001F066F903214FF479
:1014A000424001F061F924214FF43A4001F05CF927
:1014B00024214BF6012001F057F924214BF602209C
:1014C00001F052F900214FF43C4001F04DF9782130
:1014D0004BF6014001F048F900214BF6024001F0C3
:1014E00043F900214FF43D4001F03EF978214BF6DD
:1014F000015001F039F900214BF6025001F034F9A6
:1015000000214FF43E4001F02FF964214BF60160B9
:1015100001F02AF900214FF4514001F025F933215F
:101520004DF2011001F020F900214DF2021001F0FE
:101530001BF934214DF2031001F016F900214DF290
:10154000041001F011F93A214DF2051001F00CF9E7
:1015500000214DF2061001F007F94A214DF2071063
:1015600001F002F900214DF2081001F0FDF85C21B4
:101570004DF2091001F0F8F800214DF20A1001F0C7
:10158000F3F881214DF20B1001F0EEF800214DF23D
:101590000C1001F0E9F8A6214DF20D1001F0E4F86D
:1015A00000214DF20E1001F0DFF8E5214DF20F1091
:1015B00001F0DAF801214DF2101001F0D5F81321F5
:1015C0004DF2111001F0D0F801214DF2121001F08E
:1015D000CBF854214DF2131001F0C6F801214DF261
:1015E000141001F0C1F882214DF2151001F0BCF881
:1015F00001214DF2161001F0B7F8CA214DF2171073
:1016000001F0B2F802214DF2181001F0ADF80021FE
:101610004DF2191001F0A8F802214DF21A1001F054
:10162000A3F801214DF21B1001F09EF802214DF2AA
:101630001C1001F099F834214DF21D1001F094F8BE
:1016400002214DF21E1001F08FF867214DF21F109C
:1016500001F08AF802214DF2201001F085F8842172
:101660004DF2211001F080F802214DF2221001F01C
:101670007BF8A4214DF2231001F076F802214DF2FF
:10168000241001F071F8B7214DF2251001F06CF82B
:1016900002214DF2261001F067F8CF214DF22710FC
:1016A00001F062F802214DF2281001F05DF8DE2110
:1016B00002E00000840000204DF2291001F054F8EF
:1016C00002214DF22A1001F04FF8F2214DF22B10B9
:1016D00001F04AF802214DF22C1001F045F8FE21EC
:1016E0004DF22D1001F040F803214DF22E1001F0C3
:1016F0003BF810214DF22F1001F036F803214DF286
:10170000301001F031F833214DF2311001F02CF896
:1017100003214DF2321001F027F86D214DF2331004
:1017200001F022F800214FF4524001F01DF833215E
:101730004DF2012001F018F800214DF2022001F0D5
:1017400013F834214DF2032001F00EF800214DF280
:10175000042001F009F83A214DF2052001F004F8C7
:1017600000214DF2062000F0FFFF4A214DF2072034
:1017700000F0FAFF00214DF2082000F0F5FF5C2197
:101780004DF2092000F0F0FF00214DF20A2000F098
:10179000EBFF81214DF20B2000F0E6FF00214DF21E
:1017A0000C2000F0E1FFA6214DF20D2000F0DCFF3F
:1017B00000214DF20E2000F0D7FFE5214DF20F2061
:1017C00000F0D2FF01214DF2102000F0CDFF1321D7
:1017D0004DF2112000F0C8FF01214DF2122000F05F
:1017E000C3FF54214DF2132000F0BEFF01214DF242
:1017F000142000F0B9FF82214DF2152000F0B4FF53
:1018000001214DF2162000F0AFFFCA214DF2172042
:1018100000F0AAFF02214DF2182000F0A5FF0021E0
:101820004DF2192000F0A0FF02214DF21A2000F025
:101830009BFF01214DF21B2000F096FF02214DF28B
:101840001C2000F091FF34214DF21D2000F08CFF90
:1018500002214DF21E2000F087FF67214DF21F206C
:1018600000F082FF02214DF2202000F07DFF842154
:101870004DF2212000F078FF02214DF2222000F0ED
:1018800073FFA4214DF2232000F06EFF02214DF2E0
:10189000242000F069FFB7214DF2252000F064FFFD
:1018A00002214DF2262000F05FFFCF214DF22720CC
:1018B00000F05AFF02214DF2282000F055FFDE21F2
:1018C0004DF2292000F050FF02214DF22A2000F0B5
:1018D0004BFFF2214DF22B2000F046FF02214DF28A
:1018E0002C2000F041FFFE214DF22D2000F03CFFA6
:1018F00003214DF22E2000F037FF10214DF22F2052
:1019000000F032FF03214DF2302000F02DFF332193
:101910004DF2312000F028FF03214DF2322000F07B
:1019200023FF6D214DF2332000F01EFF00214FF404
:10193000534000F019FF33214DF2013000F014FF45
:1019400000214DF2023000F00FFF34214DF2033040
:1019500000F00AFF00214DF2043000F005FF3A21AB
:101960004DF2053000F000FF00214DF2063000F08E
:10197000FBFE4A214DF2073000F0F6FE00214DF249
:10198000083000F0F1FE5C214DF2093000F0ECFE71
:1019900000214DF20A3000F0E7FE81214DF20B30BC
:1019A00000F0E2FE00214DF20C3000F0DDFEA62139
:1019B0004DF20D3000F0D8FE00214DF20E3000F057
:1019C000D3FEE5214DF20F3000F0CEFE01214DF2A5
:1019D000103000F0C9FE13214DF2113000F0C4FEAA
:1019E00001214DF2123000F0BFFE54214DF21330B0
:1019F00000F0BAFE01214DF2143000F0B5FE822154
:101A00004DF2153000F0B0FE01214DF2163000F01D
:101A1000ABFECA214DF2173000F0A6FE02214DF2B6
:101A2000183000F0A1FE00214DF2193000F09CFEAC
:101A300002214DF21A3000F097FE01214DF21B30C9
:101A400000F092FE02214DF21C3000F08DFE342198
:101A50004DF21D3000F088FE02214DF21E3000F0E4
:101A600083FE67214DF21F3000F07EFE02214DF211
:101A7000203000F079FE84214DF2213000F074FE18
:101A800002214DF2223000F06FFEA4214DF22330EE
:101A900000F06AFE02214DF2243000F065FEB7210D
:101AA0004DF2253000F060FE02214DF2263000F0AC
:101AB0005BFECF214DF2273000F056FE02214DF2A1
:101AC000283000F051FEDE214DF2293000F04CFEAE
:101AD00002214DF22A3000F047FEF2214DF22B3068
:101AE00000F042FE02214DF22C3000F03DFEFE21BE
:101AF0004DF22D3000F038FE03214DF22E3000F073
:101B000033FE10214DF22F3000F02EFE03214DF256
:101B1000303000F029FE33214DF2313000F024FE48
:101B200003214DF2323000F01FFE6D214DF23330B3
:101B300000F01AFE00214FF4544000F015FE33214E
:101B40004DF2014000F010FE00214DF2024000F085
:101B50000BFE34214DF2034000F006FE00214DF251
:101B6000044000F001FE3A214DF2054000F0FCFD7A
:101B700000214DF2064000F0F7FD4A214DF20740EA
:101B800000F0F2FD00214DF2084000F0EDFD5C2177
:101B90004DF2094000F0E8FD00214DF20A4000F04E
:101BA000E3FD81214DF20B4000F0DEFD00214DF2FE
:101BB0000C4000F0D9FDA6214DF20D4000F0D4FDFF
:101BC00000214DF20E4000F0CFFDE5214DF20F4017
:101BD00000F0CAFD01214DF2104000F0C5FD1321B7
:101BE0004DF2114000F0C0FD01214DF2124000F015
:101BF000BBFD54214DF2134000E033E300F0B4FD8F
:101C000001214DF2144000F0AFFD82214DF215404C
:101C100000F0AAFD01214DF2164000F0A5FDCA21F9
:101C20004DF2174000F0A0FD02214DF2184000F0E7
:101C30009BFD00214DF2194000E007E300F094FD08
:101C400002214DF21A4000F08FFD01214DF21B40A0
:101C500000F08AFD02214DF21C4000F085FD342188
:101C60004DF21D4000F080FD02214DF21E4000F0BB
:101C70007BFD67214DF21F4000F076FD02214DF201
:101C8000204000F071FD84214DF2214000F06CFDF8
:101C900002214DF2224000F067FDA4214DF22340C5
:101CA00000F062FD02214DF2244000F05DFDB721FD
:101CB0004DF2254000F058FD02214DF2264000F083
:101CC00053FDCF214DF2274000F04EFD02214DF291
:101CD000284000F049FDDE214DF2294000F044FD8E
:101CE00002214DF22A4000F03FFDF2214DF22B403F
:101CF00000F03AFD02214DF22C4000F035FDFE21AE
:101D00004DF22D4000F030FD03214DF22E4000F049
:101D10002BFD10214DF22F4000F026FD03214DF246
:101D2000304000F021FD33214DF2314000F01CFD28
:101D300003214DF2324000F017FD6D214DF233408A
:101D400000F012FD00214FF4554000F00DFD33214D
:101D50004DF2015000F008FD00214DF2025000F05C
:101D600003FD34214DF2035000F0FEFC00214DF242
:101D7000045000F0F9FC3A214DF2055000F0F4FC5B
:101D800000214DF2065000F0EFFC4A214DF20750C1
:101D900000F0EAFC00214DF2085000F0E5FC5C2167
:101DA0004DF2095000F0E0FC00214DF20A5000F025
:101DB000DBFC81214DF20B5000F0D6FC00214DF2EE
:101DC0000C5000F0D1FCA6214DF20D5000F0CCFCDF
:101DD00000214DF20E5000F0C7FCE5214DF20F50EE
:101DE00000F0C2FC01214DF2105000F0BDFC1321A7
:101DF0004DF2115000F0B8FC01214DF2125000F0EC
:101E0000B3FC54214DF2135000F0AEFC01214DF211
:101E1000145000F0A9FC82214DF2155000F0A4FCF2
:101E200001214DF2165000F09FFCCA214DF21750CF
:101E300000F09AFC02214DF2185000F095FC0021B0
:101E40004DF2195000F090FC02214DF21A5000F0B2
:101E50008BFC01214DF21B5000F086FC02214DF25B
:101E60001C5000F081FC34214DF21D5000F07CFC30
:101E700002214DF21E5000F077FC67214DF21F50F9
:101E800000F072FC02214DF2205000F06DFC842124
:101E90004DF2215000F068FC02214DF2225000F07A
:101EA00063FCA4214DF2235000F05EFC02214DF2B0
:101EB000245000F059FCB7214DF2255000F054FC9D
:101EC00002214DF2265000F04FFCCF214DF2275059
:101ED00000F04AFC02214DF2285000F045FCDE21C2
:101EE0004DF2295000F040FC02214DF22A5000F042
:101EF0003BFCF2214DF22B5000F036FC02214DF25A
:101F00002C5000F031FCFE214DF22D5000F02CFC45
:101F100003214DF22E5000F027FC10214DF22F50DE
:101F200000F022FC03214DF2305000F01DFC332163
:101F30004DF2315000F018FC03214DF2325000F008
:101F400013FC6D214DF2335000F00EFC00214FF4D4
:101F5000564000F009FC33214DF2016000F004FC12
:101F600000214DF2026000F0FFFB34214DF20360CE
:101F700000F0FAFB00214DF2046000F0F5FB3A217D
:101F80004DF2056000F0F0FB00214DF2066000F01C
:101F9000EBFB4A214DF2076000F0E6FB00214DF219
:101FA000086000F0E1FB5C214DF2096000F0DCFB11
:101FB00000214DF20A6000F0D7FB81214DF20B6049
:101FC00000F0D2FB00214DF20C6000F0CDFBA62109
:101FD0004DF20D6000F0C8FB00214DF20E6000F0E4
:101FE000C3FBE5214DF20F6000F0BEFB01214DF275
:101FF000106000F0B9FB13214DF2116000F0B4FB4A
:1020000001214DF2126000F0AFFB54214DF213603C
:1020100000F0AAFB01214DF2146000F0A5FB822123
:102020004DF2156000F0A0FB01214DF2166000F0AA
:102030009BFBCA214DF2176000F096FB02214DF286
:10204000186000F091FB00214DF2196000F08CFB4C
:1020500002214DF21A6000F087FB01214DF21B6056
:1020600000F082FB02214DF21C6000F07DFB342168
:102070004DF21D6000F078FB02214DF21E6000F071
:1020800073FB67214DF21F6000F06EFB02214DF2E1
:10209000206000F069FB84214DF2216000F064FBB8
:1020A00002214DF2226000F05FFBA4214DF223607B
:1020B00000F05AFB02214DF2246000F055FBB721DD
:1020C0004DF2256000F050FB02214DF2266000F039
:1020D0004BFBCF214DF2276000F046FB02214DF271
:1020E000286000F041FBDE214DF2296000F03CFB4E
:1020F00002214DF22A6000F037FBF2214DF22B60F5
:1021000000F032FB02214DF22C6000F02DFBFE218D
:102110004DF22D6000F028FB03214DF22E6000F0FF
:1021200023FB10214DF22F6000F01EFB03214DF226
:10213000306000F019FB33214DF2316000F014FBE8
:1021400003214DF2326000F00FFB6D214DF2336040
:1021500000F00AFB5521184600F006FBAA2128468C
:1021600000F002FB5221304600F0FEFA082138460A
:1021700000F0FAFA0021404600F0F6FACC21504671
:1021800000F0F2FA0021584600F0EEFA0521484628
:1021900000F0EAFA70214FF4374000F0E5FA7021C0
:1021A0004BF2017000F0E0FA01214FF4384000F0EA
:1021B000DBFA03214BF6010000F0D6FA03214BF6BF
:1021C000020000F0D1FA03214BF6030000F0CCFA34
:1021D00002214FF43C4000F0C7FA00214BF60140C9
:1021E00000F0C2FA00214BF6024000F0BDFAD02107
:1021F0004FF4494000F0B8FA02214CF6011000F00B
:10220000B3FA50214CF6021000F0AEFA50214CF611
:10221000031000F0A9FA50214CF6041000F0A4FAC3
:1022200000214FF4545000F09FFA55214FF46850AC
:1022300000F09AFA4FF4885000F080FAA320401E74
:10224000C0B2FCD24FF4245000F078FA0120FEF71F
:10225000FDFE06490120C1F8BC022046BDE8F84F4A
:10226000FEF7C0BE9180FFF74DB8000000804042ED
:1022700008B54FF0D840B0F88000ADF80000BDF8C8
:10228000000008BD00B500F059FA0A20401EC0B297
:10229000FCD25DF804EBFFF7EBBF0000F0B57F4C1C
:1022A00000232146A579898846F6040241F6631683
:1022B000012D01D02DB11DE091421BD0B14202D1C0
:1022C00018E0B14216D1082814D2DFE800F0040665
:1022D000080A0C0E101206200CE007200AE0042069
:1022E00008E0052006E0012004E0002002E00320D1
:1022F00000E00220A1F5134C45F2103745F21055CD
:10230000BCF1410C07D0914205D0B94203D0A9429B
:1023100001D0B1427BD1082812D2DFE800F01104CD
:1023200006080A0C0E1080230AE0402308E0C023B0
:1023300006E0202304E0602302E0A02300E0E02385
:10234000A94202D14FF4585000E03620B94205D0DE
:10235000A94203D0B14201D043F00803914201D118
:1023600043F00203194600F0FFF9A188B1420AD0F8
:1023700098062088628802D5904202D303E09042FA
:1023800001D9228060806089A94241D100F0D6F94C
:10239000002000F0C7F96089401C80B200F0CEF93F
:1023A000002000F0BFF96089801C80B200F0C6F9FF
:1023B0002088401EC0F30F2000F0B4F96089C01CD3
:1023C00080B200F0BBF92078401EC0B200F0AAF93C
:1023D000A08900F0B3F9002000F0A4F9A089401C06
:1023E00080B200F0ABF9002000F09CF9A089801CBD
:1023F00080B200F0A3F96088401EC0F30F2000F007
:1024000091F9A089C01C80B200F098F922E028E080
:1024100000F094F9002000F085F9002000F082F926
:102420002088401EC0F30F2000F07CF92078401E69
:10243000C0B200F077F9A08900F080F9002000F028
:1024400071F9002000F06EF96088401EC0F30F2083
:1024500000F068F9A078BDE8F040401EC0B200F07E
:1024600061B9082812D2DFE800F0040608110A0C4E
:102470000E1030230AE0102308E0202306E0382362
:1024800004E0282302E0182300E00823BDE8F04020
:10249000032043F4805100F067B90000840000205D
:1024A0002DE9F043DFF850810C4602464FEA11292E
:1024B000B8F804004146150A4B89A0F51346413E81
:1024C00017D0A0F5A641103913D04646A0F5D04745
:1024D000B1793688B61A761E043F0FD0A0F5C857DA
:1024E000633F20D0A0F5AA47103F5BD0012977D0E9
:1024F00077E0184600F022F9284606E0012900D1CD
:10250000B2B2184600F01AF9100A00F00BF9D0B276
:1025100000F008F9B8F80C0000F010F9484600F097
:1025200001F9E0B22BE071B3184600F007F9284634
:1025300000F0F8F8D0B200F0F5F8B8F80000401E4E
:10254000C0F30F2000F0EEF898F80000401EC0B273
:1025500000F0E8F8B8F80C0000F0F0F8484600F099
:10256000E1F8E0B200F0DEF8B8F80200401EC0F377
:102570000F2000F0D7F898F80200401EC0B2BDE866
:10258000F04300F0CFB8B2B2184600F0D7F8002000
:1025900000F0C8F8002000F0C5F8100A00F0C2F8FA
:1025A000D0B2D5E7184600F0C9F8284600F0BAF8CE
:1025B000B8F80A00401C80B200F0C0F8D0B200F0B9
:1025C000B1F8B8F80C0000F0B9F8484600F0AAF8E5
:1025D000B8F80C00401C80B200F0B0F8A1E7FFE7AB
:1025E000B2B21146184600F0BFF8B8F80C00214608
:1025F000BDE8F04300F0B8B8840000202DE9FF4F9B
:102600001D460C468A46580700D0012000EBD50035
:10261000690810FB01F0203A00F0FF09D0B2002653
:10262000DFF898B0029044E00C2D11D0102D14D09A
:10263000182D40D10298224900EBC00001EB800028
:102640004FF00008875D38060CD51E4802880DE063
:1026500002981D4900EB4000F0E71C49029801EB8D
:102660000010EDE70D9828B91648428821460098D9
:10267000FEF786FD7806070E641CBBF80200A4B2C4
:10268000A04218D9A4EB0A00A84209D100985446E8
:10269000401C80B20090BBF8001081420BD906E0CC
:1026A00008F1010000F0FF08B8F1080FCBD3761C49
:1026B000F6B24E45B8D3BDE8FF8F0000840000207D
:1026C000BC44000800000020583A0008CC3E000836
:1026D0002DE9F84F044600F0FF0910190D46DDE919
:1026E0000AB61FFA80F8581987B24FF0000A12E0B4
:1026F000444503D305EB0B004C4685B2BD420FD2D7
:102700005B4629462046CDF800A0FFF777FF04EB93
:102710005B0084B2761C3278A2F120005E28E7D9F3
:10272000BDE8F88F01B5BDF80000ADF80000BDF8B8
:1027300000004FF0D841A1F8800008BD01B5BDF8F8
:102740000000ADF80000BDF800004FF0D841A1F83E
:102750007E0008BD03484FF0D8410089A1F87E00F3
:1027600070470000840000204FF0D84222F87E0F0E
:102770005180704710B586B000200590012105A852
:1027800000F0DAF9064C1422064960606846FDF74D
:10279000A6FD0021684600F0ECF9206006B010BDEF
:1027A000040000201852000800B5174887B04FF009
:1027B00020410160154941600621816000211022FD
:1027C000C160C0E904128161C16112020162C0E905
:1027D0000912C1620163416381634164FE20CDE956
:1027E00000013C20CDE902010491059106910022EF
:1027F00069460548FEF7C0FA002803D0682104A006
:1028000000F057F907B000BD94000020040100A0BB
:102810002E2E2F5372632F66736D632E630000009C
:1028200030B5264887B0016841F080010160016839
:1028300001F080010591016841F02001016001680B
:1028400001F020010591016841F01001016001686B
:1028500001F010010591016841F002010160016879
:1028600001F002010591016841F008010160016871
:1028700001F008010591016841F001010160016862
:1028800001F001010591016841F04001016000681B
:102890000B4D00F040004FF400440590002221460B
:1028A0002846FDF7F5FE0121CDE900410291039193
:1028B00069462846FDF714FE07B030BD30380240A7
:1028C00000040240FEE770470907090E002806DAF7
:1028D00000F00F0000F1E02080F8141D704700F1B7
:1028E000E02080F800147047012000F019F9FBE7A0
:1028F00000F035B930B5244893B00025016841F0A7
:1029000080510160006800F0805011901F480168FC
:1029100041F4804101600068022400F4804011907D
:1029200001200090000401908001CDE9064008AA32
:102930000420A82182E813000B906846FEF78EF869
:1029400000B1FEE70CA90F2081E831004FF4A05040
:102950000F904FF48050109005210CA8FDF780FFD8
:1029600000B1FEE7FEF734F84FF47A71B0FBF1F0F6
:10297000FEF73BFA0420FEF72CFA00220F21501E2E
:10298000FDF73CFF13B030BD4038024000700040FE
:102990001048016841F4700101600F48016841F07E
:1029A000010101600C4A00210832116002680B4BE2
:1029B0001A400260031D0A4A1A60026822F480224B
:1029C000026005480C3001600249580680390860F1
:1029D0007047000088ED00E000380240FFFFF6FE7F
:1029E000103000240148FEF73FBA0000E400002048
:1029F000F0B50268234B244D244E254F254C4FF053
:102A0000804C984209D0604507D0A84205D0B0421A
:102A100003D0B84201D0A04204D122F0700E4A681F
:102A200042EA0E0298421BD0604519D0A84217D046
:102A3000B04215D0B84213D0A04211D0164DA842D2
:102A40000ED0164DA8420BD0154DA84208D0154DFA
:102A5000A84205D0144DA84202D0144DA84203D17B
:102A600022F44075CA682A4302608A68C2620A6812
:102A70008262984201D0A04201D10969016301211B
:102A80004161F0BD0000014000040040000800402A
:102A9000000C00400004014000400140004401409F
:102AA0000048014000180040001C00400020004089
:102AB000FEE7FEE702E008C8121F08C1002AFAD1AB
:102AC00070477047002001E001C1121F002AFBD1AE
:102AD000704700001CB5FDF7EFFDFFF70BFFFFF798
:102AE0009FFEFFF761FEFEF7D7FB182006A1CDE998
:102AF00000010346D22228211E20FFF7E9FDFFF73F
:102B000039FE00F014F8FEE7656C6F6E2E2E2E2E47
:102B10002E2E000001460020842900D0C81C7047DA
:102B200010B500B9012000F07DFB002010BD10B5EC
:102B300000F0CEFB002010BD10B5012901D000200F
:102B400010BD03220021012000F0B2FC040004D0DB
:102B500000231A46194600F013FD204610BD10B59B
:102B600000F020FE012803D0BDE8104000F08ABC30
:102B700010BD3EB504460D46B0F90800FFF7CAFF88
:102B800002A9CDE90001208A2B4682B2D4E90010C7
:102B900000F0DCFD012801D000203EBD02983EBDC2
:102BA0002DE9F041184C0F460546E6682068001DE7
:102BB00000F082FA38B9206890F82C100120884083
:102BC000216981432161681C07D137B12168BDE8C3
:102BD000F0410E48091D00F0A7BA20683544B542FF
:102BE0004560216805D2A06BBDE8F041091D00F0E9
:102BF00083BA606B091D00F07FFAA06A854200D29B
:102C0000A562BDE8F081000048000020FC3D0020E6
:102C10002DE9F041054600F093FA2E4CA068401CC7
:102C2000A06020682C4F10B1606940B32DE0256092
:102C3000A068012829D1002606EB860007EB80005A
:102C400000F04CFA761C072EF6D323488C3000F0A7
:102C500045FA2148A03000F041FA1F48B43000F096
:102C60003DFA1D48C83000F039FA1B48DC3000F04E
:102C700035FA19488C3060631430A06305E0206891
:102C8000E96AC06A884200D82560606A401C6062B8
:102C9000E96A0120226988401043206101EB81002C
:102CA00007EB8000291D00F03FFA00F069FA606927
:102CB00000280CD02068E96AC06A884207D2074918
:102CC0004FF080500860BFF34F8FBFF36F8FBDE8A8
:102CD000F081000048000020203D002004ED00E0CD
:102CE00070B5114E114C17E000F026FB3068B8B1FA
:102CF00000F050FE00F024FAF068C568281D00F0CE
:102D0000DBF9A068401EA0606068401E606000F0B3
:102D100037FA284600F042F860680028E4D170BD18
:102D200000F038FEF8E70000E83D002048000020F1
:102D30002DE9F041856B174604460026026C82B1EE
:102D4000C7B1E068FDF7CBFAE168206C091AE160D1
:102D50002268914202D26168081AE060022F16D000
:102D600017E02068A8B9606800F08EFD06460020D4
:102D700060600EE0A068FDF7B2FA216CA06808441C
:102D8000A0606168884204D32068A06001E005B1BA
:102D90006D1E6D1CA5633046BDE8F08110B504467C
:102DA000006B00F001FA2046BDE8104000F0FCB9CD
:102DB00010484FF47051420706D0C01D0D4920F055
:102DC0000700411AC1F570510B4A00230144C2E9C2
:102DD00000030839103A21F0070111604B600B60C5
:102DE0000B1AC0E9001393604FF000405360D060AD
:102DF000704700002001002034000020074C4FF0F5
:102E00008056074DFFF76CFF20680128FAD92E6025
:102E1000BFF34F8FBFF36F8FF4E70000203D00201A
:102E200004ED00E02DE9F0479A46DDE9098481468A
:102E30006FF00303206B03EB82021044089D20F027
:102E40000706700707D0502080F31188BFF34F8F1B
:102E5000BFF36F8FFEE723180A5C83F834200A5C07
:102E600012B1401C1028F6D3002784F84370072DB8
:102E700000D30625E562C4E91157201D00F039F999
:102E800004F1180000F035F92461C5F1070064620F
:102E9000A061E76484F8507052464946304600F01D
:102EA000F5F82060B8F1000F01D0C8F80040BDE887
:102EB000F087000030B5114900E011460A688242EF
:102EC000FBD34B685C18844203D1406818444860C7
:102ED000084643681C18944209D1084C103C2468E9
:102EE000A24209D052681A4442600A68126802601D
:102EF000814200D0086030BD0460F9E73400002052
:102F00000648416B096829B1416BC968C9684968BD
:102F1000816270474FF0FF31FAE70000480000205F
:102F200008484068401C4FF0500080F3118804D0DE
:102F3000BFF34F8FBFF36F8FFEE7BFF34F8FBFF32A
:102F40006F8FFEE73C0000202DE9F041044600F0C1
:102F5000F7F894F9455004F1240609E0606A48B195
:102F6000304600F0DDFC08B100F082F96D1E6DB254
:102F7000002DF3DC4FF0FF3684F8456000F000F9D7
:102F800000F0DEF894F9445004F1100709E02069DC
:102F900048B1384600F0C4FC08B100F069F96D1E74
:102FA0006DB2002DF3DC84F84460BDE8F04100F020
:102FB000E7B800002DE9F0410546002700F0BCF914
:102FC000314E306808B9FFF7F3FEF06805424BD187
:102FD000C5B3083568070ED005F00700C0F108003A
:102FE0000544680707D0502080F31188BFF34F8F46
:102FF000BFF36F8FFEE72DB37068854234D8224847
:10300000103001460C6801E020460C466168A94278
:1030100002D221680029F7D131688C4224D0076898
:103020002168016060680837411B10290FD96019B9
:10303000420708D0502080F31188BFF34F8FBFF3B1
:103040006F8FFEE710E041606560FFF733FF616856
:103050007068401A7060B268904200D2B060F06848
:1030600001430020C4E9000100F094FC780707D078
:10307000502080F31188BFF34F8FBFF36F8FFEE7AF
:103080003846BDE8F08100002400002010B5031F81
:103090004FF080741C601B1F21F001011960191F83
:1030A000044B0B6014390A60091F6FF002024438A8
:1030B0000A6010BD212F0008D0E9013201699A6031
:1030C000D0E901235A604A68824201D182684A608D
:1030D000002202610868401E0860704700F1080184
:1030E0004FF0FF32C0E90112C160016100210160AF
:1030F000704700210161704730B50B685A1C02D03F
:1031000000F1080202E0026904E0224654682568E2
:103110009D42FAD953684B6099608A60516008619A
:103120000168491C016030BD42684A6093688B6049
:1031300093685960916008610168491C016070479B
:10314000502080F31188BFF34F8FBFF36F8F0A4970
:103150004868401C486001280CD10848006810F0FD
:10316000FF0F07D0502080F31188BFF34F8FBFF3BC
:103170006F8FFEE7704700003C00002004ED00E088
:103180000849486828B1401E486001D180F3118881
:103190007047502080F31188BFF34F8FBFF36F8FBC
:1031A000FEE700003C00002070B5002827D0144D39
:1031B000A0F108046168E868014207D1502080F35B
:1031C0001188BFF34F8FBFF36F8FFEE722683AB1CC
:1031D000502080F31188BFF34F8FBFF36F8FFEE74E
:1031E0008143616000F0A8F860686968084468601D
:1031F0002046FFF75FFEBDE8704000F0CBBB70BD1E
:103200002400002006484FF47A710068B0FBF1F109
:103210004FF0E020491E4161072101617047000025
:103220002000002010B5020014D00F48006B38B108
:10323000502080F31188BFF34F8FBFF36F8FFEE7ED
:1032400000F07AF800211046FFF7AAFC00F0A2FB7C
:10325000002807D105494FF080500860BFF34F8F19
:10326000BFF36F8F10BD00004800002004ED00E0A8
:1032700001490120C86170474800002010B50C4684
:1032800050B1094909681831FFF736FF2046BDE8FB
:1032900010400121FFF784BC502080F31188BFF358
:1032A0004F8FBFF36F8FFEE74800002028B107491A
:1032B0000A6A0260C96841607047502080F3118833
:1032C000BFF34F8FBFF36F8FFEE700004800002071
:1032D0001CB515480024CDE900402346802213A1E7
:1032E000144800F033FA012809D0401C1AD15020AC
:1032F00080F31188BFF34F8FBFF36F8FFEE750202D
:1033000080F31188BFF34F8FBFF36F8F06484FF0E4
:10331000FF312C38816201214161C460BDE81C404D
:1033200000F040B81CBD00007400002049444C452A
:1033300000000000FD2D00080248016B491C0163DC
:1033400070470000480000201448016B11B10121B2
:10335000C16170470021C1610169B1FA81F1C1F118
:103360001F0101EB81020E4951F822306BB101EBD4
:10337000820101F108034A6852684A609A4201D109
:1033800052684A60D16801607047502080F311880C
:10339000BFF34F8FBFF36F8FFEE7000048000020A0
:1033A000203D00201CB532480168324A914207D1C5
:1033B000502080F31188BFF34F8FBFF36F8FFEE76C
:1033C00000682C49491E884207D1502080F311889B
:1033D000BFF34F8FBFF36F8FFEE727490878019047
:1033E000FF20087008788DF800009DF800009DF817
:1033F000002000F0F000904207D0502080F31188A8
:10340000BFF34F8FBFF36F8FFEE79DF800001B4A9D
:1034100000F0500010700720906005E09DF800302B
:103420005B008DF80030401E9DF800301B06F5D47F
:10343000000200F4E0609060019808700C482030B1
:10344000016841F470010160016841F07041016060
:10345000FFF7D8FE00205060FCF7C0FE0848016866
:1034600041F040410160FCF7A9FE00201CBD0000B6
:1034700000ED00E071C20F4100E400E03C000020DC
:1034800034EF00E010B5502080F31188BFF34F8F68
:10349000BFF36F8F00F094F918B104494FF08050DA
:1034A0000860002080F3118810BD000004ED00E0EA
:1034B00070B50E46050013D0D6B105FB06F04830B6
:1034C000FFF778FD040009D004F1480120468EB1D1
:1034D0000160C0E90F56012100F00EF8204670BDD2
:1034E000502080F31188BFF34F8FBFF36F8FFEE73B
:1034F0000020E4E70060ECE770B50D46040025D03D
:10350000FFF71EFED4E90F20216802FB0011616065
:103510000021A1632168A1600A46D4E90F01401E81
:1035200000FB0121E16021464FF0FF3001F8440F1C
:10353000487004F110008DB1FFF7D0FD04F12400B4
:10354000FFF7CCFDFFF71CFE012070BD502080F37B
:103550001188BFF34F8FBFF36F8FFEE721690029FA
:10356000F0D000F0DDF90028ECD004494FF0805095
:103570000860BFF34F8FBFF36F8FE3E704ED00E008
:103580002DE9FF4782B01D468A464FF0000804002F
:1035900003D0BAF1000F08D011E0502080F3118859
:1035A000BFF34F8FBFF36F8FFEE7206C38B1502011
:1035B00080F31188BFF34F8FBFF36F8FFEE7022DAB
:1035C0000AD1E06B012807D0502080F31188BFF3A7
:1035D0004F8FBFF36F8FFEE700F0E4F83F4F4FF0DF
:1035E00000094FF0805648B9049838B1502080F354
:1035F0001188BFF34F8FBFF36F8FFEE7FFF7A0FD7A
:10360000A06BE16B884207D3022D05D00498D0B19E
:10361000B8F1000F1AD01EE02A4651462046FFF7A7
:1036200087FB616A19B104F1240000F079F920B137
:103630003E60BFF34F8FBFF36F8FFFF7A1FD0120F7
:1036400006B0BDE8F087FFF79BFD22E06846FFF774
:103650002DFE4FF00108FFF793FDFFF76DFEFFF71A
:103660006FFD94F94400401C01D184F8449094F912
:103670004500401C01D184F84590FFF781FD04A965
:10368000684600F02DF830B12046FFF75DFC00F0F1
:1036900081F90020D4E7FFF753FDA06BE16B88426E
:1036A00013D1FFF76DFD04F110000499FFF7E6FD5B
:1036B0002046FFF749FC00F06DF900289ED13E60DE
:1036C000BFF34F8FBFF36F8F98E7FFF759FD204689
:1036D000FFF73AFC00F05EF990E7000004ED00E02F
:1036E00070B50D46040019D005B3FFF729FD164A41
:1036F000D1682868431C0FD02368126A934202D015
:1037000062688A421AD96268891A814216D2401ABE
:1037100028602046FFF7CAFD002410E0502080F307
:103720001188BFF34F8FBFF36F8FFEE7502080F3F8
:103730001188BFF34F8FBFF36F8FFEE70124FFF7B0
:103740001FFD204670BD0000480000202DE9FF5FEE
:103750008346DDE90E87994616468A469000FFF7B4
:1037600029FC05001AD05420FFF724FC040012D0D5
:1037700025630021CDE90241CDE900874B46324661
:1037800051465846FFF74EFB2046FFF741FA01200D
:1037900004B0BDE8F09F2846FFF706FD4FF0FF306C
:1037A000F6E700000548416919B1006B18B1002027
:1037B0007047012070470220704700004800002039
:1037C0002DE9F0412E4C0027206B40B1A069401C30
:1037D000A061E06900B101273846BDE8F081E668E4
:1037E000761CE66013D1606B006838B1502080F31E
:1037F0001188BFF34F8FBFF36F8FFEE7606BA16B34
:103800006163A063206A401C2062FFF779FBA06A15
:10381000DFF87080864209D3606B006880B1606B0E
:10382000C068C568686886420DD2A0622068C06A18
:1038300000EB800158F821000128CAD90127C8E708
:103840004FF0FF30F1E7281DFFF736FCA86A18B1EA
:1038500005F11800FFF730FCE86A01212269814078
:103860001143216100EB800108EB8100291DFFF766
:103870005BFCE86A2168C96A8842CDD30127CBE79F
:1038800048000020203D002070B504004FF00001EA
:1038900040D0214D2868844207D0502080F3118801
:1038A000BFF34F8FBFF36F8FFEE7A06C38B1401EA0
:1038B000A064636CE26A9A422CD040B12AE05020A6
:1038C00080F31188BFF34F8FBFF36F8FFEE7201D8A
:1038D000FFF7F2FB114A012150B9E06A00EB8003C7
:1038E00052F8233023B92B6901FA00F083432B618E
:1038F000606CE062C0F10700A061E06A2B69814062
:103900001943296100EB800002EB8000211DFFF7C5
:103910000BFC0121084670BD48000020203D00201E
:103920002DE9F041C068C468ACB104F11800074645
:10393000FFF7C2FB154D286B0126A0B1394614488C
:10394000FFF7F2FBE06A2968C96A88421CD90120A6
:10395000EE61BDE8F081502080F31188BFF34F8FF6
:10396000BFF36F8FFEE7201DFFF7A6FBE16A2A6910
:1039700006FA01F01043286101EB81000449B439D3
:1039800001EB8000211DDBE70020E2E7480000207A
:10399000D43D00202DE9F0472C4D00242746286B0C
:1039A00038B1FFF7CDFB286B401E2863286B40B170
:1039B00046E0502080F31188BFF34F8FBFF36F8F25
:1039C000FEE7A968224E0120D1B3A6F1B4098046D2
:1039D0003068E8B1F068C46804F11800FFF76CFBC8
:1039E000201DFFF769FBE06A2A6908FA00F111431C
:1039F000296100EB800109EB8100211DFFF794FB99
:103A0000E06A2968C96A8842E2D3C5F81C80DFE70A
:103A10000CB1FFF775FAAC6944B14646FFF7D0FE2A
:103A200000B1EE61641EF9D10020A861E86938B1E7
:103A30000849012738070860BFF34F8FBFF36F8F26
:103A4000FFF79EFB3846BDE8F087000048000020E5
:103A5000D43D002004ED00E0000000000000000064
:103A600000000000000000003F40000000000000D7
:103A700000003000400030004000000009000BC092
:103A80003D000BC03D00090018C024407FE02240EB
:103A900031800000180024C01B000D8032400180DE
:103AA00003801C4027401C8007400040100060003D
:103AB00000000000000000000000000000001F8067
:103AC000204040200000402020401F8000000000D7
:103AD000090006001F800600090000000400040021
:103AE0003F8004000400000000100060000000009F
:103AF00000000000040004000400040004000000B2
:103B0000000000400000000000000000002001C094
:103B100006003800400000001F8020402040204068
:103B20001F800000000010403FC000400000000067
:103B300018C021402240244018400000108020403E
:103B4000244024401B80000002000D0011003FC0F3
:103B5000014000003C802440244024402380000099
:103B60001F802440244034400380000030002000A7
:103B700027C03800200000001B802440244024403F
:103B80001B8000001C0022C0224022401F80000039
:103B900000000000084000000000000000000000DD
:103BA0000460000000000000000004000A00110092
:103BB00020804040090009000900090009000000B8
:103BC00000004040208011000A000400180020007E
:103BD00023402400180000001F8020402740294077
:103BE0001F400000004007C039000F0001C0004026
:103BF00020403FC0244024401B8000001F80204004
:103C0000204020403080000020403FC02040204025
:103C10001F80000020403FC024402E4030C00000E4
:103C200020403FC024402E00300000000F001080D4
:103C3000204022403380020020403FC004000400A6
:103C40003FC02040204020403FC020402040000096
:103C50000060202020203FC02000200020403FC0E6
:103C600024400B0030C0204020403FC02040004096
:103C7000004000C03FC03C0003C03C003FC000000B
:103C800020403FC00C4023003FC020001F80204048
:103C9000204020401F80000020403FC024402400DE
:103CA000180000001F802140214020E01FA00000DC
:103CB00020403FC02440260019C0004018C02440C6
:103CC0002440224031800000300020403FC020408E
:103CD0003000000020003F80004000403F80200076
:103CE00020003E0001C0070038002000380007C057
:103CF0003C0007C038000000204039C0060039C031
:103D0000204000002000384007C03840200000005C
:103D1000304021C02640384020C000000000000094
:103D20007FE0402040200000000070000C00038075
:103D3000004000000000402040207FE00000000024
:103D400000002000400020000000000000100010D3
:103D500000100010001000100000000040000000E3
:103D600000000000000002800540054003C0004044
:103D700020003FC004400440038000000000038096
:103D8000044004400640000000000380044024403A
:103D90003FC0004000000380054005400340000094
:103DA000000004401FC0244024402000000002E026
:103DB000055005500650042020403FC00440040038
:103DC00003C000400000044027C000400000000085
:103DD00000100010041027E00000000020403FC049
:103DE0000140070004C00440204020403FC0004084
:103DF0000040000007C0040007C0040003C000002A
:103E0000044007C00440040003C0004000000380D9
:103E10000440044003800000041007F004500440F4
:103E200003800000000003800440045007F00010ED
:103E3000044007C0024004000400000000000640E7
:103E40000540054004C00000000004001F8004403D
:103E500000400000040007800040044007C000400C
:103E60000400070004C0018006000400060001C031
:103E7000070001C006000000044006C0010006C0A3
:103E8000044000000410071004E001800600040054
:103E90000000044005C0064004400000000000008F
:103EA00004007BE040200000000000000000FFF064
:103EB00000000000000040207BE004000000000043
:103EC0004000800040002000200040000000000072
:103ED00000000000000000000000000000000000E2
:103EE00000001FCC000C00000000000000000800D3
:103EF000300060000800300060000000022003FC79
:103F00001E20022003FC1E200220000000000E18CC
:103F100011043FFF10840C78000000000F00108493
:103F20000F3800C0077818840078000000780F84EC
:103F300010C411240E9800E40084000808006800F2
:103F40007000000000000000000000000000000001
:103F5000000007E0181820044002000000004002A2
:103F60002004181807E00000000000000240024092
:103F700001800FF0018002400240000000800080BC
:103F800000800FF800800080008000000001000D1C
:103F9000000E000000000000000000000000008093
:103FA0000080008000800080008000800000000C05
:103FB000000C0000000000000000000000000006EF
:103FC000001800600180060018002000000007F0C3
:103FD000080810041004080807F000000000080496
:103FE00008041FFC000400040000000000000E0C88
:103FF00010141024104411840E0C000000000C1842
:1040000010041104110412880C700000000000E07C
:104010000320042408241FFC0024000000001F9833
:10402000108411041104108810700000000007F0C3
:1040300008881104110418880070000000001C009A
:10404000100010FC13001C001000000000000E38CF
:1040500011441084108411440E3800000000070041
:10406000088C10441044088807F00000000000008D
:104070000000030C030C0000000000000000000022
:1040800000010106000000000000000000000080A8
:104090000140022004100808100400000220022041
:1040A0000220022002200220022000000000100452
:1040B00008080410022001400080000000000E00EB
:1040C0001200100C106C10800F00000003E00C18A0
:1040D00013E4142417C4082807D000000004003C8F
:1040E00003C41C40074000E4001C000410041FFC33
:1040F0001104110411040E880070000003E00C1874
:1041000010041004100410081C10000010041FFC00
:10411000100410041004080807F0000010041FFC2D
:104120001104110417C410040818000010041FFC27
:104130001104110017C010000800000003E00C1863
:104140001004100410441C780040000010041FFCF0
:1041500010840080008010841FFC100400001004F4
:1041600010041FFC100410040000000000030001F4
:10417000100110011FFE10001000000010041FFCB1
:10418000110403801464181C1004000010041FFCA8
:104190001004000400040004000C000010041FFCC4
:1041A0001F0000FC1F001FFC1004000010041FFC77
:1041B0000C04030000E010181FFC100007F00808B2
:1041C000100410041004080807F0000010041FFC7D
:1041D00010841080108010800F00000007F0081875
:1041E00010241024101C080A07F2000010041FFC01
:1041F0001104110011C011300E0C000400000E1C3F
:1042000011041084108410441C38000018001000A1
:1042100010041FFC100410001800000010001FF80C
:1042200010040004000410041FF8100010001E0009
:1042300011E0001C007013801C0010001FC0103C17
:1042400000E01F0000E0103C1FC000001004180C2C
:10425000163401C001C01634180C100410001C00E4
:10426000130400FC13041C00100000000804101CC0
:104270001064108413041C041018000000000000D7
:1042800000007FFE400240024002000000003000BB
:104290000C0003800060001C0003000000004002CE
:1042A000400240027FFE000000000000000000000D
:1042B00020004000400040002000000000010001FC
:1042C00000010001000100010001000100004000A8
:1042D00040002000000000000000000000000098E6
:1042E000012401440144014400FC000410001FFCAF
:1042F00000880104010400880070000000000070C4
:10430000008801040104010400880000000000701E
:1043100000880104010411081FFC0004000000F8DB
:10432000014401440144014400C8000000000104AC
:1043300001040FFC1104110411001800000000D644
:1043400001290129012901C90106000010041FFCEF
:10435000008401000100010400FC000400000104CD
:10436000190419FC00040004000000000000000310
:1043700000010101190119FE0000000010041FFCDA
:104380000024004001B4010C0104000000001004EE
:1043900010041FFC0004000400000000010401FCE4
:1043A0000104010001FC0104010000FC010401FC06
:1043B000008401000100010400FC0004000000F87A
:1043C000010401040104010400F80000010101FFDF
:1043D00000850104010400880070000000000070E6
:1043E000008801040104010501FF0001010401042A
:1043F00001FC00840104010001800000000000CCE9
:10440000012401240124012401980000000001007E
:10441000010007F80104010400000000010001F898
:10442000000400040004010801FC000401000180F4
:104430000170000C001001600180010001F0010C0E
:10444000003001C00030010C01F001000000010447
:10445000018C00740170018C0104000001010181D4
:104460000171000E0018016001800100000001844C
:10447000010C013401440184010C00000000000023
:104480000000000001003EFC40024002000000006D
:1044900000000000FFFF00000000000000004002DC
:1044A00040023EFC0100000000000000000060002F
:1044B000800080004000400020002000000000003C
:1044C00000000000000000000000000000000000EC
:1044D00000000000000000000000000000000000DC
:1044E0000000000000000000000000000000000FBD
:1044F00080380FFE380F80380000000000000000F8
:1045000000000000000000000000010000060000A4
:104510000C00003800003100000600000C000038DC
:104520000000300000000000000000006180006713
:10453000F807F9800061800061800061800061807F
:104540000067F807F98000618000000000000000AB
:10455000000001C0E003E0F00630080418081FFF67
:10456000FE040E080787F00381E000000000000051
:1045700001F000060C00040408060C7001F9C000EC
:104580000E00003BE000EC18070808040C180003BC
:10459000E00000000001E00007F003F818041C0828
:1045A00004170807E1D003C0E00023B0003C080076
:1045B0002008000010000000000000010000310091
:1045C000003200001C00000000000000000000009D
:1045D00000000000000000000000000000000000DB
:1045E0000000000000000000000000007F0001FF4C
:1045F000C00780F00C00181000042000020000002A
:104600000000002000021000040C00180780F001D8
:10461000FFC0007F0000000000000000000000005C
:10462000000000000000000042000066000066007C
:10463000003C0000180003FFC0001800003C000010
:10464000660000660000420000000000080000084C
:104650000000080000080000080001FFC00008007A
:10466000000800000800000800000800000000002A
:10467000000100003100003200001C0000000000BA
:10468000000000000000000000000000000000002A
:1046900000000000080000080000080000080000FA
:1046A00008000008000008000008000008000008DA
:1046B000000000000000000000000000380000388A
:1046C00000003800000000000000000000000000B2
:1046D00000000000000000000000000000060000D4
:1046E0001C000070000180000E0000380000C000B7
:1046F0000700001C00003000000000000000000067
:104700007F8001FFE00380700600180400080400A9
:104710000806001803807001FFE0007F80000000A1
:10472000000000000000010008010008010008036B
:10473000FFF807FFF800000800000800000800006C
:104740000000000000000001C03802C058040098BA
:10475000040118040218040418061C1803F81801B0
:10476000E0F800000000000000000001C0E003C00D
:10477000F004000804080804080806180803F418E0
:1047800001E7F00001E00000000000000000000070
:104790000300000D0000110000610000810803010A
:1047A0000807FFF80FFFF8000108000108000000EB
:1047B0000000000000E007FCD0060808061008060C
:1047C0001008061008061838060FF00607C000008B
:1047D00000000000000000003F8001FFE003843083
:1047E0000208180410080410080410080718100321
:1047F0000FF00007C000000000000000000003C030
:10480000000700000600000600F80607F80618007A
:1048100006E00007000006000000000000000001A4
:10482000E1E003F7F0063410041808041808040C3B
:1048300008040C0806161803F3F001C1E00000009C
:1048400000000000F80003FC3003063804020804EE
:1048500002080402080404100308F001FFC0007FEE
:104860000000000000000000000000000000000048
:104870000000000070380070380070380000000040
:104880000000000000000000000000000000000028
:104890000000000000000000301A00301C00000082
:1048A0000000000000000000000000000000000008
:1048B00000000008000014000022000041000080F9
:1048C00080010040020020040010080008000000E1
:1048D0000000000021000021000021000021000054
:1048E0002100002100002100002100002100002102
:1048F0000000000000000000000008000804001094
:1049000002002001004000808000410000220000E1
:10491000140000080000000000000003C00004C0F4
:1049200000040000080038080F3808083808100094
:104930000C300007E00003C0000000000000000091
:104940003F8000FFE0038070020F1006708804C0F3
:1049500088048308047F8802C09003012000FE4081
:104960000000080000180001F8003E0801C200071E
:10497000020007E20000FE00001FC80001F800006E
:104980003800000804000807FFF807FFF8040808CB
:1049900004080804080804080806180803F41801A5
:1049A000E7F00001E0000000000000003F8001FF90
:1049B000E0038070020018040008040008040008E6
:1049C0000400100600200780C00000000400080753
:1049D000FFF807FFF80400080400080400080400BA
:1049E0001802001003807001FFE0007F80000000CB
:1049F00004000807FFF807FFF80408080408080483
:104A00000808040808043E0804000806001801000D
:104A10006000000004000807FFF807FFF80408081A
:104A2000040800040800040800043E000600000614
:104A30000000018000000000000000003F8001FF36
:104A4000E00380700600180400080402080402084D
:104A50000203F00783F000020000020004000807D0
:104A6000FFF807FFF8040808000800000800000825
:104A70000000080004080807FFF807FFF804000812
:104A800000000000000004000804000804000807FB
:104A9000FFF807FFF80400080400080400080000FD
:104AA00000000000000000000006000007000001F8
:104AB00004000104000104000307FFFE07FFFC04DB
:104AC000000004000004000004000807FFF807FFCE
:104AD000F8040C08001800003E0004C7800503C855
:104AE0000600F80400380400180000080400080755
:104AF000FFF807FFF80400080000080000080000A5
:104B00000800000800000800001800006000000015
:104B100004000807FFF807800807FC00007FC000BA
:104B200003F80007C000780007800807FFF807FFB8
:104B3000F804000804000807FFF807000803C00095
:104B400000E000003800001E000007000001C00463
:104B500000F007FFF8040000000000007F8001FF64
:104B6000E00380700600180400080400080600181E
:104B700003003001FFE0007F800000000400080710
:104B8000FFF807FFF8040408040400040400040408
:104B900000040400060C0003F80001F0000000000F
:104BA000000000007F8001FFE003807006008804A1
:104BB00000880400C806003C03003E01FFE6007FB9
:104BC0008400000004000807FFF807FFF804080845
:104BD000040800040C00040F00040BC00610F003CE
:104BE000F03801E00800000800000001E0F803F0E0
:104BF00030063010041808041808040C08040C08C7
:104C00000206180207F00781E0000000018000069C
:104C1000000004000004000004000807FFF807FF7C
:104C2000F8040008040000040000060000018000F1
:104C300004000007FFE007FFF00400180000080070
:104C4000000800000800000800000804001007FF2A
:104C5000E004000004000006000007E00007FE007A
:104C6000041FE00001F80000380001E0043E0007E6
:104C7000C00006000004000004000007E00007FF79
:104C8000C0041FF80007C007F80007FF80043FF8C2
:104C90000007C004F8000700000400000000000442
:104CA000000806001807C07805F1C8003E00001F84
:104CB000800463E80780F80600180400080000007C
:104CC00004000006000007800007E008047C0800DC
:104CD0001FF80007F800180804E0080700000600A5
:104CE000000400000000000100080600380400F87D
:104CF0000403E8040F08047C0805F00807C008074F
:104D00000018040060000000000000000000000027
:104D1000000000000000003FFFFE20000220000213
:104D2000200002200002200002000000000000001D
:104D3000000008000007000000C000003800000666
:104D4000000001C000003000000E00000100000063
:104D500000000000000020000220000220000220CD
:104D600000022000023FFFFE0000000000000000E3
:104D7000000000000000000000000000000800002B
:104D8000100000300000200000300000100000087B
:104D90000000000000000000000001000001000011
:104DA00001000001000001000001000001000001FD
:104DB00000000100000100000100000100000000EF
:104DC0000000000000200000200000100000100083
:104DD00000000000000000000000000000000000D3
:104DE0000000000000F00019F8001B180022080065
:104DF0002608002408002410003FF8001FF80000D7
:104E00000800001800000004000007FFF80FFFF082
:104E100000181800100800200800200800301800B2
:104E20001FF0000FC00000000000000007C0001FBE
:104E3000F0001830002008002008002008003C087E
:104E4000001C1000006000000000000000000000D6
:104E500007C0001FF00038180020080020080020BC
:104E60000804101007FFF80FFFF00000100000000A
:104E70000000000000000007C0001FF0001230001A
:104E80002218002208002208003208001E10000E1E
:104E90002000000000000000200000200800200882
:104EA00001FFF803FFF80620080420080420080783
:104EB000200003000000000000000000000E000EB3
:104EC0006E001FF30031B10020B10020B10031911C
:104ED000001F13002E1E00200E00300000000004F2
:104EE000000807FFF80FFFF800100800200000205E
:104EF00000002008003FF8001FF800000800000034
:104F00000000000000000020080020080020080623
:104F10003FF8063FF8000008000008000008000005
:104F2000000000000000000000000000030000037B
:104F3000002001002001002003063FFE063FFC0088
:104F4000000000000000000000000004000807FF4F
:104F5000F80FFFF8000188000300002FC00038F8A8
:104F600000203800200800000800000000000000B9
:104F7000000004000804000804000807FFF80FFF01
:104F8000F800000800000800000800000000000011
:104F9000002008003FF8003FF80010080020000043
:104FA0003FF8003FF8001008002000003FF8003FE5
:104FB000F8000008000000002008003FF8003FF85B
:104FC000001008001000002000002008003FF8003A
:104FD0001FF80000080000000000000007C0000FDC
:104FE000F0001830003008002008002008003008C9
:104FF000001830000FF00007C000000000000000A3
:105000002001003FFF003FFF001011002009002099
:1050100008002008003038001FF0000FC00000001A
:105020000000000007C0001FF00038180020080032
:105030002008002009001011001FFF003FFF0000A2
:1050400001000000002008002008002008003FF8B0
:10505000003FF800080800100800200800200000A9
:105060003000003000000000000000000000000CD4
:1050700078001E180033080023080021080021884A
:105080000021980030F000386000000000000000AF
:10509000200000200000200000FFF003FFF80020A7
:1050A0000800200800200800003000000000000078
:1050B000000000002000003FF0007FF80000180012
:1050C0000008000008002010003FF8007FF00000FA
:1050D00010000000000000002000003000003C0034
:1050E000003F800023F00000780000700023800063
:1050F0003C00003000002000002000003C00003F89
:10510000E00023F80000E0002700003E00003FE040
:105110000021F80001E0003E000020000000000037
:105120002008002008003838003E6800278000036F
:10513000C8002CF8003838002018002008000000B3
:10514000000000002000003003003C01003F83000D
:1051500023EC000070002380003C000020000020B1
:1051600000000000000000000000003808002038A7
:105170000020F80023E8002F88003E0800380800CF
:105180002018000070000000000000000000000077
:10519000000000000000000008000014001FF7FCE1
:1051A00030000620000200000000000000000000A7
:1051B0000000000000000000000000000000FFFFF1
:1051C000FF000000000000000000000000000000E0
:1051D0000000000000002000023000061FF7FC0065
:1051E00014000008000000000000000000000000A3
:1051F00000000000000000180000600000400000F7
:10520000400000200000100000080000040000041E
:1052100000000C000010000044520008E9280008BB
:1052200000000000000000008000000000000000FE
:105230000000000001020304060708090000000046
:105240000102030464656661756C745461736B00DC
:10525000705200080000002084000000B42A0008FA
:10526000F4520008840000208C4D0000C42A00087D
:105270000000FFFF00000000000000000000000030
:10528000000000000100000010000000000000000D
:105290000024F400000000000000000000000000F6
:1052A00000000000000000000000000000000000FE
:1052B000AAAAAAAA00000000000000000000000046
:1052C00000000000000000000000000000000000DE
:1052D00000000000000000000000000000000000CE
:1052E00000000000000000000000000000000000BE
:0452F00000000000BA
:040000050800018965
:00000001FF
